{"abi":[{"type":"constructor","inputs":[{"name":"_token","type":"address","internalType":"address"},{"name":"_governor","type":"address","internalType":"address"}],"stateMutability":"nonpayable"},{"type":"function","name":"MAX_DEPOSIT","inputs":[],"outputs":[{"name":"","type":"uint256","internalType":"uint256"}],"stateMutability":"view"},{"type":"function","name":"addValidator","inputs":[{"name":"validator","type":"address","internalType":"address"}],"outputs":[],"stateMutability":"nonpayable"},{"type":"function","name":"claimWithdrawal","inputs":[{"name":"sender","type":"bytes20","internalType":"bytes20"},{"name":"recipient","type":"address","internalType":"address"},{"name":"amount","type":"uint256","internalType":"uint256"},{"name":"depositNonce","type":"uint256","internalType":"uint256"},{"name":"signatures","type":"bytes","internalType":"bytes"},{"name":"messageHash","type":"bytes32","internalType":"bytes32"}],"outputs":[],"stateMutability":"nonpayable"},{"type":"function","name":"deposit","inputs":[{"name":"nativeRecipient","type":"bytes20","internalType":"bytes20"},{"name":"amount","type":"uint256","internalType":"uint256"}],"outputs":[],"stateMutability":"nonpayable"},{"type":"function","name":"getAllValidators","inputs":[],"outputs":[{"name":"","type":"address[]","internalType":"address[]"}],"stateMutability":"view"},{"type":"function","name":"getMessageHash","inputs":[{"name":"sender","type":"bytes20","internalType":"bytes20"},{"name":"recipient","type":"address","internalType":"address"},{"name":"amount","type":"uint256","internalType":"uint256"},{"name":"depositNonce","type":"uint256","internalType":"uint256"},{"name":"chainId","type":"uint256","internalType":"uint256"}],"outputs":[{"name":"","type":"bytes32","internalType":"bytes32"}],"stateMutability":"pure"},{"type":"function","name":"getThreshold","inputs":[],"outputs":[{"name":"","type":"uint256","internalType":"uint256"}],"stateMutability":"view"},{"type":"function","name":"getValidatorCount","inputs":[],"outputs":[{"name":"","type":"uint256","internalType":"uint256"}],"stateMutability":"view"},{"type":"function","name":"governor","inputs":[],"outputs":[{"name":"","type":"address","internalType":"address"}],"stateMutability":"view"},{"type":"function","name":"isValidator","inputs":[{"name":"","type":"address","internalType":"address"}],"outputs":[{"name":"","type":"bool","internalType":"bool"}],"stateMutability":"view"},{"type":"function","name":"nonce","inputs":[],"outputs":[{"name":"","type":"uint256","internalType":"uint256"}],"stateMutability":"view"},{"type":"function","name":"pause","inputs":[],"outputs":[],"stateMutability":"nonpayable"},{"type":"function","name":"paused","inputs":[],"outputs":[{"name":"","type":"bool","internalType":"bool"}],"stateMutability":"view"},{"type":"function","name":"removeValidator","inputs":[{"name":"validator","type":"address","internalType":"address"}],"outputs":[],"stateMutability":"nonpayable"},{"type":"function","name":"setGovernor","inputs":[{"name":"newGovernor","type":"address","internalType":"address"}],"outputs":[],"stateMutability":"nonpayable"},{"type":"function","name":"setThreshold","inputs":[{"name":"newThreshold","type":"uint256","internalType":"uint256"}],"outputs":[],"stateMutability":"nonpayable"},{"type":"function","name":"threshold","inputs":[],"outputs":[{"name":"","type":"uint256","internalType":"uint256"}],"stateMutability":"view"},{"type":"function","name":"token","inputs":[],"outputs":[{"name":"","type":"address","internalType":"contract UDAGToken"}],"stateMutability":"view"},{"type":"function","name":"unpause","inputs":[],"outputs":[],"stateMutability":"nonpayable"},{"type":"function","name":"usedNonces","inputs":[{"name":"","type":"uint256","internalType":"uint256"}],"outputs":[{"name":"","type":"bool","internalType":"bool"}],"stateMutability":"view"},{"type":"function","name":"validators","inputs":[{"name":"","type":"uint256","internalType":"uint256"}],"outputs":[{"name":"","type":"address","internalType":"address"}],"stateMutability":"view"},{"type":"event","name":"DepositMade","inputs":[{"name":"sender","type":"address","indexed":true,"internalType":"address"},{"name":"nativeRecipient","type":"bytes20","indexed":true,"internalType":"bytes20"},{"name":"amount","type":"uint256","indexed":false,"internalType":"uint256"},{"name":"nonce","type":"uint256","indexed":true,"internalType":"uint256"}],"anonymous":false},{"type":"event","name":"ThresholdUpdated","inputs":[{"name":"newThreshold","type":"uint256","indexed":false,"internalType":"uint256"}],"anonymous":false},{"type":"event","name":"ValidatorAdded","inputs":[{"name":"validator","type":"address","indexed":true,"internalType":"address"}],"anonymous":false},{"type":"event","name":"ValidatorRemoved","inputs":[{"name":"validator","type":"address","indexed":true,"internalType":"address"}],"anonymous":false},{"type":"event","name":"WithdrawalClaimed","inputs":[{"name":"sender","type":"bytes20","indexed":true,"internalType":"bytes20"},{"name":"recipient","type":"address","indexed":true,"internalType":"address"},{"name":"amount","type":"uint256","indexed":false,"internalType":"uint256"},{"name":"nonce","type":"uint256","indexed":true,"internalType":"uint256"}],"anonymous":false},{"type":"error","name":"AmountTooLarge","inputs":[]},{"type":"error","name":"BridgePaused","inputs":[]},{"type":"error","name":"InsufficientSignatures","inputs":[]},{"type":"error","name":"InvalidRecipient","inputs":[]},{"type":"error","name":"InvalidSignature","inputs":[]},{"type":"error","name":"InvalidValidatorSet","inputs":[]},{"type":"error","name":"NonceAlreadyUsed","inputs":[]},{"type":"error","name":"NotGovernor","inputs":[]}],"bytecode":{"object":"0x60a060405234801561000f575f80fd5b5060405161123338038061123383398101604081905261002e91610070565b6001600160a01b039182166080525f80546001600160a01b031916919092161790556100a1565b80516001600160a01b038116811461006b575f80fd5b919050565b5f8060408385031215610081575f80fd5b61008a83610055565b915061009860208401610055565b90509250929050565b60805161116c6100c75f395f818161034e015281816107b80152610afa015261116c5ff3fe608060405234801561000f575f80fd5b5060043610610132575f3560e01c80637071688a116100b4578063dd5967c311610079578063dd5967c3146102ea578063e75235b8146102f7578063e7a2dd93146102ff578063f3513a3714610312578063facd743b14610327578063fc0c546a14610349575f80fd5b80637071688a146102ab5780638456cb59146102b3578063960bfe04146102bb578063affed0e0146102ce578063c42cf535146102d7575f80fd5b806342cde4e8116100fa57806342cde4e8146102375780634d238c8e146102405780635c975abb146102535780636503126e146102765780636717e41c14610289575f80fd5b80630c340a241461013657806335aa2e44146101655780633a1fda92146101785780633f4ba83a1461021a57806340a141ff14610224575b5f80fd5b5f54610148906001600160a01b031681565b6040516001600160a01b0390911681526020015b60405180910390f35b610148610173366004610e93565b610370565b61020c610186366004610edc565b6040805160c060208201819052600f60e08301526e18db185a5b55da5d1a191c985dd85b608a1b6101008301529181018390526001600160601b0319871660608201526001600160a01b038616608082015260a081018590529081018390525f906101200160405160208183030381529060405280519060200120905095945050505050565b60405190815260200161015c565b610222610398565b005b610222610232366004610f25565b6103d0565b61020c60035481565b61022261024e366004610f25565b6105a9565b5f5461026690600160a01b900460ff1681565b604051901515815260200161015c565b610222610284366004610f45565b610714565b610266610297366004610e93565b60056020525f908152604090205460ff1681565b60025461020c565b61022261089a565b6102226102c9366004610e93565b6108d8565b61020c60045481565b6102226102e5366004610f25565b61098f565b61020c6509184e72a00081565b60035461020c565b61022261030d366004610f6d565b610a01565b61031a610bae565b60405161015c9190611015565b610266610335366004610f25565b60016020525f908152604090205460ff1681565b6101487f000000000000000000000000000000000000000000000000000000000000000081565b6002818154811061037f575f80fd5b5f918252602090912001546001600160a01b0316905081565b5f546001600160a01b031633146103c257604051633b8d9d7560e21b815260040160405180910390fd5b5f805460ff60a01b19169055565b5f546001600160a01b031633146103fa57604051633b8d9d7560e21b815260040160405180910390fd5b6001600160a01b0381165f9081526001602052604090205460ff166104565760405162461bcd60e51b815260206004820152600d60248201526c3737ba103b30b634b230ba37b960991b60448201526064015b60405180910390fd5b6001600160a01b0381165f908152600160205260408120805460ff191690555b60025481101561056a57816001600160a01b03166002828154811061049d5761049d611061565b5f918252602090912001546001600160a01b03160361056257600280546104c690600190611089565b815481106104d6576104d6611061565b5f91825260209091200154600280546001600160a01b03909216918390811061050157610501611061565b905f5260205f20015f6101000a8154816001600160a01b0302191690836001600160a01b03160217905550600280548061053d5761053d6110a2565b5f8281526020902081015f1990810180546001600160a01b031916905501905561056a565b600101610476565b50610573610c0e565b6040516001600160a01b038216907fe1434e25d6611e0db941968fdc97811c982ac1602e951637d206f5fdda9dd8f1905f90a250565b5f546001600160a01b031633146105d357604051633b8d9d7560e21b815260040160405180910390fd5b6001600160a01b0381166106185760405162461bcd60e51b815260206004820152600c60248201526b7a65726f206164647265737360a01b604482015260640161044d565b6001600160a01b0381165f9081526001602052604090205460ff16156106745760405162461bcd60e51b815260206004820152601160248201527030b63932b0b23c903b30b634b230ba37b960791b604482015260640161044d565b6001600160a01b0381165f8181526001602081905260408220805460ff1916821790556002805491820181559091527f405787fa12a823e0f2b7631cc41b3ba8828b3321ca811111fa75cd3aa3bb5ace0180546001600160a01b03191690911790556106de610c0e565b6040516001600160a01b038216907fe366c1c0452ed8eec96861e9e54141ebff23c9ec89fe27b996b45f5ec3884987905f90a250565b5f54600160a01b900460ff161561073e5760405163a792dfa360e01b815260040160405180910390fd5b6001600160601b0319821661076657604051634e46966960e11b815260040160405180910390fd5b80158061077857506509184e72a00081115b1561079657604051630625040160e01b815260040160405180910390fd5b6040516323b872dd60e01b8152336004820152306024820152604481018290527f00000000000000000000000000000000000000000000000000000000000000006001600160a01b0316906323b872dd906064016020604051808303815f875af1158015610806573d5f803e3d5ffd5b505050506040513d601f19601f8201168201806040525081019061082a91906110b6565b50600480545f918261083b836110d5565b91905055905080836bffffffffffffffffffffffff1916336001600160a01b03167fbe11778ef16d88c17b2504ed0e5d4e7afe2b2b0871b1360b5e303d966218b63e8560405161088d91815260200190565b60405180910390a4505050565b5f546001600160a01b031633146108c457604051633b8d9d7560e21b815260040160405180910390fd5b5f805460ff60a01b1916600160a01b179055565b5f546001600160a01b0316331461090257604051633b8d9d7560e21b815260040160405180910390fd5b5f8111801561091357506002548111155b6109535760405162461bcd60e51b81526020600482015260116024820152701a5b9d985b1a59081d1a1c995cda1bdb19607a1b604482015260640161044d565b60038190556040518181527fadfa8ecb21b6962ebcd0adbd9ab985b7b4c5b5eb3b0dead683171565c7bfe171906020015b60405180910390a150565b5f546001600160a01b031633146109b957604051633b8d9d7560e21b815260040160405180910390fd5b6001600160a01b0381166109e057604051634e46966960e11b815260040160405180910390fd5b5f80546001600160a01b0319166001600160a01b0392909216919091179055565b5f54600160a01b900460ff1615610a2b5760405163a792dfa360e01b815260040160405180910390fd5b6001600160a01b038616610a5257604051634e46966960e11b815260040160405180910390fd5b841580610a6457506509184e72a00085115b15610a8257604051630625040160e01b815260040160405180910390fd5b5f8481526005602052604090205460ff1615610ab057604051623f613760e71b815260040160405180910390fd5b610abc81848488610c7d565b5f8481526005602052604090819020805460ff19166001179055516340c10f1960e01b81526001600160a01b038781166004830152602482018790527f000000000000000000000000000000000000000000000000000000000000000016906340c10f19906044015f604051808303815f87803b158015610b3b575f80fd5b505af1158015610b4d573d5f803e3d5ffd5b5050505083866001600160a01b0316886bffffffffffffffffffffffff19167fcde7ea0aa1201ccea082139fe78a30f47ea44c652fe78ac686f1b5177923ee5188604051610b9d91815260200190565b60405180910390a450505050505050565b60606002805480602002602001604051908101604052809291908181526020018280548015610c0457602002820191905f5260205f20905b81546001600160a01b03168152600190910190602001808311610be6575b5050505050905090565b6002546003811015610c24576003819055610c4a565b6003610c318260026110ed565b610c3c906002611104565b610c469190611117565b6003555b7fadfa8ecb21b6962ebcd0adbd9ab985b7b4c5b5eb3b0dead683171565c7bfe17160035460405161098491815260200190565b5f610c89604184611117565b9050600354811015610cae57604051633724e34360e11b815260040160405180910390fd5b5f805f5b83811015610e66575f808080610cc98560416110ed565b8b81018035955060208101359450604001355f1a925090507f7fffffffffffffffffffffffffffffff5d576e7357a4501ddfe92f46681b20a0831115610d415760405162461bcd60e51b815260206004820152600d60248201526c6d616c6c6561626c652073696760981b604482015260640161044d565b604080515f808252602082018084528f905260ff851692820192909252606081018690526080810185905260019060a0016020604051602081039080840390855afa158015610d92573d5f803e3d5ffd5b5050604051601f1901519150506001600160a01b038116610dc657604051638baa579f60e01b815260040160405180910390fd5b6001600160a01b0381165f9081526001602052604090205460ff16610def575050505050610e5e565b876001600160a01b0316816001600160a01b031611610e485760405162461bcd60e51b81526020600482015260156024820152741cda59db985d1d5c995cc81b9bdd081cdbdc9d1959605a1b604482015260640161044d565b96508686610e55816110d5565b97505050505050505b600101610cb2565b50600354811015610e8a57604051633724e34360e11b815260040160405180910390fd5b50505050505050565b5f60208284031215610ea3575f80fd5b5035919050565b80356001600160601b031981168114610ec1575f80fd5b919050565b80356001600160a01b0381168114610ec1575f80fd5b5f805f805f60a08688031215610ef0575f80fd5b610ef986610eaa565b9450610f0760208701610ec6565b94979496505050506040830135926060810135926080909101359150565b5f60208284031215610f35575f80fd5b610f3e82610ec6565b9392505050565b5f8060408385031215610f56575f80fd5b610f5f83610eaa565b946020939093013593505050565b5f805f805f805f60c0888a031215610f83575f80fd5b610f8c88610eaa565b9650610f9a60208901610ec6565b95506040880135945060608801359350608088013567ffffffffffffffff80821115610fc4575f80fd5b818a0191508a601f830112610fd7575f80fd5b813581811115610fe5575f80fd5b8b6020828501011115610ff6575f80fd5b60208301955080945050505060a0880135905092959891949750929550565b602080825282518282018190525f9190848201906040850190845b818110156110555783516001600160a01b031683529284019291840191600101611030565b50909695505050505050565b634e487b7160e01b5f52603260045260245ffd5b634e487b7160e01b5f52601160045260245ffd5b8181038181111561109c5761109c611075565b92915050565b634e487b7160e01b5f52603160045260245ffd5b5f602082840312156110c6575f80fd5b81518015158114610f3e575f80fd5b5f600182016110e6576110e6611075565b5060010190565b808202811582820484141761109c5761109c611075565b8082018082111561109c5761109c611075565b5f8261113157634e487b7160e01b5f52601260045260245ffd5b50049056fea264697066735822122051f6daeba8696cc6bdda9c6e287f7110c07274b68f948b1436346b5eab16000364736f6c63430008180033","linkReferences":{}},"methodIdentifiers":{"MAX_DEPOSIT()":"dd5967c3","addValidator(address)":"4d238c8e","claimWithdrawal(bytes20,address,uint256,uint256,bytes,bytes32)":"e7a2dd93","deposit(bytes20,uint256)":"6503126e","getAllValidators()":"f3513a37","getMessageHash(bytes20,address,uint256,uint256,uint256)":"3a1fda92","getThreshold()":"e75235b8","getValidatorCount()":"7071688a","governor()":"0c340a24","isValidator(address)":"facd743b","nonce()":"affed0e0","pause()":"8456cb59","paused()":"5c975abb","removeValidator(address)":"40a141ff","setGovernor(address)":"c42cf535","setThreshold(uint256)":"960bfe04","threshold()":"42cde4e8","token()":"fc0c546a","unpause()":"3f4ba83a","usedNonces(uint256)":"6717e41c","validators(uint256)":"35aa2e44"},"id":43}