{"abi":[{"type":"constructor","inputs":[{"name":"_token","type":"address","internalType":"address"},{"name":"_governor","type":"address","internalType":"address"}],"stateMutability":"nonpayable"},{"type":"receive","stateMutability":"payable"},{"type":"function","name":"DAILY_DEPOSIT_LIMIT","inputs":[],"outputs":[{"name":"","type":"uint256","internalType":"uint256"}],"stateMutability":"view"},{"type":"function","name":"DAILY_WITHDRAWAL_LIMIT","inputs":[],"outputs":[{"name":"","type":"uint256","internalType":"uint256"}],"stateMutability":"view"},{"type":"function","name":"MAX_DEPOSIT","inputs":[],"outputs":[{"name":"","type":"uint256","internalType":"uint256"}],"stateMutability":"view"},{"type":"function","name":"MAX_VALIDATORS","inputs":[],"outputs":[{"name":"","type":"uint256","internalType":"uint256"}],"stateMutability":"view"},{"type":"function","name":"MIN_DEPOSIT","inputs":[],"outputs":[{"name":"","type":"uint256","internalType":"uint256"}],"stateMutability":"view"},{"type":"function","name":"MIN_VALIDATORS","inputs":[],"outputs":[{"name":"","type":"uint256","internalType":"uint256"}],"stateMutability":"view"},{"type":"function","name":"acceptGovernor","inputs":[],"outputs":[],"stateMutability":"nonpayable"},{"type":"function","name":"addValidator","inputs":[{"name":"validator","type":"address","internalType":"address"}],"outputs":[],"stateMutability":"nonpayable"},{"type":"function","name":"bridgeEnabled","inputs":[],"outputs":[{"name":"","type":"bool","internalType":"bool"}],"stateMutability":"view"},{"type":"function","name":"claimWithdrawal","inputs":[{"name":"sender","type":"bytes20","internalType":"bytes20"},{"name":"recipient","type":"address","internalType":"address"},{"name":"amount","type":"uint256","internalType":"uint256"},{"name":"depositNonce","type":"uint256","internalType":"uint256"},{"name":"signatures","type":"bytes","internalType":"bytes"}],"outputs":[],"stateMutability":"nonpayable"},{"type":"function","name":"dailyDepositVolume","inputs":[{"name":"","type":"uint256","internalType":"uint256"}],"outputs":[{"name":"","type":"uint256","internalType":"uint256"}],"stateMutability":"view"},{"type":"function","name":"dailyWithdrawalVolume","inputs":[{"name":"","type":"uint256","internalType":"uint256"}],"outputs":[{"name":"","type":"uint256","internalType":"uint256"}],"stateMutability":"view"},{"type":"function","name":"deposit","inputs":[{"name":"nativeRecipient","type":"bytes20","internalType":"bytes20"},{"name":"amount","type":"uint256","internalType":"uint256"}],"outputs":[],"stateMutability":"nonpayable"},{"type":"function","name":"emergencyWithdrawERC20","inputs":[{"name":"tokenAddress","type":"address","internalType":"address"},{"name":"to","type":"address","internalType":"address"},{"name":"amount","type":"uint256","internalType":"uint256"}],"outputs":[],"stateMutability":"nonpayable"},{"type":"function","name":"emergencyWithdrawETH","inputs":[{"name":"to","type":"address","internalType":"address payable"}],"outputs":[],"stateMutability":"nonpayable"},{"type":"function","name":"getAllValidators","inputs":[],"outputs":[{"name":"","type":"address[]","internalType":"address[]"}],"stateMutability":"view"},{"type":"function","name":"getDailyWithdrawalVolume","inputs":[{"name":"date","type":"uint256","internalType":"uint256"}],"outputs":[{"name":"","type":"uint256","internalType":"uint256"}],"stateMutability":"view"},{"type":"function","name":"getMessageHash","inputs":[{"name":"sender","type":"bytes20","internalType":"bytes20"},{"name":"recipient","type":"address","internalType":"address"},{"name":"amount","type":"uint256","internalType":"uint256"},{"name":"depositNonce","type":"uint256","internalType":"uint256"}],"outputs":[{"name":"","type":"bytes32","internalType":"bytes32"}],"stateMutability":"view"},{"type":"function","name":"getThreshold","inputs":[],"outputs":[{"name":"","type":"uint256","internalType":"uint256"}],"stateMutability":"view"},{"type":"function","name":"getValidatorCount","inputs":[],"outputs":[{"name":"","type":"uint256","internalType":"uint256"}],"stateMutability":"view"},{"type":"function","name":"governor","inputs":[],"outputs":[{"name":"","type":"address","internalType":"address"}],"stateMutability":"view"},{"type":"function","name":"isNonceUsed","inputs":[{"name":"_nonce","type":"uint256","internalType":"uint256"}],"outputs":[{"name":"","type":"bool","internalType":"bool"}],"stateMutability":"view"},{"type":"function","name":"isValidator","inputs":[{"name":"","type":"address","internalType":"address"}],"outputs":[{"name":"","type":"bool","internalType":"bool"}],"stateMutability":"view"},{"type":"function","name":"migrateToNewBridge","inputs":[{"name":"newBridge","type":"address","internalType":"address"},{"name":"amount","type":"uint256","internalType":"uint256"}],"outputs":[],"stateMutability":"nonpayable"},{"type":"function","name":"nonce","inputs":[],"outputs":[{"name":"","type":"uint256","internalType":"uint256"}],"stateMutability":"view"},{"type":"function","name":"pause","inputs":[],"outputs":[],"stateMutability":"nonpayable"},{"type":"function","name":"paused","inputs":[],"outputs":[{"name":"","type":"bool","internalType":"bool"}],"stateMutability":"view"},{"type":"function","name":"pendingGovernor","inputs":[],"outputs":[{"name":"","type":"address","internalType":"address"}],"stateMutability":"view"},{"type":"function","name":"removeValidator","inputs":[{"name":"validator","type":"address","internalType":"address"}],"outputs":[],"stateMutability":"nonpayable"},{"type":"function","name":"setGovernor","inputs":[{"name":"newGovernor","type":"address","internalType":"address"}],"outputs":[],"stateMutability":"nonpayable"},{"type":"function","name":"setThreshold","inputs":[{"name":"newThreshold","type":"uint256","internalType":"uint256"}],"outputs":[],"stateMutability":"nonpayable"},{"type":"function","name":"threshold","inputs":[],"outputs":[{"name":"","type":"uint256","internalType":"uint256"}],"stateMutability":"view"},{"type":"function","name":"token","inputs":[],"outputs":[{"name":"","type":"address","internalType":"contract UDAGToken"}],"stateMutability":"view"},{"type":"function","name":"unpause","inputs":[],"outputs":[],"stateMutability":"nonpayable"},{"type":"function","name":"usedNonces","inputs":[{"name":"","type":"uint256","internalType":"uint256"}],"outputs":[{"name":"","type":"bool","internalType":"bool"}],"stateMutability":"view"},{"type":"function","name":"validators","inputs":[{"name":"","type":"uint256","internalType":"uint256"}],"outputs":[{"name":"","type":"address","internalType":"address"}],"stateMutability":"view"},{"type":"event","name":"BridgeEnabled","inputs":[],"anonymous":false},{"type":"event","name":"BridgeMigration","inputs":[{"name":"newBridge","type":"address","indexed":true,"internalType":"address"},{"name":"amount","type":"uint256","indexed":false,"internalType":"uint256"}],"anonymous":false},{"type":"event","name":"BridgePaused","inputs":[{"name":"pausedBy","type":"address","indexed":true,"internalType":"address"}],"anonymous":false},{"type":"event","name":"BridgeUnpaused","inputs":[{"name":"unpausedBy","type":"address","indexed":true,"internalType":"address"}],"anonymous":false},{"type":"event","name":"DepositMade","inputs":[{"name":"sender","type":"address","indexed":true,"internalType":"address"},{"name":"nativeRecipient","type":"bytes20","indexed":true,"internalType":"bytes20"},{"name":"amount","type":"uint256","indexed":false,"internalType":"uint256"},{"name":"depositNonce","type":"uint256","indexed":true,"internalType":"uint256"},{"name":"sourceChainId","type":"uint256","indexed":false,"internalType":"uint256"}],"anonymous":false},{"type":"event","name":"ETHReceived","inputs":[{"name":"sender","type":"address","indexed":true,"internalType":"address"},{"name":"amount","type":"uint256","indexed":false,"internalType":"uint256"}],"anonymous":false},{"type":"event","name":"EmergencyWithdrawal","inputs":[{"name":"token","type":"address","indexed":true,"internalType":"address"},{"name":"to","type":"address","indexed":true,"internalType":"address"},{"name":"amount","type":"uint256","indexed":false,"internalType":"uint256"}],"anonymous":false},{"type":"event","name":"GovernorAccepted","inputs":[{"name":"oldGovernor","type":"address","indexed":true,"internalType":"address"},{"name":"newGovernor","type":"address","indexed":true,"internalType":"address"}],"anonymous":false},{"type":"event","name":"PendingGovernorSet","inputs":[{"name":"currentGovernor","type":"address","indexed":true,"internalType":"address"},{"name":"pendingGovernor","type":"address","indexed":true,"internalType":"address"}],"anonymous":false},{"type":"event","name":"ThresholdUpdated","inputs":[{"name":"newThreshold","type":"uint256","indexed":false,"internalType":"uint256"}],"anonymous":false},{"type":"event","name":"ValidatorAdded","inputs":[{"name":"validator","type":"address","indexed":true,"internalType":"address"}],"anonymous":false},{"type":"event","name":"ValidatorRemoved","inputs":[{"name":"validator","type":"address","indexed":true,"internalType":"address"}],"anonymous":false},{"type":"event","name":"WithdrawalClaimed","inputs":[{"name":"sender","type":"bytes20","indexed":true,"internalType":"bytes20"},{"name":"recipient","type":"address","indexed":true,"internalType":"address"},{"name":"amount","type":"uint256","indexed":false,"internalType":"uint256"},{"name":"nonce","type":"uint256","indexed":true,"internalType":"uint256"}],"anonymous":false},{"type":"error","name":"AmountTooLarge","inputs":[]},{"type":"error","name":"AmountTooSmall","inputs":[]},{"type":"error","name":"BridgeIsPaused","inputs":[]},{"type":"error","name":"DailyLimitExceeded","inputs":[]},{"type":"error","name":"InsufficientSignatures","inputs":[]},{"type":"error","name":"InvalidRecipient","inputs":[]},{"type":"error","name":"InvalidSignature","inputs":[]},{"type":"error","name":"InvalidValidatorSet","inputs":[]},{"type":"error","name":"MalleableSignature","inputs":[]},{"type":"error","name":"MinValidatorsNotMet","inputs":[]},{"type":"error","name":"NonceAlreadyUsed","inputs":[]},{"type":"error","name":"NotGovernor","inputs":[]},{"type":"error","name":"NotPaused","inputs":[]},{"type":"error","name":"NotPendingGovernor","inputs":[]},{"type":"error","name":"ReentrancyGuardReentrantCall","inputs":[]},{"type":"error","name":"SafeERC20FailedOperation","inputs":[{"name":"token","type":"address","internalType":"address"}]},{"type":"error","name":"SignatureNotSorted","inputs":[]}],"bytecode":{"object":"0x60a060405234801562000010575f80fd5b506040516200200d3803806200200d8339810160408190526200003391620000d8565b60017f9b779b17422d0df92223018b32b4d1fa46e071723d6817e2486d003becc55f00556001600160a01b03821615806200007557506001600160a01b038116155b156200009457604051634e46966960e11b815260040160405180910390fd5b6001600160a01b039182166080525f80546001600160a01b031916919092161790556200010e565b80516001600160a01b0381168114620000d3575f80fd5b919050565b5f8060408385031215620000ea575f80fd5b620000f583620000bc565b91506200010560208401620000bc565b90509250929050565b608051611eca620001435f395f81816106440152818161086301528181610efb01528181611100015261156c0152611eca5ff3fe60806040526004361061020a575f3560e01c80637071688a11610113578063e3056a341161009d578063fa31a80d1161006d578063fa31a80d146105da578063facd743b14610605578063fc0c546a14610633578063fd37349f14610666578063fd8df68f14610691575f80fd5b8063e3056a3414610572578063e58bb63914610591578063e75235b8146105a5578063f3513a37146105b9575f80fd5b8063960bfe04116100e3578063960bfe04146104ef578063affed0e01461050e578063c42cf53514610523578063dd5967c314610542578063e1e158a51461055b575f80fd5b80637071688a146104b3578063714897df146104c757806373412857146102cf5780638456cb59146104db575f80fd5b806342cde4e8116101945780635c975abb116101645780635c975abb146104045780635d00bb12146104245780635ed1f963146104525780636503126e146104665780636717e41c14610485575f80fd5b806342cde4e8146103865780634d238c8e1461039b57806355b8fb81146103ba5780635a0c19ed146103d9575f80fd5b8063214ff459116101da578063214ff459146102f657806335aa2e441461031557806337f51ee2146103345780633f4ba83a1461035357806340a141ff14610367575f80fd5b8063080cc56a1461024a5780630c340a241461026b5780630cd3ad01146102a65780631da0bcd8146102cf575f80fd5b366102465760405134815233907fbfe611b001dfcd411432f7bf0d79b82b4b2ee81511edac123a3403c357fb972a9060200160405180910390a2005b5f80fd5b348015610255575f80fd5b50610269610264366004611ba2565b6106b0565b005b348015610276575f80fd5b505f54610289906001600160a01b031681565b6040516001600160a01b0390911681526020015b60405180910390f35b3480156102b1575f80fd5b506005546102bf9060ff1681565b604051901515815260200161029d565b3480156102da575f80fd5b506102e8652d79883d200081565b60405190815260200161029d565b348015610301575f80fd5b50610269610310366004611c42565b61092e565b348015610320575f80fd5b5061028961032f366004611c64565b610a62565b34801561033f575f80fd5b506102e861034e366004611c7b565b610a8a565b34801561035e575f80fd5b50610269610aa0565b348015610372575f80fd5b50610269610381366004611c42565b610b03565b348015610391575f80fd5b506102e860045481565b3480156103a6575f80fd5b506102696103b5366004611c42565b610d05565b3480156103c5575f80fd5b506102696103d4366004611cbc565b610ecf565b3480156103e4575f80fd5b506102e86103f3366004611c64565b5f9081526008602052604090205490565b34801561040f575f80fd5b506001546102bf90600160a01b900460ff1681565b34801561042f575f80fd5b506102bf61043e366004611c64565b5f9081526007602052604090205460ff1690565b34801561045d575f80fd5b506102e8600381565b348015610471575f80fd5b50610269610480366004611cfa565b610fd8565b348015610490575f80fd5b506102bf61049f366004611c64565b60076020525f908152604090205460ff1681565b3480156104be575f80fd5b506003546102e8565b3480156104d2575f80fd5b506102e8606481565b3480156104e6575f80fd5b506102696111b5565b3480156104fa575f80fd5b50610269610509366004611c64565b61121e565b348015610519575f80fd5b506102e860065481565b34801561052e575f80fd5b5061026961053d366004611c42565b611358565b34801561054d575f80fd5b506102e86509184e72a00081565b348015610566575f80fd5b506102e86305f5e10081565b34801561057d575f80fd5b50600154610289906001600160a01b031681565b34801561059c575f80fd5b506102696113f9565b3480156105b0575f80fd5b506004546102e8565b3480156105c4575f80fd5b506105cd61147c565b60405161029d9190611d22565b3480156105e5575f80fd5b506102e86105f4366004611c64565b60096020525f908152604090205481565b348015610610575f80fd5b506102bf61061f366004611c42565b60026020525f908152604090205460ff1681565b34801561063e575f80fd5b506102897f000000000000000000000000000000000000000000000000000000000000000081565b348015610671575f80fd5b506102e8610680366004611c64565b60086020525f908152604090205481565b34801561069c575f80fd5b506102696106ab366004611d6e565b6114dc565b600154600160a01b900460ff16156106db57604051633e781e2160e11b815260040160405180910390fd5b6106e36115ec565b60055460ff166107065760405163aff8365b60e01b815260040160405180910390fd5b6001600160a01b03851661072d57604051634e46966960e11b815260040160405180910390fd5b6305f5e1008410156107525760405163617ab12d60e11b815260040160405180910390fd5b6509184e72a00084111561077957604051630625040160e01b815260040160405180910390fd5b5f8381526007602052604090205460ff16156107a757604051623f613760e71b815260040160405180910390fd5b5f6107b56201518042611db2565b5f81815260086020526040902054909150652d79883d2000906107d9908790611dc5565b11156107f857604051630652f4c560e21b815260040160405180910390fd5b5f61080588888888611607565b9050610812818585611695565b5f858152600760209081526040808320805460ff19166001179055848352600890915290819020805488019055516340c10f1960e01b81526001600160a01b038881166004830152602482018890527f000000000000000000000000000000000000000000000000000000000000000016906340c10f19906044015f604051808303815f87803b1580156108a4575f80fd5b505af11580156108b6573d5f803e3d5ffd5b5050505084876001600160a01b0316896bffffffffffffffffffffffff19167fcde7ea0aa1201ccea082139fe78a30f47ea44c652fe78ac686f1b5177923ee518960405161090691815260200190565b60405180910390a4505061092660015f80516020611e7583398151915255565b505050505050565b5f546001600160a01b0316331461095857604051633b8d9d7560e21b815260040160405180910390fd5b6109606115ec565b6001600160a01b03811661098757604051634e46966960e11b815260040160405180910390fd5b475f8190036109965750610a49565b5f826001600160a01b0316826040515f6040518083038185875af1925050503d805f81146109df576040519150601f19603f3d011682016040523d82523d5f602084013e6109e4565b606091505b5050905080610a0657604051634e46966960e11b815260040160405180910390fd5b6040518281526001600160a01b038416905f907f9495d03190a79a43e534c9e328ff322f6283261383f5f19c809564f6ad5a57b39060200160405180910390a350505b610a5f60015f80516020611e7583398151915255565b50565b60038181548110610a71575f80fd5b5f918252602090912001546001600160a01b0316905081565b5f610a9785858585611607565b95945050505050565b5f546001600160a01b03163314610aca57604051633b8d9d7560e21b815260040160405180910390fd5b6001805460ff60a01b1916905560405133907fa668d29cf81d3acc05e4a35a5bf898bb2c919fc7a4366e536bbd43522cb670f0905f90a2565b5f546001600160a01b03163314610b2d57604051633b8d9d7560e21b815260040160405180910390fd5b600154600160a01b900460ff1615610b5857604051633e781e2160e11b815260040160405180910390fd5b6001600160a01b0381165f9081526002602052604090205460ff16610b905760405163aff8365b60e01b815260040160405180910390fd5b6003805411610bb2576040516342b36dcf60e01b815260040160405180910390fd5b6001600160a01b0381165f908152600260205260408120805460ff191690555b600354811015610cc657816001600160a01b031660038281548110610bf957610bf9611dde565b5f918252602090912001546001600160a01b031603610cbe5760038054610c2290600190611df2565b81548110610c3257610c32611dde565b5f91825260209091200154600380546001600160a01b039092169183908110610c5d57610c5d611dde565b905f5260205f20015f6101000a8154816001600160a01b0302191690836001600160a01b031602179055506003805480610c9957610c99611e05565b5f8281526020902081015f1990810180546001600160a01b0319169055019055610cc6565b600101610bd2565b50610ccf61198d565b6040516001600160a01b038216907fe1434e25d6611e0db941968fdc97811c982ac1602e951637d206f5fdda9dd8f1905f90a250565b5f546001600160a01b03163314610d2f57604051633b8d9d7560e21b815260040160405180910390fd5b600154600160a01b900460ff1615610d5a57604051633e781e2160e11b815260040160405180910390fd5b6001600160a01b038116610d8157604051634e46966960e11b815260040160405180910390fd5b6001600160a01b0381165f9081526002602052604090205460ff1615610dba5760405163aff8365b60e01b815260040160405180910390fd5b600354606411610ddd5760405163aff8365b60e01b815260040160405180910390fd5b6001600160a01b0381165f818152600260205260408120805460ff191660019081179091556003805491820181559091527fc2575a0e9e593c00f959f8c92f12db2869c3395a3b0502d05e2516446f71f85b0180546001600160a01b0319169091179055610e4961198d565b60055460ff16158015610e5e57506003805410155b15610e99576005805460ff191660011790556040517f55bd6acdc54f02f96ce09da5a1e1e7c9e14f17b9a77795793fde9a80e3c9fc39905f90a15b6040516001600160a01b038216907fe366c1c0452ed8eec96861e9e54141ebff23c9ec89fe27b996b45f5ec3884987905f90a250565b5f546001600160a01b03163314610ef957604051633b8d9d7560e21b815260040160405180910390fd5b7f00000000000000000000000000000000000000000000000000000000000000006001600160a01b0316836001600160a01b031603610f4b57604051634e46966960e11b815260040160405180910390fd5b6001600160a01b038216610f7257604051634e46966960e11b815260040160405180910390fd5b610f866001600160a01b03841683836119fc565b816001600160a01b0316836001600160a01b03167f9495d03190a79a43e534c9e328ff322f6283261383f5f19c809564f6ad5a57b383604051610fcb91815260200190565b60405180910390a3505050565b600154600160a01b900460ff161561100357604051633e781e2160e11b815260040160405180910390fd5b61100b6115ec565b60055460ff1661102e5760405163aff8365b60e01b815260040160405180910390fd5b6001600160601b0319821661105657604051634e46966960e11b815260040160405180910390fd5b6305f5e10081101561107b5760405163617ab12d60e11b815260040160405180910390fd5b6509184e72a0008111156110a257604051630625040160e01b815260040160405180910390fd5b5f6110b06201518042611db2565b5f81815260096020526040902054909150652d79883d2000906110d4908490611dc5565b11156110f357604051630652f4c560e21b815260040160405180910390fd5b6111286001600160a01b037f000000000000000000000000000000000000000000000000000000000000000016333085611a36565b5f81815260096020526040812080548401905560068054908261114a83611e19565b909155506040805185815246602082015291925082916001600160601b031987169133917f55d5bc780ab6a6a62aee087e63a2a3a9a1d1b081e012acf89c3e772c7e608552910160405180910390a450506111b160015f80516020611e7583398151915255565b5050565b5f546001600160a01b031633146111df57604051633b8d9d7560e21b815260040160405180910390fd5b6001805460ff60a01b1916600160a01b17905560405133907f80c6ef1d6f41faaf47f10c6da1ae6d45d4773d53d4c79bc1ef2737b10dbed579905f90a2565b5f546001600160a01b0316331461124857604051633b8d9d7560e21b815260040160405180910390fd5b600154600160a01b900460ff161561127357604051633e781e2160e11b815260040160405180910390fd5b801580611281575060035481115b1561129f5760405163aff8365b60e01b815260040160405180910390fd5b600380541061131c57600380545f91906112ba906002611e31565b6112c49190611db2565b6112cf906001611dc5565b90508082101561131a5760405162461bcd60e51b815260206004820152601160248201527042656c6f7720424654206d696e696d756d60781b60448201526064015b60405180910390fd5b505b60048190556040518181527fadfa8ecb21b6962ebcd0adbd9ab985b7b4c5b5eb3b0dead683171565c7bfe171906020015b60405180910390a150565b5f546001600160a01b0316331461138257604051633b8d9d7560e21b815260040160405180910390fd5b6001600160a01b0381166113a957604051634e46966960e11b815260040160405180910390fd5b600180546001600160a01b0319166001600160a01b038381169182179092555f8054604051929316917f6353ec38ac394f8be94bfafcdd3580d356470599059eaeebedc3207e1cc03dec9190a350565b6001546001600160a01b03163314611423576040516267539f60e91b815260040160405180910390fd5b5f8054600180546001600160a01b038082166001600160a01b031980861682178755909216909255604051919092169283917fa467497b5fbb967cde6ac47191a02b9557c8df60e4be913d9e393918a58c231b9190a350565b606060038054806020026020016040519081016040528092919081815260200182805480156114d257602002820191905f5260205f20905b81546001600160a01b031681526001909101906020018083116114b4575b5050505050905090565b5f546001600160a01b0316331461150657604051633b8d9d7560e21b815260040160405180910390fd5b61150e6115ec565b600154600160a01b900460ff1661153857604051636cd6020160e01b815260040160405180910390fd5b6001600160a01b03821661155f57604051634e46966960e11b815260040160405180910390fd5b6115936001600160a01b037f00000000000000000000000000000000000000000000000000000000000000001683836119fc565b816001600160a01b03167fdbb3182831b2daa5b5d548d67b32de19e70e6fdbc7c430248efc82a717cc7eeb826040516115ce91815260200190565b60405180910390a26111b160015f80516020611e7583398151915255565b6115f4611a72565b60025f80516020611e7583398151915255565b6040805160e060208201819052600f6101008301526e18db185a5b55da5d1a191c985dd85b608a1b61012083015246928201929092523060608201526001600160601b0319861660808201526001600160a01b03851660a082015260c081018490529081018290525f9061014001604051602081830303815290604052805190602001209050949350505050565b6116a0604182611e48565b156116be57604051638baa579f60e01b815260040160405180910390fd5b5f6116ca604183611db2565b90506004548110156116ef57604051633724e34360e11b815260040160405180910390fd5b60035481111561171257604051638baa579f60e01b815260040160405180910390fd5b6040517f19457468657265756d205369676e6564204d6573736167653a0a3332000000006020820152603c81018590525f90605c016040516020818303038152906040528051906020012090505f805f5b84811015611960575f80808061177a856041611e31565b8b81018035955060208101359450604001355f1a925090507f7fffffffffffffffffffffffffffffff5d576e7357a4501ddfe92f46681b20a08311156117d35760405163f0ad0d0960e01b815260040160405180910390fd5b5f8260ff16601b14806117e957508260ff16601c145b1561185057604080515f8152602081018083528b905260ff851691810191909152606081018690526080810185905260019060a0015b6020604051602081039080840390855afa15801561183f573d5f803e3d5ffd5b5050506020604051035190506118c0565b60ff8316158061186357508260ff166001145b156118a75760018961187685601b611e5b565b604080515f8152602081018083529390935260ff90911690820152606081018790526080810186905260a00161181f565b604051638baa579f60e01b815260040160405180910390fd5b6001600160a01b0381166118e757604051638baa579f60e01b815260040160405180910390fd5b6001600160a01b0381165f9081526002602052604090205460ff16611910575050505050611958565b876001600160a01b0316816001600160a01b03161161194257604051634f68cf7160e11b815260040160405180910390fd5b9650868661194f81611e19565b97505050505050505b600101611763565b5060045481101561198457604051633724e34360e11b815260040160405180910390fd5b50505050505050565b60038054908110156119a35760048190556119c9565b60036119b0826002611e31565b6119ba9190611db2565b6119c5906001611dc5565b6004555b7fadfa8ecb21b6962ebcd0adbd9ab985b7b4c5b5eb3b0dead683171565c7bfe17160045460405161134d91815260200190565b611a098383836001611aa3565b611a3157604051635274afe760e01b81526001600160a01b0384166004820152602401611311565b505050565b611a44848484846001611b05565b611a6c57604051635274afe760e01b81526001600160a01b0385166004820152602401611311565b50505050565b5f80516020611e7583398151915254600203611aa157604051633ee5aeb560e01b815260040160405180910390fd5b565b60405163a9059cbb60e01b5f8181526001600160a01b038616600452602485905291602083604481808b5af1925060015f51148316611af9578383151615611aed573d5f823e3d81fd5b5f873b113d1516831692505b60405250949350505050565b6040516323b872dd60e01b5f8181526001600160a01b038781166004528616602452604485905291602083606481808c5af1925060015f51148316611b61578383151615611b55573d5f823e3d81fd5b5f883b113d1516831692505b604052505f60605295945050505050565b80356001600160601b031981168114611b89575f80fd5b919050565b6001600160a01b0381168114610a5f575f80fd5b5f805f805f8060a08789031215611bb7575f80fd5b611bc087611b72565b95506020870135611bd081611b8e565b94506040870135935060608701359250608087013567ffffffffffffffff80821115611bfa575f80fd5b818901915089601f830112611c0d575f80fd5b813581811115611c1b575f80fd5b8a6020828501011115611c2c575f80fd5b6020830194508093505050509295509295509295565b5f60208284031215611c52575f80fd5b8135611c5d81611b8e565b9392505050565b5f60208284031215611c74575f80fd5b5035919050565b5f805f8060808587031215611c8e575f80fd5b611c9785611b72565b93506020850135611ca781611b8e565b93969395505050506040820135916060013590565b5f805f60608486031215611cce575f80fd5b8335611cd981611b8e565b92506020840135611ce981611b8e565b929592945050506040919091013590565b5f8060408385031215611d0b575f80fd5b611d1483611b72565b946020939093013593505050565b602080825282518282018190525f9190848201906040850190845b81811015611d625783516001600160a01b031683529284019291840191600101611d3d565b50909695505050505050565b5f8060408385031215611d7f575f80fd5b8235611d1481611b8e565b634e487b7160e01b5f52601260045260245ffd5b634e487b7160e01b5f52601160045260245ffd5b5f82611dc057611dc0611d8a565b500490565b80820180821115611dd857611dd8611d9e565b92915050565b634e487b7160e01b5f52603260045260245ffd5b81810381811115611dd857611dd8611d9e565b634e487b7160e01b5f52603160045260245ffd5b5f60018201611e2a57611e2a611d9e565b5060010190565b8082028115828204841417611dd857611dd8611d9e565b5f82611e5657611e56611d8a565b500690565b60ff8181168382160190811115611dd857611dd8611d9e56fe9b779b17422d0df92223018b32b4d1fa46e071723d6817e2486d003becc55f00a2646970667358221220f45194ebf99b3092ea1cc4baa14f09fa6d2c6aa5bdf3e2046e7f0b27cdc5386464736f6c63430008180033","linkReferences":{}},"methodIdentifiers":{"DAILY_DEPOSIT_LIMIT()":"73412857","DAILY_WITHDRAWAL_LIMIT()":"1da0bcd8","MAX_DEPOSIT()":"dd5967c3","MAX_VALIDATORS()":"714897df","MIN_DEPOSIT()":"e1e158a5","MIN_VALIDATORS()":"5ed1f963","acceptGovernor()":"e58bb639","addValidator(address)":"4d238c8e","bridgeEnabled()":"0cd3ad01","claimWithdrawal(bytes20,address,uint256,uint256,bytes)":"080cc56a","dailyDepositVolume(uint256)":"fa31a80d","dailyWithdrawalVolume(uint256)":"fd37349f","deposit(bytes20,uint256)":"6503126e","emergencyWithdrawERC20(address,address,uint256)":"55b8fb81","emergencyWithdrawETH(address)":"214ff459","getAllValidators()":"f3513a37","getDailyWithdrawalVolume(uint256)":"5a0c19ed","getMessageHash(bytes20,address,uint256,uint256)":"37f51ee2","getThreshold()":"e75235b8","getValidatorCount()":"7071688a","governor()":"0c340a24","isNonceUsed(uint256)":"5d00bb12","isValidator(address)":"facd743b","migrateToNewBridge(address,uint256)":"fd8df68f","nonce()":"affed0e0","pause()":"8456cb59","paused()":"5c975abb","pendingGovernor()":"e3056a34","removeValidator(address)":"40a141ff","setGovernor(address)":"c42cf535","setThreshold(uint256)":"960bfe04","threshold()":"42cde4e8","token()":"fc0c546a","unpause()":"3f4ba83a","usedNonces(uint256)":"6717e41c","validators(uint256)":"35aa2e44"},"id":49}