{"abi":[{"type":"constructor","inputs":[{"name":"_token","type":"address","internalType":"address"},{"name":"_governor","type":"address","internalType":"address"}],"stateMutability":"nonpayable"},{"type":"receive","stateMutability":"payable"},{"type":"function","name":"DAILY_LIMIT","inputs":[],"outputs":[{"name":"","type":"uint256","internalType":"uint256"}],"stateMutability":"view"},{"type":"function","name":"MAX_AMOUNT","inputs":[],"outputs":[{"name":"","type":"uint256","internalType":"uint256"}],"stateMutability":"view"},{"type":"function","name":"MAX_VALIDATORS","inputs":[],"outputs":[{"name":"","type":"uint256","internalType":"uint256"}],"stateMutability":"view"},{"type":"function","name":"MIN_AMOUNT","inputs":[],"outputs":[{"name":"","type":"uint256","internalType":"uint256"}],"stateMutability":"view"},{"type":"function","name":"MIN_VALIDATORS","inputs":[],"outputs":[{"name":"","type":"uint256","internalType":"uint256"}],"stateMutability":"view"},{"type":"function","name":"acceptGovernor","inputs":[],"outputs":[],"stateMutability":"nonpayable"},{"type":"function","name":"addValidator","inputs":[{"name":"validator","type":"address","internalType":"address"}],"outputs":[],"stateMutability":"nonpayable"},{"type":"function","name":"bridgeEnabled","inputs":[],"outputs":[{"name":"","type":"bool","internalType":"bool"}],"stateMutability":"view"},{"type":"function","name":"claimWithdrawal","inputs":[{"name":"nativeSender","type":"bytes20","internalType":"bytes20"},{"name":"recipient","type":"address","internalType":"address"},{"name":"amount","type":"uint256","internalType":"uint256"},{"name":"withdrawalNonce","type":"uint256","internalType":"uint256"},{"name":"signatures","type":"bytes","internalType":"bytes"}],"outputs":[],"stateMutability":"nonpayable"},{"type":"function","name":"dailyDepositVolume","inputs":[{"name":"","type":"uint256","internalType":"uint256"}],"outputs":[{"name":"","type":"uint256","internalType":"uint256"}],"stateMutability":"view"},{"type":"function","name":"dailyWithdrawalVolume","inputs":[{"name":"","type":"uint256","internalType":"uint256"}],"outputs":[{"name":"","type":"uint256","internalType":"uint256"}],"stateMutability":"view"},{"type":"function","name":"deposit","inputs":[{"name":"nativeRecipient","type":"bytes20","internalType":"bytes20"},{"name":"amount","type":"uint256","internalType":"uint256"}],"outputs":[],"stateMutability":"nonpayable"},{"type":"function","name":"depositNonceCounter","inputs":[],"outputs":[{"name":"","type":"uint256","internalType":"uint256"}],"stateMutability":"view"},{"type":"function","name":"emergencyWithdrawERC20","inputs":[{"name":"tokenAddress","type":"address","internalType":"address"},{"name":"to","type":"address","internalType":"address"},{"name":"amount","type":"uint256","internalType":"uint256"}],"outputs":[],"stateMutability":"nonpayable"},{"type":"function","name":"emergencyWithdrawETH","inputs":[{"name":"to","type":"address","internalType":"address payable"}],"outputs":[],"stateMutability":"nonpayable"},{"type":"function","name":"getAllValidators","inputs":[],"outputs":[{"name":"","type":"address[]","internalType":"address[]"}],"stateMutability":"view"},{"type":"function","name":"getDailyDepositRemaining","inputs":[],"outputs":[{"name":"","type":"uint256","internalType":"uint256"}],"stateMutability":"view"},{"type":"function","name":"getDailyDepositVolume","inputs":[],"outputs":[{"name":"","type":"uint256","internalType":"uint256"}],"stateMutability":"view"},{"type":"function","name":"getDailyWithdrawalRemaining","inputs":[],"outputs":[{"name":"","type":"uint256","internalType":"uint256"}],"stateMutability":"view"},{"type":"function","name":"getDailyWithdrawalVolume","inputs":[],"outputs":[{"name":"","type":"uint256","internalType":"uint256"}],"stateMutability":"view"},{"type":"function","name":"getThreshold","inputs":[],"outputs":[{"name":"","type":"uint256","internalType":"uint256"}],"stateMutability":"view"},{"type":"function","name":"getValidatorCount","inputs":[],"outputs":[{"name":"","type":"uint256","internalType":"uint256"}],"stateMutability":"view"},{"type":"function","name":"getWithdrawalHash","inputs":[{"name":"nativeSender","type":"bytes20","internalType":"bytes20"},{"name":"recipient","type":"address","internalType":"address"},{"name":"amount","type":"uint256","internalType":"uint256"},{"name":"withdrawalNonce","type":"uint256","internalType":"uint256"}],"outputs":[{"name":"","type":"bytes32","internalType":"bytes32"}],"stateMutability":"view"},{"type":"function","name":"governor","inputs":[],"outputs":[{"name":"","type":"address","internalType":"address"}],"stateMutability":"view"},{"type":"function","name":"isValidator","inputs":[{"name":"","type":"address","internalType":"address"}],"outputs":[{"name":"","type":"bool","internalType":"bool"}],"stateMutability":"view"},{"type":"function","name":"isWithdrawalNonceUsed","inputs":[{"name":"_nonce","type":"uint256","internalType":"uint256"}],"outputs":[{"name":"","type":"bool","internalType":"bool"}],"stateMutability":"view"},{"type":"function","name":"migrateToNewBridge","inputs":[{"name":"newBridge","type":"address","internalType":"address"},{"name":"amount","type":"uint256","internalType":"uint256"}],"outputs":[],"stateMutability":"nonpayable"},{"type":"function","name":"pause","inputs":[],"outputs":[],"stateMutability":"nonpayable"},{"type":"function","name":"paused","inputs":[],"outputs":[{"name":"","type":"bool","internalType":"bool"}],"stateMutability":"view"},{"type":"function","name":"pendingGovernor","inputs":[],"outputs":[{"name":"","type":"address","internalType":"address"}],"stateMutability":"view"},{"type":"function","name":"removeValidator","inputs":[{"name":"validator","type":"address","internalType":"address"}],"outputs":[],"stateMutability":"nonpayable"},{"type":"function","name":"setGovernor","inputs":[{"name":"newGovernor","type":"address","internalType":"address"}],"outputs":[],"stateMutability":"nonpayable"},{"type":"function","name":"setThreshold","inputs":[{"name":"newThreshold","type":"uint256","internalType":"uint256"}],"outputs":[],"stateMutability":"nonpayable"},{"type":"function","name":"threshold","inputs":[],"outputs":[{"name":"","type":"uint256","internalType":"uint256"}],"stateMutability":"view"},{"type":"function","name":"token","inputs":[],"outputs":[{"name":"","type":"address","internalType":"contract UDAGToken"}],"stateMutability":"view"},{"type":"function","name":"unpause","inputs":[],"outputs":[],"stateMutability":"nonpayable"},{"type":"function","name":"usedWithdrawalNonces","inputs":[{"name":"","type":"uint256","internalType":"uint256"}],"outputs":[{"name":"","type":"bool","internalType":"bool"}],"stateMutability":"view"},{"type":"function","name":"validators","inputs":[{"name":"","type":"uint256","internalType":"uint256"}],"outputs":[{"name":"","type":"address","internalType":"address"}],"stateMutability":"view"},{"type":"event","name":"BridgeEnabled","inputs":[],"anonymous":false},{"type":"event","name":"BridgeMigration","inputs":[{"name":"newBridge","type":"address","indexed":true,"internalType":"address"},{"name":"amount","type":"uint256","indexed":false,"internalType":"uint256"}],"anonymous":false},{"type":"event","name":"BridgePaused","inputs":[{"name":"pausedBy","type":"address","indexed":true,"internalType":"address"}],"anonymous":false},{"type":"event","name":"BridgeUnpaused","inputs":[{"name":"unpausedBy","type":"address","indexed":true,"internalType":"address"}],"anonymous":false},{"type":"event","name":"DepositMade","inputs":[{"name":"sender","type":"address","indexed":true,"internalType":"address"},{"name":"nativeRecipient","type":"bytes20","indexed":true,"internalType":"bytes20"},{"name":"amount","type":"uint256","indexed":false,"internalType":"uint256"},{"name":"depositNonce","type":"uint256","indexed":true,"internalType":"uint256"},{"name":"sourceChainId","type":"uint256","indexed":false,"internalType":"uint256"}],"anonymous":false},{"type":"event","name":"ETHReceived","inputs":[{"name":"sender","type":"address","indexed":true,"internalType":"address"},{"name":"amount","type":"uint256","indexed":false,"internalType":"uint256"}],"anonymous":false},{"type":"event","name":"EmergencyWithdrawal","inputs":[{"name":"tokenAddr","type":"address","indexed":true,"internalType":"address"},{"name":"to","type":"address","indexed":true,"internalType":"address"},{"name":"amount","type":"uint256","indexed":false,"internalType":"uint256"}],"anonymous":false},{"type":"event","name":"GovernorAccepted","inputs":[{"name":"oldGovernor","type":"address","indexed":true,"internalType":"address"},{"name":"newGovernor","type":"address","indexed":true,"internalType":"address"}],"anonymous":false},{"type":"event","name":"PendingGovernorSet","inputs":[{"name":"currentGovernor","type":"address","indexed":true,"internalType":"address"},{"name":"pendingGovernor","type":"address","indexed":true,"internalType":"address"}],"anonymous":false},{"type":"event","name":"ThresholdUpdated","inputs":[{"name":"newThreshold","type":"uint256","indexed":false,"internalType":"uint256"}],"anonymous":false},{"type":"event","name":"ValidatorAdded","inputs":[{"name":"validator","type":"address","indexed":true,"internalType":"address"}],"anonymous":false},{"type":"event","name":"ValidatorRemoved","inputs":[{"name":"validator","type":"address","indexed":true,"internalType":"address"}],"anonymous":false},{"type":"event","name":"WithdrawalClaimed","inputs":[{"name":"nativeSender","type":"bytes20","indexed":true,"internalType":"bytes20"},{"name":"recipient","type":"address","indexed":true,"internalType":"address"},{"name":"amount","type":"uint256","indexed":false,"internalType":"uint256"},{"name":"withdrawalNonce","type":"uint256","indexed":true,"internalType":"uint256"}],"anonymous":false},{"type":"error","name":"AmountAboveMaximum","inputs":[{"name":"amount","type":"uint256","internalType":"uint256"},{"name":"maximum","type":"uint256","internalType":"uint256"}]},{"type":"error","name":"AmountBelowMinimum","inputs":[{"name":"amount","type":"uint256","internalType":"uint256"},{"name":"minimum","type":"uint256","internalType":"uint256"}]},{"type":"error","name":"BelowBFTMinimum","inputs":[{"name":"proposed","type":"uint256","internalType":"uint256"},{"name":"bftMinimum","type":"uint256","internalType":"uint256"}]},{"type":"error","name":"BelowMinValidators","inputs":[{"name":"current","type":"uint256","internalType":"uint256"},{"name":"minimum","type":"uint256","internalType":"uint256"}]},{"type":"error","name":"BridgeIsPaused","inputs":[]},{"type":"error","name":"BridgeNotEnabled","inputs":[]},{"type":"error","name":"BridgeNotPaused","inputs":[]},{"type":"error","name":"CannotDrainManagedToken","inputs":[]},{"type":"error","name":"DailyLimitExceeded","inputs":[{"name":"requested","type":"uint256","internalType":"uint256"},{"name":"remaining","type":"uint256","internalType":"uint256"}]},{"type":"error","name":"ETHTransferFailed","inputs":[]},{"type":"error","name":"InvalidSignatureLength","inputs":[{"name":"length","type":"uint256","internalType":"uint256"}]},{"type":"error","name":"InvalidVValue","inputs":[{"name":"index","type":"uint256","internalType":"uint256"},{"name":"v","type":"uint8","internalType":"uint8"}]},{"type":"error","name":"MalleableSignature","inputs":[{"name":"index","type":"uint256","internalType":"uint256"}]},{"type":"error","name":"NonceAlreadyUsed","inputs":[{"name":"nonce","type":"uint256","internalType":"uint256"}]},{"type":"error","name":"NotGovernor","inputs":[]},{"type":"error","name":"NotPendingGovernor","inputs":[]},{"type":"error","name":"RecoveredZeroAddress","inputs":[{"name":"index","type":"uint256","internalType":"uint256"}]},{"type":"error","name":"ReentrancyGuardReentrantCall","inputs":[]},{"type":"error","name":"SafeERC20FailedOperation","inputs":[{"name":"token","type":"address","internalType":"address"}]},{"type":"error","name":"SignerNotValidator","inputs":[{"name":"index","type":"uint256","internalType":"uint256"},{"name":"signer","type":"address","internalType":"address"}]},{"type":"error","name":"SignersNotSorted","inputs":[{"name":"index","type":"uint256","internalType":"uint256"},{"name":"current","type":"address","internalType":"address"},{"name":"previous","type":"address","internalType":"address"}]},{"type":"error","name":"TooFewSignatures","inputs":[{"name":"provided","type":"uint256","internalType":"uint256"},{"name":"required","type":"uint256","internalType":"uint256"}]},{"type":"error","name":"TooManySignatures","inputs":[{"name":"provided","type":"uint256","internalType":"uint256"},{"name":"validatorCount","type":"uint256","internalType":"uint256"}]},{"type":"error","name":"ValidatorAlreadyRegistered","inputs":[{"name":"validator","type":"address","internalType":"address"}]},{"type":"error","name":"ValidatorNotRegistered","inputs":[{"name":"validator","type":"address","internalType":"address"}]},{"type":"error","name":"ValidatorSetFull","inputs":[]},{"type":"error","name":"ZeroAddress","inputs":[{"name":"param","type":"string","internalType":"string"}]}],"bytecode":{"object":"0x60a060405234801562000010575f80fd5b506040516200223b3803806200223b833981016040819052620000339162000124565b60017f9b779b17422d0df92223018b32b4d1fa46e071723d6817e2486d003becc55f00556001600160a01b0382166200009c5760405163eac0d38960e01b81526020600482015260056024820152643a37b5b2b760d91b60448201526064015b60405180910390fd5b6001600160a01b038116620000e05760405163eac0d38960e01b815260206004820152600860248201526733b7bb32b93737b960c11b604482015260640162000093565b6001600160a01b039182166080525f80546001600160a01b031916919092161790556200015a565b80516001600160a01b03811681146200011f575f80fd5b919050565b5f806040838503121562000136575f80fd5b620001418362000108565b9150620001516020840162000108565b90509250929050565b6080516120ac6200018f5f395f818161067f015281816108bb01528181610ffe0152818161120301526116b101526120ac5ff3fe608060405260043610610220575f3560e01c80637071688a1161011e578063ddbcb5fa116100a8578063fa31a80d1161006d578063fa31a80d14610615578063facd743b14610640578063fc0c546a1461066e578063fd37349f146106a1578063fd8df68f146106cc575f80fd5b8063ddbcb5fa14610596578063e3056a34146105ad578063e58bb639146105cc578063e75235b8146105e0578063f3513a37146105f4575f80fd5b806395460316116100ee5780639546031614610517578063960bfe041461052b578063c42cf5351461054a578063d40dc87014610569578063d934010214610582575f80fd5b80637071688a146104c657806370dcfdbe146104da578063714897df146104ef5780638456cb5914610503575f80fd5b80633eee50c7116101aa57806352564f521161016f57806352564f521461042657806355b8fb81146104545780635c975abb146104735780635ed1f963146104935780636503126e146104a7575f80fd5b80633eee50c7146103915780633f4ba83a146103bf57806340a141ff146103d357806342cde4e8146103f25780634d238c8e14610407575f80fd5b806318180be0116101f057806318180be01461030757806318fae1e91461031b578063214ff4591461033a578063248ec3261461035957806335aa2e4414610372575f80fd5b806305a847c014610260578063080cc56a146102875780630c340a24146102a85780630cd3ad01146102de575f80fd5b3661025c5760405134815233907fbfe611b001dfcd411432f7bf0d79b82b4b2ee81511edac123a3403c357fb972a9060200160405180910390a2005b5f80fd5b34801561026b575f80fd5b506102746106eb565b6040519081526020015b60405180910390f35b348015610292575f80fd5b506102a66102a1366004611d84565b61070f565b005b3480156102b3575f80fd5b505f546102c6906001600160a01b031681565b6040516001600160a01b03909116815260200161027e565b3480156102e9575f80fd5b506005546102f79060ff1681565b604051901515815260200161027e565b348015610312575f80fd5b50610274610987565b348015610326575f80fd5b50610274610335366004611e24565b6109d4565b348015610345575f80fd5b506102a6610354366004611e65565b6109ea565b348015610364575f80fd5b50610274652d79883d200081565b34801561037d575f80fd5b506102c661038c366004611e87565b610b33565b34801561039c575f80fd5b506102f76103ab366004611e87565b60076020525f908152604090205460ff1681565b3480156103ca575f80fd5b506102a6610b5b565b3480156103de575f80fd5b506102a66103ed366004611e65565b610bbe565b3480156103fd575f80fd5b5061027460045481565b348015610412575f80fd5b506102a6610421366004611e65565b610dd9565b348015610431575f80fd5b506102f7610440366004611e87565b5f9081526007602052604090205460ff1690565b34801561045f575f80fd5b506102a661046e366004611e9e565b610fca565b34801561047e575f80fd5b506001546102f790600160a01b900460ff1681565b34801561049e575f80fd5b50610274600381565b3480156104b2575f80fd5b506102a66104c1366004611edc565b611106565b3480156104d1575f80fd5b50600354610274565b3480156104e5575f80fd5b5061027460065481565b3480156104fa575f80fd5b50610274606481565b34801561050e575f80fd5b506102a66112b8565b348015610522575f80fd5b50610274611321565b348015610536575f80fd5b506102a6610545366004611e87565b611332565b348015610555575f80fd5b506102a6610564366004611e65565b611454565b348015610574575f80fd5b506102746509184e72a00081565b34801561058d575f80fd5b50610274611513565b3480156105a1575f80fd5b506102746305f5e10081565b3480156105b8575f80fd5b506001546102c6906001600160a01b031681565b3480156105d7575f80fd5b506102a6611525565b3480156105eb575f80fd5b50600454610274565b3480156105ff575f80fd5b506106086115a5565b60405161027e9190611f04565b348015610620575f80fd5b5061027461062f366004611e87565b60096020525f908152604090205481565b34801561064b575f80fd5b506102f761065a366004611e65565b60026020525f908152604090205460ff1681565b348015610679575f80fd5b506102c67f000000000000000000000000000000000000000000000000000000000000000081565b3480156106ac575f80fd5b506102746106bb366004611e87565b60086020525f908152604090205481565b3480156106d7575f80fd5b506102a66106e6366004611f50565b611605565b5f6009816106fc6201518042611f94565b81526020019081526020015f2054905090565b600154600160a01b900460ff161561073a57604051633e781e2160e11b815260040160405180910390fd5b610742611731565b60055460ff1661076557604051631517d53960e11b815260040160405180910390fd5b6001600160a01b0385166107ad5760405163eac0d38960e01b81526020600482015260096024820152681c9958da5c1a595b9d60ba1b60448201526064015b60405180910390fd5b5f8381526007602052604090205460ff16156107df57604051632472ad4160e21b8152600481018490526024016107a4565b6107e88461174c565b5f6107f66201518042611f94565b5f81815260086020526040902054909150652d79883d20006108188783611fa7565b1115610851578561082f82652d79883d2000611fc0565b6040516377b326b560e11b8152600481019290925260248201526044016107a4565b5f61085e898989896117b4565b905061086b818686611850565b5f868152600760209081526040808320805460ff191660011790558583526008909152908190208389019055516340c10f1960e01b81526001600160a01b038981166004830152602482018990527f000000000000000000000000000000000000000000000000000000000000000016906340c10f19906044015f604051808303815f87803b1580156108fc575f80fd5b505af115801561090e573d5f803e3d5ffd5b5050505085886001600160a01b03168a6bffffffffffffffffffffffff19167fcde7ea0aa1201ccea082139fe78a30f47ea44c652fe78ac686f1b5177923ee518a60405161095e91815260200190565b60405180910390a450505061097f60015f8051602061205783398151915255565b505050505050565b5f806009816109996201518042611f94565b81526020019081526020015f20549050652d79883d20008110156109cc576109c781652d79883d2000611fc0565b6109ce565b5f5b91505090565b5f6109e1858585856117b4565b95945050505050565b5f546001600160a01b03163314610a1457604051633b8d9d7560e21b815260040160405180910390fd5b610a1c611731565b6001600160a01b038116610a585760405163eac0d38960e01b8152602060048201526002602482015261746f60f01b60448201526064016107a4565b475f819003610a675750610b1a565b5f826001600160a01b0316826040515f6040518083038185875af1925050503d805f8114610ab0576040519150601f19603f3d011682016040523d82523d5f602084013e610ab5565b606091505b5050905080610ad75760405163b12d13eb60e01b815260040160405180910390fd5b6040518281526001600160a01b038416905f907f9495d03190a79a43e534c9e328ff322f6283261383f5f19c809564f6ad5a57b39060200160405180910390a350505b610b3060015f8051602061205783398151915255565b50565b60038181548110610b42575f80fd5b5f918252602090912001546001600160a01b0316905081565b5f546001600160a01b03163314610b8557604051633b8d9d7560e21b815260040160405180910390fd5b6001805460ff60a01b1916905560405133907fa668d29cf81d3acc05e4a35a5bf898bb2c919fc7a4366e536bbd43522cb670f0905f90a2565b5f546001600160a01b03163314610be857604051633b8d9d7560e21b815260040160405180910390fd5b600154600160a01b900460ff1615610c1357604051633e781e2160e11b815260040160405180910390fd5b6001600160a01b0381165f9081526002602052604090205460ff16610c5657604051632024e3e360e11b81526001600160a01b03821660048201526024016107a4565b6003805411610c86576003805460405163650bc00b60e01b81526107a49290600401918252602082015260400190565b6001600160a01b0381165f908152600260205260408120805460ff19169055600354905b81811015610d9957826001600160a01b031660038281548110610ccf57610ccf611fd3565b5f918252602090912001546001600160a01b031603610d91576003610cf5600184611fc0565b81548110610d0557610d05611fd3565b5f91825260209091200154600380546001600160a01b039092169183908110610d3057610d30611fd3565b905f5260205f20015f6101000a8154816001600160a01b0302191690836001600160a01b031602179055506003805480610d6c57610d6c611fe7565b5f8281526020902081015f1990810180546001600160a01b0319169055019055610d99565b600101610caa565b50610da2611b46565b6040516001600160a01b038316907fe1434e25d6611e0db941968fdc97811c982ac1602e951637d206f5fdda9dd8f1905f90a25050565b5f546001600160a01b03163314610e0357604051633b8d9d7560e21b815260040160405180910390fd5b600154600160a01b900460ff1615610e2e57604051633e781e2160e11b815260040160405180910390fd5b6001600160a01b038116610e715760405163eac0d38960e01b81526020600482015260096024820152683b30b634b230ba37b960b91b60448201526064016107a4565b6001600160a01b0381165f9081526002602052604090205460ff1615610eb55760405163b198271360e01b81526001600160a01b03821660048201526024016107a4565b600354606411610ed857604051630c688eb760e41b815260040160405180910390fd5b6001600160a01b0381165f818152600260205260408120805460ff191660019081179091556003805491820181559091527fc2575a0e9e593c00f959f8c92f12db2869c3395a3b0502d05e2516446f71f85b0180546001600160a01b0319169091179055610f44611b46565b60055460ff16158015610f5957506003805410155b15610f94576005805460ff191660011790556040517f55bd6acdc54f02f96ce09da5a1e1e7c9e14f17b9a77795793fde9a80e3c9fc39905f90a15b6040516001600160a01b038216907fe366c1c0452ed8eec96861e9e54141ebff23c9ec89fe27b996b45f5ec3884987905f90a250565b5f546001600160a01b03163314610ff457604051633b8d9d7560e21b815260040160405180910390fd5b610ffc611731565b7f00000000000000000000000000000000000000000000000000000000000000006001600160a01b0316836001600160a01b03160361104e576040516309e9d5cb60e11b815260040160405180910390fd5b6001600160a01b03821661108a5760405163eac0d38960e01b8152602060048201526002602482015261746f60f01b60448201526064016107a4565b61109e6001600160a01b0384168383611bb5565b816001600160a01b0316836001600160a01b03167f9495d03190a79a43e534c9e328ff322f6283261383f5f19c809564f6ad5a57b3836040516110e391815260200190565b60405180910390a361110160015f8051602061205783398151915255565b505050565b600154600160a01b900460ff161561113157604051633e781e2160e11b815260040160405180910390fd5b611139611731565b60055460ff1661115c57604051631517d53960e11b815260040160405180910390fd5b6001600160601b031982166111a65760405163eac0d38960e01b815260206004820152600f60248201526e1b985d1a5d99549958da5c1a595b9d608a1b60448201526064016107a4565b6111af8161174c565b5f6111bd6201518042611f94565b5f81815260096020526040902054909150652d79883d20006111df8483611fa7565b11156111f6578261082f82652d79883d2000611fc0565b61122b6001600160a01b037f000000000000000000000000000000000000000000000000000000000000000016333086611bea565b5f828152600960205260408120828501905560068054908261124c83611ffb565b909155506040805186815246602082015291925082916001600160601b031988169133917f55d5bc780ab6a6a62aee087e63a2a3a9a1d1b081e012acf89c3e772c7e608552910160405180910390a45050506112b460015f8051602061205783398151915255565b5050565b5f546001600160a01b031633146112e257604051633b8d9d7560e21b815260040160405180910390fd5b6001805460ff60a01b1916600160a01b17905560405133907f80c6ef1d6f41faaf47f10c6da1ae6d45d4773d53d4c79bc1ef2737b10dbed579905f90a2565b5f6008816106fc6201518042611f94565b5f546001600160a01b0316331461135c57604051633b8d9d7560e21b815260040160405180910390fd5b600154600160a01b900460ff161561138757604051633e781e2160e11b815260040160405180910390fd5b60035481158061139657508082115b156113be5760405163650bc00b60e01b815260048101839052600160248201526044016107a4565b60038110611418575f60036113d4836002612013565b6113de9190611f94565b6113e9906001611fa7565b9050808310156114165760405163b9b816fd60e01b815260048101849052602481018290526044016107a4565b505b60048290556040518281527fadfa8ecb21b6962ebcd0adbd9ab985b7b4c5b5eb3b0dead683171565c7bfe1719060200160405180910390a15050565b5f546001600160a01b0316331461147e57604051633b8d9d7560e21b815260040160405180910390fd5b6001600160a01b0381166114c35760405163eac0d38960e01b815260206004820152600b60248201526a3732bba3b7bb32b93737b960a91b60448201526064016107a4565b600180546001600160a01b0319166001600160a01b038381169182179092555f8054604051929316917f6353ec38ac394f8be94bfafcdd3580d356470599059eaeebedc3207e1cc03dec9190a350565b5f806008816109996201518042611f94565b6001546001600160a01b0316331461154f576040516267539f60e91b815260040160405180910390fd5b5f8054336001600160a01b0319808316821784556001805490911690556040516001600160a01b0390921692909183917fa467497b5fbb967cde6ac47191a02b9557c8df60e4be913d9e393918a58c231b91a350565b606060038054806020026020016040519081016040528092919081815260200182805480156115fb57602002820191905f5260205f20905b81546001600160a01b031681526001909101906020018083116115dd575b5050505050905090565b5f546001600160a01b0316331461162f57604051633b8d9d7560e21b815260040160405180910390fd5b600154600160a01b900460ff1661165957604051633998b4d160e11b815260040160405180910390fd5b611661611731565b6001600160a01b0382166116a45760405163eac0d38960e01b81526020600482015260096024820152686e657742726964676560b81b60448201526064016107a4565b6116d86001600160a01b037f0000000000000000000000000000000000000000000000000000000000000000168383611bb5565b816001600160a01b03167fdbb3182831b2daa5b5d548d67b32de19e70e6fdbc7c430248efc82a717cc7eeb8260405161171391815260200190565b60405180910390a26112b460015f8051602061205783398151915255565b611739611c26565b60025f8051602061205783398151915255565b6305f5e10081101561177e5760405163180cb56f60e11b8152600481018290526305f5e10060248201526044016107a4565b6509184e72a000811115610b3057604051632a1e4ad560e21b8152600481018290526509184e72a00060248201526044016107a4565b6040805160e060208201819052601b6101008301527f554441474272696467653a3a636c61696d5769746864726177616c000000000061012083015246928201929092523060608201526001600160601b0319861660808201526001600160a01b03851660a082015260c081018490529081018290525f9061014001604051602081830303815290604052805190602001209050949350505050565b80801580611867575061186460418261202a565b15155b156118885760405163058676ad60e31b8152600481018290526024016107a4565b5f611894604183611f94565b90506004548110156118c457600480546040516359b8466f60e01b815291820183905260248201526044016107a4565b6003548111156118f557600354604051633f8ea02560e01b81526107a4918391600401918252602082015260400190565b6040517f19457468657265756d205369676e6564204d6573736167653a0a3332000000006020820152603c81018690525f90605c016040516020818303038152906040528051906020012090505f805b83811015611b3c575f805f61195b8a8a86611c57565b919450925090507f7fffffffffffffffffffffffffffffff5d576e7357a4501ddfe92f46681b20a08211156119a6576040516331946d8760e21b8152600481018590526024016107a4565b60ff811615806119b957508060ff166001145b156119cc576119c9601b8261203d565b90505b8060ff16601b141580156119e457508060ff16601c14155b15611a0e5760405163e4cb87ff60e01b81526004810185905260ff821660248201526044016107a4565b604080515f8082526020820180845289905260ff841692820192909252606081018590526080810184905260019060a0016020604051602081039080840390855afa158015611a5f573d5f803e3d5ffd5b5050604051601f1901519150506001600160a01b038116611a965760405163365ffbc160e11b8152600481018690526024016107a4565b6001600160a01b0381165f9081526002602052604090205460ff16611adf5760405162269e7960e11b8152600481018690526001600160a01b03821660248201526044016107a4565b856001600160a01b0316816001600160a01b031611611b2b5760405163185b505d60e11b8152600481018690526001600160a01b038083166024830152871660448201526064016107a4565b945050600190920191506119459050565b5050505050505050565b60038054908110611b78576003611b5e826002612013565b611b689190611f94565b611b73906001611fa7565b611b7a565b805b60048190556040519081527fadfa8ecb21b6962ebcd0adbd9ab985b7b4c5b5eb3b0dead683171565c7bfe1719060200160405180910390a150565b611bc28383836001611c85565b61110157604051635274afe760e01b81526001600160a01b03841660048201526024016107a4565b611bf8848484846001611ce7565b611c2057604051635274afe760e01b81526001600160a01b03851660048201526024016107a4565b50505050565b5f8051602061205783398151915254600203611c5557604051633ee5aeb560e01b815260040160405180910390fd5b565b5f808080611c66856041612013565b96909601803597602082013597506040909101355f1a95509350505050565b60405163a9059cbb60e01b5f8181526001600160a01b038616600452602485905291602083604481808b5af1925060015f51148316611cdb578383151615611ccf573d5f823e3d81fd5b5f873b113d1516831692505b60405250949350505050565b6040516323b872dd60e01b5f8181526001600160a01b038781166004528616602452604485905291602083606481808c5af1925060015f51148316611d43578383151615611d37573d5f823e3d81fd5b5f883b113d1516831692505b604052505f60605295945050505050565b80356001600160601b031981168114611d6b575f80fd5b919050565b6001600160a01b0381168114610b30575f80fd5b5f805f805f8060a08789031215611d99575f80fd5b611da287611d54565b95506020870135611db281611d70565b94506040870135935060608701359250608087013567ffffffffffffffff80821115611ddc575f80fd5b818901915089601f830112611def575f80fd5b813581811115611dfd575f80fd5b8a6020828501011115611e0e575f80fd5b6020830194508093505050509295509295509295565b5f805f8060808587031215611e37575f80fd5b611e4085611d54565b93506020850135611e5081611d70565b93969395505050506040820135916060013590565b5f60208284031215611e75575f80fd5b8135611e8081611d70565b9392505050565b5f60208284031215611e97575f80fd5b5035919050565b5f805f60608486031215611eb0575f80fd5b8335611ebb81611d70565b92506020840135611ecb81611d70565b929592945050506040919091013590565b5f8060408385031215611eed575f80fd5b611ef683611d54565b946020939093013593505050565b602080825282518282018190525f9190848201906040850190845b81811015611f445783516001600160a01b031683529284019291840191600101611f1f565b50909695505050505050565b5f8060408385031215611f61575f80fd5b8235611ef681611d70565b634e487b7160e01b5f52601260045260245ffd5b634e487b7160e01b5f52601160045260245ffd5b5f82611fa257611fa2611f6c565b500490565b80820180821115611fba57611fba611f80565b92915050565b81810381811115611fba57611fba611f80565b634e487b7160e01b5f52603260045260245ffd5b634e487b7160e01b5f52603160045260245ffd5b5f6001820161200c5761200c611f80565b5060010190565b8082028115828204841417611fba57611fba611f80565b5f8261203857612038611f6c565b500690565b60ff8181168382160190811115611fba57611fba611f8056fe9b779b17422d0df92223018b32b4d1fa46e071723d6817e2486d003becc55f00a2646970667358221220678e2ad7d703a184c0ca381c0f99a68492fc373ed16d69ae0bea4dce5da07f8d64736f6c63430008180033","linkReferences":{}},"methodIdentifiers":{"DAILY_LIMIT()":"248ec326","MAX_AMOUNT()":"d40dc870","MAX_VALIDATORS()":"714897df","MIN_AMOUNT()":"ddbcb5fa","MIN_VALIDATORS()":"5ed1f963","acceptGovernor()":"e58bb639","addValidator(address)":"4d238c8e","bridgeEnabled()":"0cd3ad01","claimWithdrawal(bytes20,address,uint256,uint256,bytes)":"080cc56a","dailyDepositVolume(uint256)":"fa31a80d","dailyWithdrawalVolume(uint256)":"fd37349f","deposit(bytes20,uint256)":"6503126e","depositNonceCounter()":"70dcfdbe","emergencyWithdrawERC20(address,address,uint256)":"55b8fb81","emergencyWithdrawETH(address)":"214ff459","getAllValidators()":"f3513a37","getDailyDepositRemaining()":"18180be0","getDailyDepositVolume()":"05a847c0","getDailyWithdrawalRemaining()":"d9340102","getDailyWithdrawalVolume()":"95460316","getThreshold()":"e75235b8","getValidatorCount()":"7071688a","getWithdrawalHash(bytes20,address,uint256,uint256)":"18fae1e9","governor()":"0c340a24","isValidator(address)":"facd743b","isWithdrawalNonceUsed(uint256)":"52564f52","migrateToNewBridge(address,uint256)":"fd8df68f","pause()":"8456cb59","paused()":"5c975abb","pendingGovernor()":"e3056a34","removeValidator(address)":"40a141ff","setGovernor(address)":"c42cf535","setThreshold(uint256)":"960bfe04","threshold()":"42cde4e8","token()":"fc0c546a","unpause()":"3f4ba83a","usedWithdrawalNonces(uint256)":"3eee50c7","validators(uint256)":"35aa2e44"},"id":60}