{"abi":[{"type":"constructor","inputs":[{"name":"_token","type":"address","internalType":"address"},{"name":"_governor","type":"address","internalType":"address"},{"name":"_relayers","type":"address[]","internalType":"address[]"},{"name":"_requiredSignatures","type":"uint256","internalType":"uint256"}],"stateMutability":"nonpayable"},{"type":"function","name":"DAILY_VOLUME_CAP","inputs":[],"outputs":[{"name":"","type":"uint256","internalType":"uint256"}],"stateMutability":"view"},{"type":"function","name":"MAX_BRIDGE_PER_TX","inputs":[],"outputs":[{"name":"","type":"uint256","internalType":"uint256"}],"stateMutability":"view"},{"type":"function","name":"REFUND_TIMEOUT","inputs":[],"outputs":[{"name":"","type":"uint256","internalType":"uint256"}],"stateMutability":"view"},{"type":"function","name":"acceptGovernance","inputs":[],"outputs":[],"stateMutability":"nonpayable"},{"type":"function","name":"activateBridge","inputs":[],"outputs":[],"stateMutability":"nonpayable"},{"type":"function","name":"addRelayer","inputs":[{"name":"relayer","type":"address","internalType":"address"}],"outputs":[],"stateMutability":"nonpayable"},{"type":"function","name":"bridgeActive","inputs":[],"outputs":[{"name":"","type":"bool","internalType":"bool"}],"stateMutability":"view"},{"type":"function","name":"bridgeFromNative","inputs":[{"name":"nativeSender","type":"bytes20","internalType":"bytes20"},{"name":"recipient","type":"address","internalType":"address"},{"name":"amount","type":"uint256","internalType":"uint256"},{"name":"nativeTxHash","type":"bytes32","internalType":"bytes32"},{"name":"bridgeNonce","type":"uint256","internalType":"uint256"},{"name":"signatures","type":"bytes","internalType":"bytes"}],"outputs":[],"stateMutability":"nonpayable"},{"type":"function","name":"bridgeRequests","inputs":[{"name":"","type":"uint256","internalType":"uint256"}],"outputs":[{"name":"sender","type":"address","internalType":"address"},{"name":"nativeRecipient","type":"bytes20","internalType":"bytes20"},{"name":"amount","type":"uint256","internalType":"uint256"},{"name":"timestamp","type":"uint256","internalType":"uint256"},{"name":"completed","type":"bool","internalType":"bool"},{"name":"refunded","type":"bool","internalType":"bool"}],"stateMutability":"view"},{"type":"function","name":"bridgeToNative","inputs":[{"name":"nativeRecipient","type":"bytes20","internalType":"bytes20"},{"name":"amount","type":"uint256","internalType":"uint256"}],"outputs":[],"stateMutability":"nonpayable"},{"type":"function","name":"completeBridgeToNative","inputs":[{"name":"bridgeNonce","type":"uint256","internalType":"uint256"},{"name":"signatures","type":"bytes","internalType":"bytes"}],"outputs":[],"stateMutability":"nonpayable"},{"type":"function","name":"dailyVolume","inputs":[],"outputs":[{"name":"","type":"uint256","internalType":"uint256"}],"stateMutability":"view"},{"type":"function","name":"dailyVolumeResetTime","inputs":[],"outputs":[{"name":"","type":"uint256","internalType":"uint256"}],"stateMutability":"view"},{"type":"function","name":"getRelayers","inputs":[],"outputs":[{"name":"","type":"address[]","internalType":"address[]"}],"stateMutability":"view"},{"type":"function","name":"governor","inputs":[],"outputs":[{"name":"","type":"address","internalType":"address"}],"stateMutability":"view"},{"type":"function","name":"isRelayer","inputs":[{"name":"","type":"address","internalType":"address"}],"outputs":[{"name":"","type":"bool","internalType":"bool"}],"stateMutability":"view"},{"type":"function","name":"nonce","inputs":[],"outputs":[{"name":"","type":"uint256","internalType":"uint256"}],"stateMutability":"view"},{"type":"function","name":"pause","inputs":[],"outputs":[],"stateMutability":"nonpayable"},{"type":"function","name":"paused","inputs":[],"outputs":[{"name":"","type":"bool","internalType":"bool"}],"stateMutability":"view"},{"type":"function","name":"pendingGovernor","inputs":[],"outputs":[{"name":"","type":"address","internalType":"address"}],"stateMutability":"view"},{"type":"function","name":"processedNonces","inputs":[{"name":"","type":"uint256","internalType":"uint256"}],"outputs":[{"name":"","type":"bool","internalType":"bool"}],"stateMutability":"view"},{"type":"function","name":"proposeGovernor","inputs":[{"name":"newGovernor","type":"address","internalType":"address"}],"outputs":[],"stateMutability":"nonpayable"},{"type":"function","name":"refundBridge","inputs":[{"name":"bridgeNonce","type":"uint256","internalType":"uint256"}],"outputs":[],"stateMutability":"nonpayable"},{"type":"function","name":"relayerCount","inputs":[],"outputs":[{"name":"","type":"uint256","internalType":"uint256"}],"stateMutability":"view"},{"type":"function","name":"relayers","inputs":[{"name":"","type":"uint256","internalType":"uint256"}],"outputs":[{"name":"","type":"address","internalType":"address"}],"stateMutability":"view"},{"type":"function","name":"removeRelayer","inputs":[{"name":"relayer","type":"address","internalType":"address"}],"outputs":[],"stateMutability":"nonpayable"},{"type":"function","name":"requiredSignatures","inputs":[],"outputs":[{"name":"","type":"uint256","internalType":"uint256"}],"stateMutability":"view"},{"type":"function","name":"setThreshold","inputs":[{"name":"newThreshold","type":"uint256","internalType":"uint256"}],"outputs":[],"stateMutability":"nonpayable"},{"type":"function","name":"token","inputs":[],"outputs":[{"name":"","type":"address","internalType":"contract UDAGToken"}],"stateMutability":"view"},{"type":"function","name":"unpause","inputs":[],"outputs":[],"stateMutability":"nonpayable"},{"type":"event","name":"BridgeActivated","inputs":[{"name":"timestamp","type":"uint256","indexed":false,"internalType":"uint256"}],"anonymous":false},{"type":"event","name":"BridgeCompleted","inputs":[{"name":"bridgeNonce","type":"uint256","indexed":true,"internalType":"uint256"}],"anonymous":false},{"type":"event","name":"BridgeFromNative","inputs":[{"name":"nativeSender","type":"bytes20","indexed":true,"internalType":"bytes20"},{"name":"recipient","type":"address","indexed":true,"internalType":"address"},{"name":"amount","type":"uint256","indexed":false,"internalType":"uint256"},{"name":"nativeTxHash","type":"bytes32","indexed":false,"internalType":"bytes32"},{"name":"bridgeNonce","type":"uint256","indexed":true,"internalType":"uint256"}],"anonymous":false},{"type":"event","name":"BridgePaused","inputs":[{"name":"by","type":"address","indexed":false,"internalType":"address"}],"anonymous":false},{"type":"event","name":"BridgeRefunded","inputs":[{"name":"bridgeNonce","type":"uint256","indexed":true,"internalType":"uint256"},{"name":"sender","type":"address","indexed":true,"internalType":"address"},{"name":"amount","type":"uint256","indexed":false,"internalType":"uint256"}],"anonymous":false},{"type":"event","name":"BridgeToNative","inputs":[{"name":"sender","type":"address","indexed":true,"internalType":"address"},{"name":"nativeRecipient","type":"bytes20","indexed":true,"internalType":"bytes20"},{"name":"amount","type":"uint256","indexed":false,"internalType":"uint256"},{"name":"bridgeNonce","type":"uint256","indexed":true,"internalType":"uint256"}],"anonymous":false},{"type":"event","name":"BridgeUnpaused","inputs":[{"name":"by","type":"address","indexed":false,"internalType":"address"}],"anonymous":false},{"type":"event","name":"GovernorChanged","inputs":[{"name":"oldGovernor","type":"address","indexed":true,"internalType":"address"},{"name":"newGovernor","type":"address","indexed":true,"internalType":"address"}],"anonymous":false},{"type":"event","name":"GovernorProposed","inputs":[{"name":"newGovernor","type":"address","indexed":true,"internalType":"address"}],"anonymous":false},{"type":"event","name":"RelayerAdded","inputs":[{"name":"relayer","type":"address","indexed":false,"internalType":"address"}],"anonymous":false},{"type":"event","name":"RelayerRemoved","inputs":[{"name":"relayer","type":"address","indexed":false,"internalType":"address"}],"anonymous":false},{"type":"event","name":"ThresholdChanged","inputs":[{"name":"oldThreshold","type":"uint256","indexed":false,"internalType":"uint256"},{"name":"newThreshold","type":"uint256","indexed":false,"internalType":"uint256"}],"anonymous":false},{"type":"error","name":"AmountTooLarge","inputs":[]},{"type":"error","name":"BridgeNotActive","inputs":[]},{"type":"error","name":"BridgePausedError","inputs":[]},{"type":"error","name":"DailyCapExceeded","inputs":[]},{"type":"error","name":"InsufficientSignatures","inputs":[]},{"type":"error","name":"InvalidAmount","inputs":[]},{"type":"error","name":"InvalidRecipient","inputs":[]},{"type":"error","name":"InvalidSignature","inputs":[]},{"type":"error","name":"NonceAlreadyProcessed","inputs":[]},{"type":"error","name":"NotGovernor","inputs":[]},{"type":"error","name":"NotRelayer","inputs":[]}],"bytecode":{"object":"0x60a060405234801562000010575f80fd5b506040516200200238038062002002833981016040819052620000339162000294565b5f8111801562000044575081518111155b6200008a5760405162461bcd60e51b81526020600482015260116024820152701a5b9d985b1a59081d1a1c995cda1bdb19607a1b60448201526064015b60405180910390fd5b6001600160a01b038481166080525f80546001600160a01b03191691851691909117815560058290555b825181101562000254575f6001600160a01b0316838281518110620000dd57620000dd6200038e565b60200260200101516001600160a01b0316036200012c5760405162461bcd60e51b815260206004820152600c60248201526b3d32b937903932b630bcb2b960a11b604482015260640162000081565b60045f8483815181106200014457620001446200038e565b6020908102919091018101516001600160a01b031682528101919091526040015f205460ff1615620001ad5760405162461bcd60e51b8152602060048201526011602482015270323ab83634b1b0ba32903932b630bcb2b960791b604482015260640162000081565b6003838281518110620001c457620001c46200038e565b6020908102919091018101518254600180820185555f9485529284200180546001600160a01b0319166001600160a01b03909216919091179055845190916004918690859081106200021a576200021a6200038e565b6020908102919091018101516001600160a01b031682528101919091526040015f20805460ff1916911515919091179055600101620000b4565b50504260085550620003a2915050565b80516001600160a01b03811681146200027b575f80fd5b919050565b634e487b7160e01b5f52604160045260245ffd5b5f805f8060808587031215620002a8575f80fd5b620002b38562000264565b93506020620002c481870162000264565b60408701519094506001600160401b0380821115620002e1575f80fd5b818801915088601f830112620002f5575f80fd5b8151818111156200030a576200030a62000280565b8060051b604051601f19603f8301168101818110858211171562000332576200033262000280565b60405291825284820192508381018501918b83111562000350575f80fd5b938501935b828510156200037957620003698562000264565b8452938501939285019262000355565b60609a909a0151989b979a5050505050505050565b634e487b7160e01b5f52603260045260245ffd5b608051611c2b620003d75f395f81816104730152818161060c01528181610a5901528181610c7701526114aa0152611c2b5ff3fe608060405234801561000f575f80fd5b50600436106101d1575f3560e01c806391dae519116100fe578063a688e5991161009e578063dd39f00d1161006e578063dd39f00d14610434578063e3056a3414610447578063ead93c8f1461045a578063fc0c546a1461046e575f80fd5b8063a688e5991461040d578063affed0e01461041a578063cf1a7a2114610423578063d914e5601461042b575f80fd5b806398c8877e116100d957806398c8877e146103435780639a48e7f91461034c5780639f89c8a21461035f578063a5d8e36e146103fa575f80fd5b806391dae519146102fb57806395c48bd51461031d578063960bfe0414610330575f80fd5b806326020b021161017457806360f0a5ac1161014457806360f0a5ac146102cd5780637d57900a146102e05780638456cb59146102ea5780638d068043146102f2575f80fd5b806326020b021461026c5780633f4ba83a1461027f578063541d5548146102875780635c975abb146102b9575f80fd5b8063179ff4b2116101af578063179ff4b21461022157806319a72013146102365780631cc09c6514610249578063238efcbc14610264575f80fd5b80630666a925146101d55780630c340a24146101ea57806312ab697614610219575b5f80fd5b6101e86101e336600461193a565b610495565b005b5f546101fc906001600160a01b031681565b6040516001600160a01b0390911681526020015b60405180910390f35b6101e86106c3565b610229610787565b6040516102109190611951565b6101e86102443660046119e2565b6107e7565b610256652d79883d200081565b604051908152602001610210565b6101e8610ae1565b6101e861027a366004611a46565b610b88565b6101e8610df1565b6102a9610295366004611a84565b60046020525f908152604090205460ff1681565b6040519015158152602001610210565b6001546102a990600160a81b900460ff1681565b6101e86102db366004611a84565b610e58565b61025662093a8081565b6101e8611078565b61025660055481565b6102a961030936600461193a565b60066020525f908152604090205460ff1681565b6101e861032b366004611a84565b611102565b6101e861033e36600461193a565b6111ba565b61025660075481565b6101fc61035a36600461193a565b611276565b6103b661036d36600461193a565b60096020525f9081526040902080546001820154600283015460038401546004909401546001600160a01b039093169360609290921b9290919060ff8082169161010090041686565b604080516001600160a01b0390971687526001600160601b0319909516602087015293850192909252606084015215156080830152151560a082015260c001610210565b6101e8610408366004611aa4565b61129e565b6102566509184e72a00081565b61025660025481565b600354610256565b61025660085481565b6101e8610442366004611a84565b61155d565b6001546101fc906001600160a01b031681565b6001546102a990600160a01b900460ff1681565b6101fc7f000000000000000000000000000000000000000000000000000000000000000081565b5f81815260096020526040902080546001600160a01b031633146104ed5760405162461bcd60e51b815260206004820152600a6024820152693737ba1039b2b73232b960b11b60448201526064015b60405180910390fd5b600481015460ff16156105365760405162461bcd60e51b8152602060048201526011602482015270185b1c9958591e4818dbdb5c1b195d1959607a1b60448201526064016104e4565b6004810154610100900460ff16156105835760405162461bcd60e51b815260206004820152601060248201526f185b1c9958591e481c99599d5b99195960821b60448201526064016104e4565b62093a8081600301546105969190611b34565b4210156105d15760405162461bcd60e51b8152602060048201526009602482015268746f6f206561726c7960b81b60448201526064016104e4565b6004818101805461ff001916610100179055600282015460405163a9059cbb60e01b8152339281019290925260248201526001600160a01b037f0000000000000000000000000000000000000000000000000000000000000000169063a9059cbb906044016020604051808303815f875af1158015610652573d5f803e3d5ffd5b505050506040513d601f19601f820116820180604052508101906106769190611b4d565b50336001600160a01b0316827f0ff269469b7d31939915c8dd3f0fd6c3111d6d4fb8eeecc24ceb65ae92e264d683600201546040516106b791815260200190565b60405180910390a35050565b5f546001600160a01b031633146106ed57604051633b8d9d7560e21b815260040160405180910390fd5b600154600160a01b900460ff16156107385760405162461bcd60e51b815260206004820152600e60248201526d616c72656164792061637469766560901b60448201526064016104e4565b6001805460ff60a01b1916600160a01b1790556040517f0586bb8132fbb7482a2706e24d8f7e6cc4bc020520f0a9be215f5e3bda66d4be9061077d9042815260200190565b60405180910390a1565b606060038054806020026020016040519081016040528092919081815260200182805480156107dd57602002820191905f5260205f20905b81546001600160a01b031681526001909101906020018083116107bf575b5050505050905090565b600154600160a01b900460ff1661081157604051633df5105960e11b815260040160405180910390fd5b600154600160a81b900460ff161561083c57604051632b2f4b1d60e11b815260040160405180910390fd5b5f83815260096020526040902080546001600160a01b03166108945760405162461bcd60e51b81526020600482015260116024820152701c995c5d595cdd081b9bdd08199bdd5b99607a1b60448201526064016104e4565b600481015460ff16156108dd5760405162461bcd60e51b8152602060048201526011602482015270185b1c9958591e4818dbdb5c1b195d1959607a1b60448201526064016104e4565b6004810154610100900460ff161561092a5760405162461bcd60e51b815260206004820152601060248201526f185b1c9958591e481c99599d5b99195960821b60448201526064016104e4565b8054600182015460028301546040805160e060208201819052601661010083015275636f6d706c657465427269646765546f4e617469766560501b610120830152469282019290925230606080830191909152608082018a90526001600160a01b0390951660a08201526001600160601b03199390941b9290921660c0840152908201525f906101400160408051601f198184030181529082905280516020918201207f19457468657265756d205369676e6564204d6573736167653a0a33320000000091830191909152603c820152605c01604051602081830303815290604052805190602001209050610a208185856116b9565b6004828101805460ff191660011790556002830154604051632770a7eb60e21b8152309281019290925260248201526001600160a01b037f00000000000000000000000000000000000000000000000000000000000000001690639dc29fac906044015f604051808303815f87803b158015610a9a575f80fd5b505af1158015610aac573d5f803e3d5ffd5b50506040518792507fb43ef863cae2fe0510eb9abbbcfa3d2a3794edcec07628318d5a04f4a3adf9cc91505f90a25050505050565b6001546001600160a01b03163314610b325760405162461bcd60e51b81526020600482015260146024820152733737ba103832b73234b7339033b7bb32b93737b960611b60448201526064016104e4565b5f805460405133926001600160a01b03909216917fde4b3f61490b74c0ed6237523974fe299126bbbf8a8a7482fd220104c59b0c8491a35f80546001600160a01b03199081163317909155600180549091169055565b600154600160a01b900460ff16610bb257604051633df5105960e11b815260040160405180910390fd5b600154600160a81b900460ff1615610bdd57604051632b2f4b1d60e11b815260040160405180910390fd5b6001600160601b03198216610c0557604051634e46966960e11b815260040160405180910390fd5b805f03610c255760405163162908e360e11b815260040160405180910390fd5b6509184e72a000811115610c4c57604051630625040160e01b815260040160405180910390fd5b610c55816118ce565b6040516323b872dd60e01b8152336004820152306024820152604481018290527f00000000000000000000000000000000000000000000000000000000000000006001600160a01b0316906323b872dd906064016020604051808303815f875af1158015610cc5573d5f803e3d5ffd5b505050506040513d601f19601f82011682018060405250810190610ce99190611b4d565b50600280545f9182610cfa83611b6c565b909155506040805160c081018252338082526001600160601b0319871660208084018281528486018981524260608088019182525f6080890181815260a08a018281528c835260098852918b902099518a546001600160a01b03199081166001600160a01b03909216919091178b55955160018b018054909716931c92909217909455915160028801555160038701555160049095018054915161ffff1990921695151561ff0019169590951761010091151591909102179093559251868152939450849390917f5f54486bc10b721b2c9847aa05f4eb3d2dae44876649d699def7f6e9906783e7910160405180910390a4505050565b5f546001600160a01b03163314610e1b57604051633b8d9d7560e21b815260040160405180910390fd5b6001805460ff60a81b191690556040513381527fa668d29cf81d3acc05e4a35a5bf898bb2c919fc7a4366e536bbd43522cb670f09060200161077d565b5f546001600160a01b03163314610e8257604051633b8d9d7560e21b815260040160405180910390fd5b6001600160a01b0381165f9081526004602052604090205460ff16610ed75760405162461bcd60e51b815260206004820152600b60248201526a3737ba103932b630bcb2b960a91b60448201526064016104e4565b6001600160a01b0381165f908152600460205260408120805460ff191690555b600354811015610feb57816001600160a01b031660038281548110610f1e57610f1e611b84565b5f918252602090912001546001600160a01b031603610fe35760038054610f4790600190611b98565b81548110610f5757610f57611b84565b5f91825260209091200154600380546001600160a01b039092169183908110610f8257610f82611b84565b905f5260205f20015f6101000a8154816001600160a01b0302191690836001600160a01b031602179055506003805480610fbe57610fbe611bab565b5f8281526020902081015f1990810180546001600160a01b0319169055019055610feb565b600101610ef7565b5060055460035410156110385760405162461bcd60e51b81526020600482015260156024820152741ddbdd5b1908189c99585ac81d1a1c995cda1bdb19605a1b60448201526064016104e4565b6040516001600160a01b03821681527f10e1f7ce9fd7d1b90a66d13a2ab3cb8dd7f29f3f8d520b143b063ccfbab6906b906020015b60405180910390a150565b335f9081526004602052604090205460ff161580156110a157505f546001600160a01b03163314155b156110bf5760405163c64891a560e01b815260040160405180910390fd5b6001805460ff60a81b1916600160a81b1790556040513381527f80c6ef1d6f41faaf47f10c6da1ae6d45d4773d53d4c79bc1ef2737b10dbed5799060200161077d565b5f546001600160a01b0316331461112c57604051633b8d9d7560e21b815260040160405180910390fd5b6001600160a01b0381166111715760405162461bcd60e51b815260206004820152600c60248201526b7a65726f206164647265737360a01b60448201526064016104e4565b600180546001600160a01b0319166001600160a01b0383169081179091556040517fb2a7644827310967f47607793f9eef1226102dcafd1bfcf6c53ad8afe0dd4628905f90a250565b5f546001600160a01b031633146111e457604051633b8d9d7560e21b815260040160405180910390fd5b5f811180156111f557506003548111155b6112355760405162461bcd60e51b81526020600482015260116024820152701a5b9d985b1a59081d1a1c995cda1bdb19607a1b60448201526064016104e4565b60055460408051918252602082018390527f3164947cf0f49f08dd0cd80e671535b1e11590d347c55dcaa97ba3c24a96b33a910160405180910390a1600555565b60038181548110611285575f80fd5b5f918252602090912001546001600160a01b0316905081565b600154600160a01b900460ff166112c857604051633df5105960e11b815260040160405180910390fd5b600154600160a81b900460ff16156112f357604051632b2f4b1d60e11b815260040160405180910390fd5b6001600160a01b03861661133a5760405162461bcd60e51b815260206004820152600e60248201526d1e995c9bc81c9958da5c1a595b9d60921b60448201526064016104e4565b845f0361135a5760405163162908e360e11b815260040160405180910390fd5b6509184e72a00085111561138157604051630625040160e01b815260040160405180910390fd5b5f8381526006602052604090205460ff16156113b05760405163752eea4f60e01b815260040160405180910390fd5b6113b9856118ce565b604080514660208083019190915230828401526001600160601b03198a1660608301526001600160a01b038916608083015260a0820188905260c0820187905260e080830187905283518084039091018152610100830184528051908201207f19457468657265756d205369676e6564204d6573736167653a0a33320000000061012084015261013c808401919091528351808403909101815261015c909201909252805191012061146c8184846116b9565b5f8481526006602052604090819020805460ff19166001179055516340c10f1960e01b81526001600160a01b038881166004830152602482018890527f000000000000000000000000000000000000000000000000000000000000000016906340c10f19906044015f604051808303815f87803b1580156114eb575f80fd5b505af11580156114fd573d5f803e3d5ffd5b505060408051898152602081018990528793506001600160a01b038b1692506001600160601b03198c16917ffc70edcaed46e65aed2ecd85c616acaac8ecf7bfb4d45886f826e299550df777910160405180910390a45050505050505050565b5f546001600160a01b0316331461158757604051633b8d9d7560e21b815260040160405180910390fd5b6001600160a01b0381166115cc5760405162461bcd60e51b815260206004820152600c60248201526b3d32b937903932b630bcb2b960a11b60448201526064016104e4565b6001600160a01b0381165f9081526004602052604090205460ff16156116265760405162461bcd60e51b815260206004820152600f60248201526e30b63932b0b23c903932b630bcb2b960891b60448201526064016104e4565b6003805460018082019092557fc2575a0e9e593c00f959f8c92f12db2869c3395a3b0502d05e2516446f71f85b0180546001600160a01b0319166001600160a01b0384169081179091555f81815260046020908152604091829020805460ff1916909417909355519081527f03580ee9f53a62b7cb409a2cb56f9be87747dd15017afc5cef6eef321e4fb2c5910161106d565b5f6116c5604183611bbf565b90506005548110156116ea57604051633724e34360e11b815260040160405180910390fd5b5f805f5b838110156118a2575f808080611705856041611bde565b8a81018035955060208101359450604001355f1a925090507f7fffffffffffffffffffffffffffffff5d576e7357a4501ddfe92f46681b20a083111561177d5760405162461bcd60e51b815260206004820152600d60248201526c6d616c6c6561626c652073696760981b60448201526064016104e4565b604080515f808252602082018084528e905260ff851692820192909252606081018690526080810185905260019060a0016020604051602081039080840390855afa1580156117ce573d5f803e3d5ffd5b5050604051601f1901519150506001600160a01b03811661180257604051638baa579f60e01b815260040160405180910390fd5b6001600160a01b0381165f9081526004602052604090205460ff1661182b57505050505061189a565b876001600160a01b0316816001600160a01b0316116118845760405162461bcd60e51b81526020600482015260156024820152741cda59db985d1d5c995cc81b9bdd081cdbdc9d1959605a1b60448201526064016104e4565b9650868661189181611b6c565b97505050505050505b6001016116ee565b506005548110156118c657604051633724e34360e11b815260040160405180910390fd5b505050505050565b6008546118de9062015180611b34565b42106118ed575f600755426008555b652d79883d2000816007546119029190611b34565b11156119215760405163cc70389d60e01b815260040160405180910390fd5b8060075f8282546119329190611b34565b909155505050565b5f6020828403121561194a575f80fd5b5035919050565b602080825282518282018190525f9190848201906040850190845b818110156119915783516001600160a01b03168352928401929184019160010161196c565b50909695505050505050565b5f8083601f8401126119ad575f80fd5b50813567ffffffffffffffff8111156119c4575f80fd5b6020830191508360208285010111156119db575f80fd5b9250929050565b5f805f604084860312156119f4575f80fd5b83359250602084013567ffffffffffffffff811115611a11575f80fd5b611a1d8682870161199d565b9497909650939450505050565b80356001600160601b031981168114611a41575f80fd5b919050565b5f8060408385031215611a57575f80fd5b611a6083611a2a565b946020939093013593505050565b80356001600160a01b0381168114611a41575f80fd5b5f60208284031215611a94575f80fd5b611a9d82611a6e565b9392505050565b5f805f805f805f60c0888a031215611aba575f80fd5b611ac388611a2a565b9650611ad160208901611a6e565b955060408801359450606088013593506080880135925060a088013567ffffffffffffffff811115611b01575f80fd5b611b0d8a828b0161199d565b989b979a50959850939692959293505050565b634e487b7160e01b5f52601160045260245ffd5b80820180821115611b4757611b47611b20565b92915050565b5f60208284031215611b5d575f80fd5b81518015158114611a9d575f80fd5b5f60018201611b7d57611b7d611b20565b5060010190565b634e487b7160e01b5f52603260045260245ffd5b81810381811115611b4757611b47611b20565b634e487b7160e01b5f52603160045260245ffd5b5f82611bd957634e487b7160e01b5f52601260045260245ffd5b500490565b8082028115828204841417611b4757611b47611b2056fea2646970667358221220f02be300abd5a432e40cc6e666541ccd8f350433d195f4f40036fe3eae3b1a7364736f6c63430008180033","linkReferences":{}},"methodIdentifiers":{"DAILY_VOLUME_CAP()":"1cc09c65","MAX_BRIDGE_PER_TX()":"a688e599","REFUND_TIMEOUT()":"7d57900a","acceptGovernance()":"238efcbc","activateBridge()":"12ab6976","addRelayer(address)":"dd39f00d","bridgeActive()":"ead93c8f","bridgeFromNative(bytes20,address,uint256,bytes32,uint256,bytes)":"a5d8e36e","bridgeRequests(uint256)":"9f89c8a2","bridgeToNative(bytes20,uint256)":"26020b02","completeBridgeToNative(uint256,bytes)":"19a72013","dailyVolume()":"98c8877e","dailyVolumeResetTime()":"d914e560","getRelayers()":"179ff4b2","governor()":"0c340a24","isRelayer(address)":"541d5548","nonce()":"affed0e0","pause()":"8456cb59","paused()":"5c975abb","pendingGovernor()":"e3056a34","processedNonces(uint256)":"91dae519","proposeGovernor(address)":"95c48bd5","refundBridge(uint256)":"0666a925","relayerCount()":"cf1a7a21","relayers(uint256)":"9a48e7f9","removeRelayer(address)":"60f0a5ac","requiredSignatures()":"8d068043","setThreshold(uint256)":"960bfe04","token()":"fc0c546a","unpause()":"3f4ba83a"},"id":43}