{"abi":[{"type":"constructor","inputs":[{"name":"_token","type":"address","internalType":"address"},{"name":"_governor","type":"address","internalType":"address"}],"stateMutability":"nonpayable"},{"type":"function","name":"CHALLENGE_PERIOD","inputs":[],"outputs":[{"name":"","type":"uint256","internalType":"uint256"}],"stateMutability":"view"},{"type":"function","name":"MAX_DEPOSIT","inputs":[],"outputs":[{"name":"","type":"uint256","internalType":"uint256"}],"stateMutability":"view"},{"type":"function","name":"canClaim","inputs":[{"name":"depositNonce","type":"uint256","internalType":"uint256"}],"outputs":[{"name":"","type":"bool","internalType":"bool"}],"stateMutability":"view"},{"type":"function","name":"claimWithdrawal","inputs":[{"name":"depositNonce","type":"uint256","internalType":"uint256"}],"outputs":[],"stateMutability":"nonpayable"},{"type":"function","name":"deposit","inputs":[{"name":"nativeRecipient","type":"bytes20","internalType":"bytes20"},{"name":"amount","type":"uint256","internalType":"uint256"}],"outputs":[],"stateMutability":"nonpayable"},{"type":"function","name":"deposits","inputs":[{"name":"","type":"uint256","internalType":"uint256"}],"outputs":[{"name":"sender","type":"address","internalType":"address"},{"name":"nativeRecipient","type":"bytes20","internalType":"bytes20"},{"name":"amount","type":"uint256","internalType":"uint256"},{"name":"timestamp","type":"uint256","internalType":"uint256"},{"name":"claimed","type":"bool","internalType":"bool"}],"stateMutability":"view"},{"type":"function","name":"getDeposit","inputs":[{"name":"depositNonce","type":"uint256","internalType":"uint256"}],"outputs":[{"name":"","type":"tuple","internalType":"struct UDAGBridgeOptimistic.Deposit","components":[{"name":"sender","type":"address","internalType":"address"},{"name":"nativeRecipient","type":"bytes20","internalType":"bytes20"},{"name":"amount","type":"uint256","internalType":"uint256"},{"name":"timestamp","type":"uint256","internalType":"uint256"},{"name":"claimed","type":"bool","internalType":"bool"}]}],"stateMutability":"view"},{"type":"function","name":"governor","inputs":[],"outputs":[{"name":"","type":"address","internalType":"address"}],"stateMutability":"view"},{"type":"function","name":"nonce","inputs":[],"outputs":[{"name":"","type":"uint256","internalType":"uint256"}],"stateMutability":"view"},{"type":"function","name":"pause","inputs":[],"outputs":[],"stateMutability":"nonpayable"},{"type":"function","name":"paused","inputs":[],"outputs":[{"name":"","type":"bool","internalType":"bool"}],"stateMutability":"view"},{"type":"function","name":"setGovernor","inputs":[{"name":"newGovernor","type":"address","internalType":"address"}],"outputs":[],"stateMutability":"nonpayable"},{"type":"function","name":"timeUntilClaimable","inputs":[{"name":"depositNonce","type":"uint256","internalType":"uint256"}],"outputs":[{"name":"","type":"uint256","internalType":"uint256"}],"stateMutability":"view"},{"type":"function","name":"token","inputs":[],"outputs":[{"name":"","type":"address","internalType":"contract UDAGToken"}],"stateMutability":"view"},{"type":"function","name":"unpause","inputs":[],"outputs":[],"stateMutability":"nonpayable"},{"type":"function","name":"withdrawalNonces","inputs":[{"name":"","type":"uint256","internalType":"uint256"}],"outputs":[{"name":"","type":"bool","internalType":"bool"}],"stateMutability":"view"},{"type":"event","name":"DepositMade","inputs":[{"name":"sender","type":"address","indexed":true,"internalType":"address"},{"name":"nativeRecipient","type":"bytes20","indexed":true,"internalType":"bytes20"},{"name":"amount","type":"uint256","indexed":false,"internalType":"uint256"},{"name":"depositNonce","type":"uint256","indexed":true,"internalType":"uint256"}],"anonymous":false},{"type":"event","name":"WithdrawalClaimed","inputs":[{"name":"sender","type":"address","indexed":true,"internalType":"address"},{"name":"amount","type":"uint256","indexed":false,"internalType":"uint256"},{"name":"depositNonce","type":"uint256","indexed":true,"internalType":"uint256"}],"anonymous":false},{"type":"error","name":"AlreadyClaimed","inputs":[]},{"type":"error","name":"AmountTooLarge","inputs":[]},{"type":"error","name":"BridgePaused","inputs":[]},{"type":"error","name":"ChallengePeriodNotPassed","inputs":[]},{"type":"error","name":"InvalidRecipient","inputs":[]},{"type":"error","name":"NotGovernor","inputs":[]}],"bytecode":{"object":"0x60a060405234801561000f575f80fd5b50604051610acc380380610acc83398101604081905261002e91610070565b6001600160a01b039182166080525f80546001600160a01b031916919092161790556100a1565b80516001600160a01b038116811461006b575f80fd5b919050565b5f8060408385031215610081575f80fd5b61008a83610055565b915061009860208401610055565b90509250929050565b608051610a056100c75f395f81816103930152818161049101526108420152610a055ff3fe608060405234801561000f575f80fd5b50600436106100fb575f3560e01c8063b02c43d011610093578063d81cb13811610063578063d81cb1381461035b578063dd5967c31461036e578063f84444361461037b578063fc0c546a1461038e575f80fd5b8063b02c43d0146102a2578063c3a079ed1461032b578063c42cf53514610335578063c95c0d8914610348575f80fd5b80636503126e116100ce5780636503126e1461017d5780638456cb59146101905780639f9fb96814610198578063affed0e01461028b575f80fd5b80630c340a24146100ff57806317cd3dc11461012e5780633f4ba83a146101605780635c975abb1461016a575b5f80fd5b5f54610111906001600160a01b031681565b6040516001600160a01b0390911681526020015b60405180910390f35b61015061013c3660046108e5565b60036020525f908152604090205460ff1681565b6040519015158152602001610125565b6101686103b5565b005b5f5461015090600160a01b900460ff1681565b61016861018b3660046108fc565b6103ed565b6101686105f2565b6102396101a63660046108e5565b6040805160a0810182525f80825260208201819052918101829052606081018290526080810191909152505f90815260026020818152604092839020835160a08101855281546001600160a01b0316815260018201546001600160601b0319606091821b1693820193909352928101549383019390935260038301549082015260049091015460ff161515608082015290565b604051610125919081516001600160a01b031681526020808301516001600160601b03191690820152604080830151908201526060808301519082015260809182015115159181019190915260a00190565b61029460015481565b604051908152602001610125565b6102ee6102b03660046108e5565b600260208190525f9182526040909120805460018201549282015460038301546004909301546001600160a01b039092169360601b92909160ff1685565b604080516001600160a01b0390961686526001600160601b031990941660208601529284019190915260608301521515608082015260a001610125565b61029462093a8081565b610168610343366004610932565b610630565b6101506103563660046108e5565b6106a2565b6102946103693660046108e5565b6106dd565b6102946509184e72a00081565b6101686103893660046108e5565b610723565b6101117f000000000000000000000000000000000000000000000000000000000000000081565b5f546001600160a01b031633146103df57604051633b8d9d7560e21b815260040160405180910390fd5b5f805460ff60a01b19169055565b5f54600160a01b900460ff16156104175760405163a792dfa360e01b815260040160405180910390fd5b6001600160601b0319821661043f57604051634e46966960e11b815260040160405180910390fd5b80158061045157506509184e72a00081115b1561046f57604051630625040160e01b815260040160405180910390fd5b6040516323b872dd60e01b8152336004820152306024820152604481018290527f00000000000000000000000000000000000000000000000000000000000000006001600160a01b0316906323b872dd906064016020604051808303815f875af11580156104df573d5f803e3d5ffd5b505050506040513d601f19601f820116820180604052508101906105039190610958565b50600180545f91826105148361098b565b909155506040805160a081018252338082526001600160601b0319871660208084018281528486018981524260608088019182525f608089018181528b82526002808852918b902099518a546001600160a01b039091166001600160a01b0319918216178b55955160018b0180549190941c961695909517909155915191870191909155516003860155516004909401805494151560ff19909516949094179093559251868152939450849390917fbe11778ef16d88c17b2504ed0e5d4e7afe2b2b0871b1360b5e303d966218b63e910160405180910390a4505050565b5f546001600160a01b0316331461061c57604051633b8d9d7560e21b815260040160405180910390fd5b5f805460ff60a01b1916600160a01b179055565b5f546001600160a01b0316331461065a57604051633b8d9d7560e21b815260040160405180910390fd5b6001600160a01b03811661068157604051634e46966960e11b815260040160405180910390fd5b5f80546001600160a01b0319166001600160a01b0392909216919091179055565b5f818152600260205260408120600481015460ff161580156106d6575062093a8081600301546106d291906109a3565b4210155b9392505050565b5f818152600260205260408120600381015482906106ff9062093a80906109a3565b905080421061071157505f9392505050565b61071b42826109bc565b949350505050565b5f54600160a01b900460ff161561074d5760405163a792dfa360e01b815260040160405180910390fd5b5f81815260026020526040902080546001600160a01b031661078257604051634e46966960e11b815260040160405180910390fd5b600481015460ff16156107a857604051630c8d9eab60e31b815260040160405180910390fd5b80546001600160a01b031633146107d257604051633b8d9d7560e21b815260040160405180910390fd5b62093a8081600301546107e591906109a3565b4210156108055760405163de6d4d6160e01b815260040160405180910390fd5b6004818101805460ff19166001179055815460028301546040516340c10f1960e01b81526001600160a01b039283169381019390935260248301527f000000000000000000000000000000000000000000000000000000000000000016906340c10f19906044015f604051808303815f87803b158015610883575f80fd5b505af1158015610895573d5f803e3d5ffd5b5050825460028401546040519081528593506001600160a01b0390911691507f2d43eb174787155132b52ddb6b346e2dca99302eac3df4466dbeff953d3c84d19060200160405180910390a35050565b5f602082840312156108f5575f80fd5b5035919050565b5f806040838503121561090d575f80fd5b82356001600160601b031981168114610924575f80fd5b946020939093013593505050565b5f60208284031215610942575f80fd5b81356001600160a01b03811681146106d6575f80fd5b5f60208284031215610968575f80fd5b815180151581146106d6575f80fd5b634e487b7160e01b5f52601160045260245ffd5b5f6001820161099c5761099c610977565b5060010190565b808201808211156109b6576109b6610977565b92915050565b818103818111156109b6576109b661097756fea264697066735822122011db1040c0223e6995f754c340467e97135d4c288e1f7ee5e42c9f4b224774c764736f6c63430008180033","linkReferences":{}},"methodIdentifiers":{"CHALLENGE_PERIOD()":"c3a079ed","MAX_DEPOSIT()":"dd5967c3","canClaim(uint256)":"c95c0d89","claimWithdrawal(uint256)":"f8444436","deposit(bytes20,uint256)":"6503126e","deposits(uint256)":"b02c43d0","getDeposit(uint256)":"9f9fb968","governor()":"0c340a24","nonce()":"affed0e0","pause()":"8456cb59","paused()":"5c975abb","setGovernor(address)":"c42cf535","timeUntilClaimable(uint256)":"d81cb138","token()":"fc0c546a","unpause()":"3f4ba83a","withdrawalNonces(uint256)":"17cd3dc1"},"id":43}