{"abi":[{"type":"constructor","inputs":[{"name":"admin","type":"address","internalType":"address"},{"name":"bridge","type":"address","internalType":"address"}],"stateMutability":"nonpayable"},{"type":"function","name":"BRIDGE_MIGRATION_DELAY","inputs":[],"outputs":[{"name":"","type":"uint256","internalType":"uint256"}],"stateMutability":"view"},{"type":"function","name":"DEFAULT_ADMIN_ROLE","inputs":[],"outputs":[{"name":"","type":"bytes32","internalType":"bytes32"}],"stateMutability":"view"},{"type":"function","name":"DOMAIN_SEPARATOR","inputs":[],"outputs":[{"name":"","type":"bytes32","internalType":"bytes32"}],"stateMutability":"view"},{"type":"function","name":"MAX_SUPPLY","inputs":[],"outputs":[{"name":"","type":"uint256","internalType":"uint256"}],"stateMutability":"view"},{"type":"function","name":"MINTER_ROLE","inputs":[],"outputs":[{"name":"","type":"bytes32","internalType":"bytes32"}],"stateMutability":"view"},{"type":"function","name":"PAUSER_ROLE","inputs":[],"outputs":[{"name":"","type":"bytes32","internalType":"bytes32"}],"stateMutability":"view"},{"type":"function","name":"allowance","inputs":[{"name":"owner","type":"address","internalType":"address"},{"name":"spender","type":"address","internalType":"address"}],"outputs":[{"name":"","type":"uint256","internalType":"uint256"}],"stateMutability":"view"},{"type":"function","name":"approve","inputs":[{"name":"spender","type":"address","internalType":"address"},{"name":"value","type":"uint256","internalType":"uint256"}],"outputs":[{"name":"","type":"bool","internalType":"bool"}],"stateMutability":"nonpayable"},{"type":"function","name":"balanceOf","inputs":[{"name":"account","type":"address","internalType":"address"}],"outputs":[{"name":"","type":"uint256","internalType":"uint256"}],"stateMutability":"view"},{"type":"function","name":"bridgeAddress","inputs":[],"outputs":[{"name":"","type":"address","internalType":"address"}],"stateMutability":"view"},{"type":"function","name":"burnSelf","inputs":[{"name":"amount","type":"uint256","internalType":"uint256"}],"outputs":[],"stateMutability":"nonpayable"},{"type":"function","name":"cancelBridgeMigration","inputs":[],"outputs":[],"stateMutability":"nonpayable"},{"type":"function","name":"decimals","inputs":[],"outputs":[{"name":"","type":"uint8","internalType":"uint8"}],"stateMutability":"pure"},{"type":"function","name":"eip712Domain","inputs":[],"outputs":[{"name":"fields","type":"bytes1","internalType":"bytes1"},{"name":"name","type":"string","internalType":"string"},{"name":"version","type":"string","internalType":"string"},{"name":"chainId","type":"uint256","internalType":"uint256"},{"name":"verifyingContract","type":"address","internalType":"address"},{"name":"salt","type":"bytes32","internalType":"bytes32"},{"name":"extensions","type":"uint256[]","internalType":"uint256[]"}],"stateMutability":"view"},{"type":"function","name":"executeBridgeMigration","inputs":[],"outputs":[],"stateMutability":"nonpayable"},{"type":"function","name":"getRoleAdmin","inputs":[{"name":"role","type":"bytes32","internalType":"bytes32"}],"outputs":[{"name":"","type":"bytes32","internalType":"bytes32"}],"stateMutability":"view"},{"type":"function","name":"grantPauserRole","inputs":[{"name":"account","type":"address","internalType":"address"}],"outputs":[],"stateMutability":"nonpayable"},{"type":"function","name":"grantRole","inputs":[{"name":"role","type":"bytes32","internalType":"bytes32"},{"name":"account","type":"address","internalType":"address"}],"outputs":[],"stateMutability":"nonpayable"},{"type":"function","name":"hasRole","inputs":[{"name":"role","type":"bytes32","internalType":"bytes32"},{"name":"account","type":"address","internalType":"address"}],"outputs":[{"name":"","type":"bool","internalType":"bool"}],"stateMutability":"view"},{"type":"function","name":"isMinter","inputs":[{"name":"account","type":"address","internalType":"address"}],"outputs":[{"name":"","type":"bool","internalType":"bool"}],"stateMutability":"view"},{"type":"function","name":"isPaused","inputs":[],"outputs":[{"name":"","type":"bool","internalType":"bool"}],"stateMutability":"view"},{"type":"function","name":"mint","inputs":[{"name":"to","type":"address","internalType":"address"},{"name":"amount","type":"uint256","internalType":"uint256"}],"outputs":[],"stateMutability":"nonpayable"},{"type":"function","name":"name","inputs":[],"outputs":[{"name":"","type":"string","internalType":"string"}],"stateMutability":"view"},{"type":"function","name":"nonces","inputs":[{"name":"owner","type":"address","internalType":"address"}],"outputs":[{"name":"","type":"uint256","internalType":"uint256"}],"stateMutability":"view"},{"type":"function","name":"pause","inputs":[{"name":"reason","type":"string","internalType":"string"}],"outputs":[],"stateMutability":"nonpayable"},{"type":"function","name":"paused","inputs":[],"outputs":[{"name":"","type":"bool","internalType":"bool"}],"stateMutability":"view"},{"type":"function","name":"pendingBridgeMigration","inputs":[],"outputs":[{"name":"newBridge","type":"address","internalType":"address"},{"name":"executableAfter","type":"uint256","internalType":"uint256"}],"stateMutability":"view"},{"type":"function","name":"permit","inputs":[{"name":"owner","type":"address","internalType":"address"},{"name":"spender","type":"address","internalType":"address"},{"name":"value","type":"uint256","internalType":"uint256"},{"name":"deadline","type":"uint256","internalType":"uint256"},{"name":"v","type":"uint8","internalType":"uint8"},{"name":"r","type":"bytes32","internalType":"bytes32"},{"name":"s","type":"bytes32","internalType":"bytes32"}],"outputs":[],"stateMutability":"nonpayable"},{"type":"function","name":"proposeBridgeMigration","inputs":[{"name":"newBridge","type":"address","internalType":"address"}],"outputs":[],"stateMutability":"nonpayable"},{"type":"function","name":"remainingSupply","inputs":[],"outputs":[{"name":"","type":"uint256","internalType":"uint256"}],"stateMutability":"view"},{"type":"function","name":"renounceAdminRole","inputs":[],"outputs":[],"stateMutability":"nonpayable"},{"type":"function","name":"renounceRole","inputs":[{"name":"role","type":"bytes32","internalType":"bytes32"},{"name":"callerConfirmation","type":"address","internalType":"address"}],"outputs":[],"stateMutability":"nonpayable"},{"type":"function","name":"revokePauserRole","inputs":[{"name":"account","type":"address","internalType":"address"}],"outputs":[],"stateMutability":"nonpayable"},{"type":"function","name":"revokeRole","inputs":[{"name":"role","type":"bytes32","internalType":"bytes32"},{"name":"account","type":"address","internalType":"address"}],"outputs":[],"stateMutability":"nonpayable"},{"type":"function","name":"supportsInterface","inputs":[{"name":"interfaceId","type":"bytes4","internalType":"bytes4"}],"outputs":[{"name":"","type":"bool","internalType":"bool"}],"stateMutability":"view"},{"type":"function","name":"symbol","inputs":[],"outputs":[{"name":"","type":"string","internalType":"string"}],"stateMutability":"view"},{"type":"function","name":"totalSupply","inputs":[],"outputs":[{"name":"","type":"uint256","internalType":"uint256"}],"stateMutability":"view"},{"type":"function","name":"transfer","inputs":[{"name":"to","type":"address","internalType":"address"},{"name":"value","type":"uint256","internalType":"uint256"}],"outputs":[{"name":"","type":"bool","internalType":"bool"}],"stateMutability":"nonpayable"},{"type":"function","name":"transferFrom","inputs":[{"name":"from","type":"address","internalType":"address"},{"name":"to","type":"address","internalType":"address"},{"name":"value","type":"uint256","internalType":"uint256"}],"outputs":[{"name":"","type":"bool","internalType":"bool"}],"stateMutability":"nonpayable"},{"type":"function","name":"unpause","inputs":[],"outputs":[],"stateMutability":"nonpayable"},{"type":"event","name":"AdminRoleRenounced","inputs":[{"name":"formerAdmin","type":"address","indexed":true,"internalType":"address"}],"anonymous":false},{"type":"event","name":"Approval","inputs":[{"name":"owner","type":"address","indexed":true,"internalType":"address"},{"name":"spender","type":"address","indexed":true,"internalType":"address"},{"name":"value","type":"uint256","indexed":false,"internalType":"uint256"}],"anonymous":false},{"type":"event","name":"BridgeMigrationCancelled","inputs":[{"name":"cancelledBridge","type":"address","indexed":true,"internalType":"address"},{"name":"cancelledBy","type":"address","indexed":true,"internalType":"address"}],"anonymous":false},{"type":"event","name":"BridgeMigrationProposed","inputs":[{"name":"newBridge","type":"address","indexed":true,"internalType":"address"},{"name":"executableAfter","type":"uint256","indexed":false,"internalType":"uint256"},{"name":"proposedBy","type":"address","indexed":true,"internalType":"address"}],"anonymous":false},{"type":"event","name":"BridgeUpdated","inputs":[{"name":"oldBridge","type":"address","indexed":true,"internalType":"address"},{"name":"newBridge","type":"address","indexed":true,"internalType":"address"}],"anonymous":false},{"type":"event","name":"EIP712DomainChanged","inputs":[],"anonymous":false},{"type":"event","name":"EmergencyPause","inputs":[{"name":"pausedBy","type":"address","indexed":true,"internalType":"address"},{"name":"reason","type":"string","indexed":false,"internalType":"string"}],"anonymous":false},{"type":"event","name":"EmergencyUnpause","inputs":[{"name":"unpausedBy","type":"address","indexed":true,"internalType":"address"}],"anonymous":false},{"type":"event","name":"Paused","inputs":[{"name":"account","type":"address","indexed":false,"internalType":"address"}],"anonymous":false},{"type":"event","name":"RoleAdminChanged","inputs":[{"name":"role","type":"bytes32","indexed":true,"internalType":"bytes32"},{"name":"previousAdminRole","type":"bytes32","indexed":true,"internalType":"bytes32"},{"name":"newAdminRole","type":"bytes32","indexed":true,"internalType":"bytes32"}],"anonymous":false},{"type":"event","name":"RoleGranted","inputs":[{"name":"role","type":"bytes32","indexed":true,"internalType":"bytes32"},{"name":"account","type":"address","indexed":true,"internalType":"address"},{"name":"sender","type":"address","indexed":true,"internalType":"address"}],"anonymous":false},{"type":"event","name":"RoleRevoked","inputs":[{"name":"role","type":"bytes32","indexed":true,"internalType":"bytes32"},{"name":"account","type":"address","indexed":true,"internalType":"address"},{"name":"sender","type":"address","indexed":true,"internalType":"address"}],"anonymous":false},{"type":"event","name":"Transfer","inputs":[{"name":"from","type":"address","indexed":true,"internalType":"address"},{"name":"to","type":"address","indexed":true,"internalType":"address"},{"name":"value","type":"uint256","indexed":false,"internalType":"uint256"}],"anonymous":false},{"type":"event","name":"Unpaused","inputs":[{"name":"account","type":"address","indexed":false,"internalType":"address"}],"anonymous":false},{"type":"error","name":"AccessControlBadConfirmation","inputs":[]},{"type":"error","name":"AccessControlUnauthorizedAccount","inputs":[{"name":"account","type":"address","internalType":"address"},{"name":"neededRole","type":"bytes32","internalType":"bytes32"}]},{"type":"error","name":"BurnAmountZero","inputs":[]},{"type":"error","name":"ECDSAInvalidSignature","inputs":[]},{"type":"error","name":"ECDSAInvalidSignatureLength","inputs":[{"name":"length","type":"uint256","internalType":"uint256"}]},{"type":"error","name":"ECDSAInvalidSignatureS","inputs":[{"name":"s","type":"bytes32","internalType":"bytes32"}]},{"type":"error","name":"ERC20InsufficientAllowance","inputs":[{"name":"spender","type":"address","internalType":"address"},{"name":"allowance","type":"uint256","internalType":"uint256"},{"name":"needed","type":"uint256","internalType":"uint256"}]},{"type":"error","name":"ERC20InsufficientBalance","inputs":[{"name":"sender","type":"address","internalType":"address"},{"name":"balance","type":"uint256","internalType":"uint256"},{"name":"needed","type":"uint256","internalType":"uint256"}]},{"type":"error","name":"ERC20InvalidApprover","inputs":[{"name":"approver","type":"address","internalType":"address"}]},{"type":"error","name":"ERC20InvalidReceiver","inputs":[{"name":"receiver","type":"address","internalType":"address"}]},{"type":"error","name":"ERC20InvalidSender","inputs":[{"name":"sender","type":"address","internalType":"address"}]},{"type":"error","name":"ERC20InvalidSpender","inputs":[{"name":"spender","type":"address","internalType":"address"}]},{"type":"error","name":"ERC2612ExpiredSignature","inputs":[{"name":"deadline","type":"uint256","internalType":"uint256"}]},{"type":"error","name":"ERC2612InvalidSigner","inputs":[{"name":"signer","type":"address","internalType":"address"},{"name":"owner","type":"address","internalType":"address"}]},{"type":"error","name":"EnforcedPause","inputs":[]},{"type":"error","name":"ExceedsMaxSupply","inputs":[{"name":"requested","type":"uint256","internalType":"uint256"},{"name":"remaining","type":"uint256","internalType":"uint256"}]},{"type":"error","name":"ExpectedPause","inputs":[]},{"type":"error","name":"InvalidAccountNonce","inputs":[{"name":"account","type":"address","internalType":"address"},{"name":"currentNonce","type":"uint256","internalType":"uint256"}]},{"type":"error","name":"InvalidShortString","inputs":[]},{"type":"error","name":"MigrationAlreadyPending","inputs":[]},{"type":"error","name":"MigrationTimelockNotElapsed","inputs":[{"name":"executableAfter","type":"uint256","internalType":"uint256"},{"name":"currentTime","type":"uint256","internalType":"uint256"}]},{"type":"error","name":"MintAmountZero","inputs":[]},{"type":"error","name":"NoPendingMigration","inputs":[]},{"type":"error","name":"SameBridgeAddress","inputs":[]},{"type":"error","name":"StringTooLong","inputs":[{"name":"str","type":"string","internalType":"string"}]},{"type":"error","name":"ZeroAddress","inputs":[{"name":"param","type":"string","internalType":"string"}]}],"bytecode":{"object":"0x61016060405234801562000011575f80fd5b50604051620023e6380380620023e6833981016040819052620000349162000466565b60405180604001604052806008815260200167556c74726144414760c01b81525080604051806040016040528060018152602001603160f81b81525060405180604001604052806008815260200167556c74726144414760c01b815250604051806040016040528060048152602001635544414760e01b8152508160039081620000bf91906200053a565b506004620000ce82826200053a565b50620000e091508390506005620002d7565b61012052620000f1816006620002d7565b61014052815160208084019190912060e052815190820120610100524660a0526200017e60e05161010051604080517f8b73c3c69bb8fe3d512ecc4cf759cc79239f7b179b0ffacaa9a75d522b39400f60208201529081019290925260608201524660808201523060a08201525f9060c00160405160208183030381529060405280519060200120905090565b60805250503060c052506001600160a01b038216620001cd5760405163eac0d38960e01b815260206004820152600560248201526430b236b4b760d91b60448201526064015b60405180910390fd5b6001600160a01b0381166200020f5760405163eac0d38960e01b815260206004820152600660248201526562726964676560d01b6044820152606401620001c4565b6200021b5f836200030f565b50620002487f65d7a28e3265b37a6474929f336521b332c1681b933f6cb9f3376673440d862a836200030f565b50620002635f80516020620023c6833981519152826200030f565b506200027f5f80516020620023c68339815191525f19620003be565b60098054610100600160a81b0319166101006001600160a01b038416908102919091179091556040515f907faae9beddccf584528e87b66c6ff2563825c8a1433305b8a656e9b5f9bf390499908290a3505062000678565b5f602083511015620002f657620002ee8362000408565b905062000309565b816200030384826200053a565b5060ff90505b92915050565b5f8281526008602090815260408083206001600160a01b038516845290915281205460ff16620003b6575f8381526008602090815260408083206001600160a01b03861684529091529020805460ff191660011790556200036d3390565b6001600160a01b0316826001600160a01b0316847f2f8788117e7eff1d82e926ec794901d17c78024a50270940304540a733656f0d60405160405180910390a450600162000309565b505f62000309565b5f82815260086020526040808220600101805490849055905190918391839186917fbd79b86ffe0ab8e8776151514217cd7cacd52c909f66475c3af44e129f0b00ff9190a4505050565b5f80829050601f8151111562000435578260405163305a27a960e01b8152600401620001c4919062000606565b8051620004428262000654565b179392505050565b80516001600160a01b038116811462000461575f80fd5b919050565b5f806040838503121562000478575f80fd5b62000483836200044a565b915062000493602084016200044a565b90509250929050565b634e487b7160e01b5f52604160045260245ffd5b600181811c90821680620004c557607f821691505b602082108103620004e457634e487b7160e01b5f52602260045260245ffd5b50919050565b601f8211156200053557805f5260205f20601f840160051c81016020851015620005115750805b601f840160051c820191505b8181101562000532575f81556001016200051d565b50505b505050565b81516001600160401b038111156200055657620005566200049c565b6200056e81620005678454620004b0565b84620004ea565b602080601f831160018114620005a4575f84156200058c5750858301515b5f19600386901b1c1916600185901b178555620005fe565b5f85815260208120601f198616915b82811015620005d457888601518255948401946001909101908401620005b3565b5085821015620005f257878501515f19600388901b60f8161c191681555b505060018460011b0185555b505050505050565b5f602080835283518060208501525f5b81811015620006345785810183015185820160400152820162000616565b505f604082860101526040601f19601f8301168501019250505092915050565b80516020808301519190811015620004e4575f1960209190910360031b1b16919050565b60805160a05160c05160e051610100516101205161014051611cfc620006ca5f395f61136b01525f61133e01525f6111fd01525f6111d501525f61113001525f61115a01525f6111840152611cfc5ff3fe608060405234801561000f575f80fd5b506004361061023f575f3560e01c806383b8a5ae11610135578063b8b12a1e116100b4578063da0239a611610079578063da0239a6146104cb578063dd5d221a146104d3578063dd62ed3e14610509578063e63ab1e914610541578063f865af0814610555575f80fd5b8063b8b12a1e14610476578063be73fb6a14610489578063d505accf14610491578063d5391393146104a4578063d547741f146104b8575f80fd5b8063a217fddf116100fa578063a217fddf14610411578063a3c573eb14610418578063a9059cbb14610448578063aa271e1a1461045b578063b187bd261461046e575f80fd5b806383b8a5ae146103c057806384b0196e146103c85780638fa01117146103e357806391d14854146103f657806395d89b4114610409575f80fd5b80633644e515116101c15780636c11c21c116101865780636c11c21c146103555780636da663551461036857806370a082311461037b578063767d89b3146103a35780637ecebe00146103ad575f80fd5b80633644e5151461031457806336568abe1461031c5780633f4ba83a1461032f57806340c10f19146103375780635c975abb1461034a575f80fd5b806323b872dd1161020757806323b872dd146102af578063248a9ca3146102c25780632f2ff15d146102e4578063313ce567146102f757806332cb6b0c14610306575f80fd5b806301ffc9a71461024357806306fdde031461026b578063095ea7b31461028057806318160ddd1461029357806323abe16b146102a5575b5f80fd5b6102566102513660046118e1565b610568565b60405190151581526020015b60405180910390f35b61027361059e565b6040516102629190611952565b61025661028e36600461197f565b61062e565b6002545b604051908152602001610262565b6102ad610645565b005b6102566102bd3660046119a7565b6107b1565b6102976102d03660046119e0565b5f9081526008602052604090206001015490565b6102ad6102f23660046119f7565b6107d4565b60405160088152602001610262565b610297660775f05a07400081565b6102976107fe565b6102ad61032a3660046119f7565b61080c565b6102ad610844565b6102ad61034536600461197f565b61088b565b60095460ff16610256565b6102ad610363366004611a21565b610958565b6102ad610376366004611a3a565b6109ba565b610297610389366004611a21565b6001600160a01b03165f9081526020819052604090205490565b6102976202a30081565b6102976103bb366004611a21565b610a29565b6102ad610a46565b6103d0610aa0565b6040516102629796959493929190611aa6565b6102ad6103f1366004611a21565b610ae2565b6102566104043660046119f7565b610c16565b610273610c40565b6102975f81565b6009546104309061010090046001600160a01b031681565b6040516001600160a01b039091168152602001610262565b61025661045636600461197f565b610c4f565b610256610469366004611a21565b610c5c565b610256610c74565b6102ad6104843660046119e0565b610c81565b6102ad610cb6565b6102ad61049f366004611b3d565b610d38565b6102975f80516020611ca783398151915281565b6102ad6104c63660046119f7565b610e6e565b610297610e92565b600a54600b546104ea916001600160a01b03169082565b604080516001600160a01b039093168352602083019190915201610262565b610297610517366004611baa565b6001600160a01b039182165f90815260016020908152604080832093909416825291909152205490565b6102975f80516020611c8783398151915281565b6102ad610563366004611a21565b610ead565b5f6001600160e01b03198216637965db0b60e01b148061059857506301ffc9a760e01b6001600160e01b03198316145b92915050565b6060600380546105ad90611bd2565b80601f01602080910402602001604051908101604052809291908181526020018280546105d990611bd2565b80156106245780601f106105fb57610100808354040283529160200191610624565b820191905f5260205f20905b81548152906001019060200180831161060757829003601f168201915b5050505050905090565b5f3361063b818585610ece565b5060019392505050565b5f61064f81610edb565b610657610ee5565b60408051808201909152600a546001600160a01b0316808252600b5460208301526106955760405163f0c16f1960e01b815260040160405180910390fd5b80602001514210156106ce57602081015160405163e229e72560e01b815260048101919091524260248201526044015b60405180910390fd5b60095461010090046001600160a01b03166106f65f80516020611ca78339815191525f610f0b565b61070d5f80516020611ca783398151915282610f55565b506107285f80516020611ca7833981519152835f0151610fc7565b506107415f80516020611ca78339815191525f19610f0b565b815160098054610100600160a81b0319166101006001600160a01b0393841690810291909117909155600a80546001600160a01b03191690555f600b81905560405191928416917faae9beddccf584528e87b66c6ff2563825c8a1433305b8a656e9b5f9bf3904999190a3505050565b5f336107be858285611051565b6107c98585856110c7565b506001949350505050565b5f828152600860205260409020600101546107ee81610edb565b6107f88383610fc7565b50505050565b5f610807611124565b905090565b6001600160a01b03811633146108355760405163334bd91960e11b815260040160405180910390fd5b61083f8282610f55565b505050565b5f61084e81610edb565b61085661124d565b61085e611270565b60405133907f306ca22c455fe433ebbf0542bbf947ea6a725495f9e1043db2a47e3c57940385905f90a250565b5f80516020611ca78339815191526108a281610edb565b6108aa610ee5565b6001600160a01b0383166108e65760405163eac0d38960e01b8152602060048201526002602482015261746f60f01b60448201526064016106c5565b815f0361090657604051631cebf66f60e11b815260040160405180910390fd5b5f61091060025490565b61092190660775f05a074000611c1e565b90508083111561094e5760405163adc3cee560e01b815260048101849052602481018290526044016106c5565b6107f884846112c2565b5f61096281610edb565b6001600160a01b0382166109a35760405163eac0d38960e01b81526020600482015260076024820152661858d8dbdd5b9d60ca1b60448201526064016106c5565b61083f5f80516020611c8783398151915283610fc7565b5f80516020611c878339815191526109d181610edb565b6109d9610ee5565b6109e16112fa565b336001600160a01b03167fc50068396f19981cb0435611d2c97dde7b6882fdc3185a9fb8080fa756b3974d8484604051610a1c929190611c31565b60405180910390a2505050565b6001600160a01b0381165f90815260076020526040812054610598565b5f610a5081610edb565b610a5a5f33610f55565b50610a725f80516020611c8783398151915233610f55565b5060405133907f6c075372e489d1c7e017c8ad18285fcfba69b89fa5987060313cd65b33340fa3905f90a250565b5f6060805f805f6060610ab1611337565b610ab9611364565b604080515f80825260208201909252600f60f81b9b939a50919850469750309650945092509050565b5f610aec81610edb565b610af4610ee5565b6001600160a01b038216610b375760405163eac0d38960e01b81526020600482015260096024820152686e657742726964676560b81b60448201526064016106c5565b6009546001600160a01b03610100909104811690831603610b6b576040516309fd9ab760e11b815260040160405180910390fd5b600a546001600160a01b031615610b9857604051600162c2546160e01b0319815260040160405180910390fd5b5f610ba66202a30042611c5f565b6040805180820182526001600160a01b0386168082526020918201849052600a80546001600160a01b03191682179055600b849055915183815292935033927f02c1831b05d76210ad42e2d1abd98c9fb8a705d165d06e85b59bb8d4dae2a20391015b60405180910390a3505050565b5f9182526008602090815260408084206001600160a01b0393909316845291905290205460ff1690565b6060600480546105ad90611bd2565b5f3361063b8185856110c7565b5f6105985f80516020611ca783398151915283610c16565b5f61080760095460ff1690565b610c89610ee5565b805f03610ca9576040516342b7033760e01b815260040160405180910390fd5b610cb33382611391565b50565b5f610cc081610edb565b600a546001600160a01b031680610cea5760405163f0c16f1960e01b815260040160405180910390fd5b600a80546001600160a01b03191690555f600b81905560405133916001600160a01b038416917f5d1e9c3426e9de910be924e7661dbd6b2b05ee3c33ffa28bfdba326a991ba05b9190a35050565b83421115610d5c5760405163313c898160e11b8152600481018590526024016106c5565b5f7f6e71edae12b1b97f4d1f60370fef10105fa2faae0126114a169c64845d6126c9888888610da78c6001600160a01b03165f90815260076020526040902080546001810190915590565b6040805160208101969096526001600160a01b0394851690860152929091166060840152608083015260a082015260c0810186905260e0016040516020818303038152906040528051906020012090505f610e01826113c5565b90505f610e10828787876113f1565b9050896001600160a01b0316816001600160a01b031614610e57576040516325c0072360e11b81526001600160a01b0380831660048301528b1660248201526044016106c5565b610e628a8a8a610ece565b50505050505050505050565b5f82815260086020526040902060010154610e8881610edb565b6107f88383610f55565b5f610e9c60025490565b61080790660775f05a074000611c1e565b5f610eb781610edb565b61083f5f80516020611c8783398151915283610f55565b61083f838383600161141d565b610cb381336114ef565b60095460ff1615610f095760405163d93c066560e01b815260040160405180910390fd5b565b5f82815260086020526040808220600101805490849055905190918391839186917fbd79b86ffe0ab8e8776151514217cd7cacd52c909f66475c3af44e129f0b00ff9190a4505050565b5f610f608383610c16565b15610fc0575f8381526008602090815260408083206001600160a01b0386168085529252808320805460ff1916905551339286917ff6391f5c32d9c69d2a47ea670b442974b53935d1edc7fd64eb21e047a839171b9190a4506001610598565b505f610598565b5f610fd28383610c16565b610fc0575f8381526008602090815260408083206001600160a01b03861684529091529020805460ff191660011790556110093390565b6001600160a01b0316826001600160a01b0316847f2f8788117e7eff1d82e926ec794901d17c78024a50270940304540a733656f0d60405160405180910390a4506001610598565b6001600160a01b038381165f908152600160209081526040808320938616835292905220545f198110156107f857818110156110b957604051637dc7a0d960e11b81526001600160a01b038416600482015260248101829052604481018390526064016106c5565b6107f884848484035f61141d565b6001600160a01b0383166110f057604051634b637e8f60e11b81525f60048201526024016106c5565b6001600160a01b0382166111195760405163ec442f0560e01b81525f60048201526024016106c5565b61083f838383611528565b5f306001600160a01b037f00000000000000000000000000000000000000000000000000000000000000001614801561117c57507f000000000000000000000000000000000000000000000000000000000000000046145b156111a657507f000000000000000000000000000000000000000000000000000000000000000090565b610807604080517f8b73c3c69bb8fe3d512ecc4cf759cc79239f7b179b0ffacaa9a75d522b39400f60208201527f0000000000000000000000000000000000000000000000000000000000000000918101919091527f000000000000000000000000000000000000000000000000000000000000000060608201524660808201523060a08201525f9060c00160405160208183030381529060405280519060200120905090565b60095460ff16610f0957604051638dfc202b60e01b815260040160405180910390fd5b61127861124d565b6009805460ff191690557f5db9ee0a495bf2e6ff9c91a7834c1ba4fdd244a5e8aa4e537bd38aeae4b073aa335b6040516001600160a01b03909116815260200160405180910390a1565b6001600160a01b0382166112eb5760405163ec442f0560e01b81525f60048201526024016106c5565b6112f65f8383611528565b5050565b611302610ee5565b6009805460ff191660011790557f62e78cea01bee320cd4e420270b5ea74000d11b0c9f74754ebdbfc544b05a2586112a53390565b60606108077f0000000000000000000000000000000000000000000000000000000000000000600561153b565b60606108077f0000000000000000000000000000000000000000000000000000000000000000600661153b565b6001600160a01b0382166113ba57604051634b637e8f60e11b81525f60048201526024016106c5565b6112f6825f83611528565b5f6105986113d1611124565b8360405161190160f01b8152600281019290925260228201526042902090565b5f805f80611401888888886115e4565b92509250925061141182826116ac565b50909695505050505050565b6001600160a01b0384166114465760405163e602df0560e01b81525f60048201526024016106c5565b6001600160a01b03831661146f57604051634a1406b160e11b81525f60048201526024016106c5565b6001600160a01b038085165f90815260016020908152604080832093871683529290522082905580156107f857826001600160a01b0316846001600160a01b03167f8c5be1e5ebec7d5bd14f71427d1e84f3dd0314c0f7b2291e5b200ac8c7c3b925846040516114e191815260200190565b60405180910390a350505050565b6114f98282610c16565b6112f65760405163e2517d3f60e01b81526001600160a01b0382166004820152602481018390526044016106c5565b611530610ee5565b61083f838383611764565b606060ff83146115555761154e8361187d565b9050610598565b81805461156190611bd2565b80601f016020809104026020016040519081016040528092919081815260200182805461158d90611bd2565b80156115d85780601f106115af576101008083540402835291602001916115d8565b820191905f5260205f20905b8154815290600101906020018083116115bb57829003601f168201915b50505050509050610598565b5f80807f7fffffffffffffffffffffffffffffff5d576e7357a4501ddfe92f46681b20a084111561161d57505f915060039050826116a2565b604080515f808252602082018084528a905260ff891692820192909252606081018790526080810186905260019060a0016020604051602081039080840390855afa15801561166e573d5f803e3d5ffd5b5050604051601f1901519150506001600160a01b03811661169957505f9250600191508290506116a2565b92505f91508190505b9450945094915050565b5f8260038111156116bf576116bf611c72565b036116c8575050565b60018260038111156116dc576116dc611c72565b036116fa5760405163f645eedf60e01b815260040160405180910390fd5b600282600381111561170e5761170e611c72565b0361172f5760405163fce698f760e01b8152600481018290526024016106c5565b600382600381111561174357611743611c72565b036112f6576040516335e2f38360e21b8152600481018290526024016106c5565b6001600160a01b03831661178e578060025f8282546117839190611c5f565b909155506117fe9050565b6001600160a01b0383165f90815260208190526040902054818110156117e05760405163391434e360e21b81526001600160a01b038516600482015260248101829052604481018390526064016106c5565b6001600160a01b0384165f9081526020819052604090209082900390555b6001600160a01b03821661181a57600280548290039055611838565b6001600160a01b0382165f9081526020819052604090208054820190555b816001600160a01b0316836001600160a01b03167fddf252ad1be2c89b69c2b068fc378daa952ba7f163c4a11628f55a4df523b3ef83604051610c0991815260200190565b60605f611889836118ba565b6040805160208082528183019092529192505f91906020820181803683375050509182525060208101929092525090565b5f60ff8216601f81111561059857604051632cd44ac360e21b815260040160405180910390fd5b5f602082840312156118f1575f80fd5b81356001600160e01b031981168114611908575f80fd5b9392505050565b5f81518084525f5b8181101561193357602081850181015186830182015201611917565b505f602082860101526020601f19601f83011685010191505092915050565b602081525f611908602083018461190f565b80356001600160a01b038116811461197a575f80fd5b919050565b5f8060408385031215611990575f80fd5b61199983611964565b946020939093013593505050565b5f805f606084860312156119b9575f80fd5b6119c284611964565b92506119d060208501611964565b9150604084013590509250925092565b5f602082840312156119f0575f80fd5b5035919050565b5f8060408385031215611a08575f80fd5b82359150611a1860208401611964565b90509250929050565b5f60208284031215611a31575f80fd5b61190882611964565b5f8060208385031215611a4b575f80fd5b823567ffffffffffffffff80821115611a62575f80fd5b818501915085601f830112611a75575f80fd5b813581811115611a83575f80fd5b866020828501011115611a94575f80fd5b60209290920196919550909350505050565b60ff60f81b881681525f602060e06020840152611ac660e084018a61190f565b8381036040850152611ad8818a61190f565b606085018990526001600160a01b038816608086015260a0850187905284810360c0860152855180825260208088019350909101905f5b81811015611b2b57835183529284019291840191600101611b0f565b50909c9b505050505050505050505050565b5f805f805f805f60e0888a031215611b53575f80fd5b611b5c88611964565b9650611b6a60208901611964565b95506040880135945060608801359350608088013560ff81168114611b8d575f80fd5b9699959850939692959460a0840135945060c09093013592915050565b5f8060408385031215611bbb575f80fd5b611bc483611964565b9150611a1860208401611964565b600181811c90821680611be657607f821691505b602082108103611c0457634e487b7160e01b5f52602260045260245ffd5b50919050565b634e487b7160e01b5f52601160045260245ffd5b8181038181111561059857610598611c0a565b60208152816020820152818360408301375f818301604090810191909152601f909201601f19160101919050565b8082018082111561059857610598611c0a565b634e487b7160e01b5f52602160045260245ffdfe65d7a28e3265b37a6474929f336521b332c1681b933f6cb9f3376673440d862a9f2df0fed2c77648de5860a4cc508cd0818c85b8b8a1ab4ceeef8d981c8956a6a26469706673582212208e8dc56bc61735ee68a56cd43704bb3efe6d67a4125f7e2bfe8c08aa90a96ab664736f6c634300081800339f2df0fed2c77648de5860a4cc508cd0818c85b8b8a1ab4ceeef8d981c8956a6","linkReferences":{}},"methodIdentifiers":{"BRIDGE_MIGRATION_DELAY()":"767d89b3","DEFAULT_ADMIN_ROLE()":"a217fddf","DOMAIN_SEPARATOR()":"3644e515","MAX_SUPPLY()":"32cb6b0c","MINTER_ROLE()":"d5391393","PAUSER_ROLE()":"e63ab1e9","allowance(address,address)":"dd62ed3e","approve(address,uint256)":"095ea7b3","balanceOf(address)":"70a08231","bridgeAddress()":"a3c573eb","burnSelf(uint256)":"b8b12a1e","cancelBridgeMigration()":"be73fb6a","decimals()":"313ce567","eip712Domain()":"84b0196e","executeBridgeMigration()":"23abe16b","getRoleAdmin(bytes32)":"248a9ca3","grantPauserRole(address)":"6c11c21c","grantRole(bytes32,address)":"2f2ff15d","hasRole(bytes32,address)":"91d14854","isMinter(address)":"aa271e1a","isPaused()":"b187bd26","mint(address,uint256)":"40c10f19","name()":"06fdde03","nonces(address)":"7ecebe00","pause(string)":"6da66355","paused()":"5c975abb","pendingBridgeMigration()":"dd5d221a","permit(address,address,uint256,uint256,uint8,bytes32,bytes32)":"d505accf","proposeBridgeMigration(address)":"8fa01117","remainingSupply()":"da0239a6","renounceAdminRole()":"83b8a5ae","renounceRole(bytes32,address)":"36568abe","revokePauserRole(address)":"f865af08","revokeRole(bytes32,address)":"d547741f","supportsInterface(bytes4)":"01ffc9a7","symbol()":"95d89b41","totalSupply()":"18160ddd","transfer(address,uint256)":"a9059cbb","transferFrom(address,address,uint256)":"23b872dd","unpause()":"3f4ba83a"},"id":61}