{"abi":[{"type":"constructor","inputs":[{"name":"admin","type":"address","internalType":"address"}],"stateMutability":"nonpayable"},{"type":"function","name":"BURNER_ROLE","inputs":[],"outputs":[{"name":"","type":"bytes32","internalType":"bytes32"}],"stateMutability":"view"},{"type":"function","name":"DEFAULT_ADMIN_ROLE","inputs":[],"outputs":[{"name":"","type":"bytes32","internalType":"bytes32"}],"stateMutability":"view"},{"type":"function","name":"DOMAIN_SEPARATOR","inputs":[],"outputs":[{"name":"","type":"bytes32","internalType":"bytes32"}],"stateMutability":"view"},{"type":"function","name":"MAX_SUPPLY","inputs":[],"outputs":[{"name":"","type":"uint256","internalType":"uint256"}],"stateMutability":"view"},{"type":"function","name":"MINTER_ROLE","inputs":[],"outputs":[{"name":"","type":"bytes32","internalType":"bytes32"}],"stateMutability":"view"},{"type":"function","name":"allowance","inputs":[{"name":"owner","type":"address","internalType":"address"},{"name":"spender","type":"address","internalType":"address"}],"outputs":[{"name":"","type":"uint256","internalType":"uint256"}],"stateMutability":"view"},{"type":"function","name":"approve","inputs":[{"name":"spender","type":"address","internalType":"address"},{"name":"value","type":"uint256","internalType":"uint256"}],"outputs":[{"name":"","type":"bool","internalType":"bool"}],"stateMutability":"nonpayable"},{"type":"function","name":"balanceOf","inputs":[{"name":"account","type":"address","internalType":"address"}],"outputs":[{"name":"","type":"uint256","internalType":"uint256"}],"stateMutability":"view"},{"type":"function","name":"burn","inputs":[{"name":"from","type":"address","internalType":"address"},{"name":"amount","type":"uint256","internalType":"uint256"}],"outputs":[],"stateMutability":"nonpayable"},{"type":"function","name":"burnSelf","inputs":[{"name":"amount","type":"uint256","internalType":"uint256"}],"outputs":[],"stateMutability":"nonpayable"},{"type":"function","name":"decimals","inputs":[],"outputs":[{"name":"","type":"uint8","internalType":"uint8"}],"stateMutability":"pure"},{"type":"function","name":"eip712Domain","inputs":[],"outputs":[{"name":"fields","type":"bytes1","internalType":"bytes1"},{"name":"name","type":"string","internalType":"string"},{"name":"version","type":"string","internalType":"string"},{"name":"chainId","type":"uint256","internalType":"uint256"},{"name":"verifyingContract","type":"address","internalType":"address"},{"name":"salt","type":"bytes32","internalType":"bytes32"},{"name":"extensions","type":"uint256[]","internalType":"uint256[]"}],"stateMutability":"view"},{"type":"function","name":"finalizeGenesis","inputs":[],"outputs":[],"stateMutability":"nonpayable"},{"type":"function","name":"genesisFinalized","inputs":[],"outputs":[{"name":"","type":"bool","internalType":"bool"}],"stateMutability":"view"},{"type":"function","name":"getRoleAdmin","inputs":[{"name":"role","type":"bytes32","internalType":"bytes32"}],"outputs":[{"name":"","type":"bytes32","internalType":"bytes32"}],"stateMutability":"view"},{"type":"function","name":"grantRole","inputs":[{"name":"role","type":"bytes32","internalType":"bytes32"},{"name":"account","type":"address","internalType":"address"}],"outputs":[],"stateMutability":"nonpayable"},{"type":"function","name":"hasRole","inputs":[{"name":"role","type":"bytes32","internalType":"bytes32"},{"name":"account","type":"address","internalType":"address"}],"outputs":[{"name":"","type":"bool","internalType":"bool"}],"stateMutability":"view"},{"type":"function","name":"mint","inputs":[{"name":"to","type":"address","internalType":"address"},{"name":"amount","type":"uint256","internalType":"uint256"}],"outputs":[],"stateMutability":"nonpayable"},{"type":"function","name":"name","inputs":[],"outputs":[{"name":"","type":"string","internalType":"string"}],"stateMutability":"view"},{"type":"function","name":"nonces","inputs":[{"name":"owner","type":"address","internalType":"address"}],"outputs":[{"name":"","type":"uint256","internalType":"uint256"}],"stateMutability":"view"},{"type":"function","name":"permit","inputs":[{"name":"owner","type":"address","internalType":"address"},{"name":"spender","type":"address","internalType":"address"},{"name":"value","type":"uint256","internalType":"uint256"},{"name":"deadline","type":"uint256","internalType":"uint256"},{"name":"v","type":"uint8","internalType":"uint8"},{"name":"r","type":"bytes32","internalType":"bytes32"},{"name":"s","type":"bytes32","internalType":"bytes32"}],"outputs":[],"stateMutability":"nonpayable"},{"type":"function","name":"renounceRole","inputs":[{"name":"role","type":"bytes32","internalType":"bytes32"},{"name":"callerConfirmation","type":"address","internalType":"address"}],"outputs":[],"stateMutability":"nonpayable"},{"type":"function","name":"revokeRole","inputs":[{"name":"role","type":"bytes32","internalType":"bytes32"},{"name":"account","type":"address","internalType":"address"}],"outputs":[],"stateMutability":"nonpayable"},{"type":"function","name":"supportsInterface","inputs":[{"name":"interfaceId","type":"bytes4","internalType":"bytes4"}],"outputs":[{"name":"","type":"bool","internalType":"bool"}],"stateMutability":"view"},{"type":"function","name":"symbol","inputs":[],"outputs":[{"name":"","type":"string","internalType":"string"}],"stateMutability":"view"},{"type":"function","name":"totalSupply","inputs":[],"outputs":[{"name":"","type":"uint256","internalType":"uint256"}],"stateMutability":"view"},{"type":"function","name":"transfer","inputs":[{"name":"to","type":"address","internalType":"address"},{"name":"value","type":"uint256","internalType":"uint256"}],"outputs":[{"name":"","type":"bool","internalType":"bool"}],"stateMutability":"nonpayable"},{"type":"function","name":"transferFrom","inputs":[{"name":"from","type":"address","internalType":"address"},{"name":"to","type":"address","internalType":"address"},{"name":"value","type":"uint256","internalType":"uint256"}],"outputs":[{"name":"","type":"bool","internalType":"bool"}],"stateMutability":"nonpayable"},{"type":"event","name":"Approval","inputs":[{"name":"owner","type":"address","indexed":true,"internalType":"address"},{"name":"spender","type":"address","indexed":true,"internalType":"address"},{"name":"value","type":"uint256","indexed":false,"internalType":"uint256"}],"anonymous":false},{"type":"event","name":"EIP712DomainChanged","inputs":[],"anonymous":false},{"type":"event","name":"GenesisFinalized","inputs":[{"name":"totalSupply","type":"uint256","indexed":false,"internalType":"uint256"}],"anonymous":false},{"type":"event","name":"RoleAdminChanged","inputs":[{"name":"role","type":"bytes32","indexed":true,"internalType":"bytes32"},{"name":"previousAdminRole","type":"bytes32","indexed":true,"internalType":"bytes32"},{"name":"newAdminRole","type":"bytes32","indexed":true,"internalType":"bytes32"}],"anonymous":false},{"type":"event","name":"RoleGranted","inputs":[{"name":"role","type":"bytes32","indexed":true,"internalType":"bytes32"},{"name":"account","type":"address","indexed":true,"internalType":"address"},{"name":"sender","type":"address","indexed":true,"internalType":"address"}],"anonymous":false},{"type":"event","name":"RoleRevoked","inputs":[{"name":"role","type":"bytes32","indexed":true,"internalType":"bytes32"},{"name":"account","type":"address","indexed":true,"internalType":"address"},{"name":"sender","type":"address","indexed":true,"internalType":"address"}],"anonymous":false},{"type":"event","name":"Transfer","inputs":[{"name":"from","type":"address","indexed":true,"internalType":"address"},{"name":"to","type":"address","indexed":true,"internalType":"address"},{"name":"value","type":"uint256","indexed":false,"internalType":"uint256"}],"anonymous":false},{"type":"error","name":"AccessControlBadConfirmation","inputs":[]},{"type":"error","name":"AccessControlUnauthorizedAccount","inputs":[{"name":"account","type":"address","internalType":"address"},{"name":"neededRole","type":"bytes32","internalType":"bytes32"}]},{"type":"error","name":"ECDSAInvalidSignature","inputs":[]},{"type":"error","name":"ECDSAInvalidSignatureLength","inputs":[{"name":"length","type":"uint256","internalType":"uint256"}]},{"type":"error","name":"ECDSAInvalidSignatureS","inputs":[{"name":"s","type":"bytes32","internalType":"bytes32"}]},{"type":"error","name":"ERC20InsufficientAllowance","inputs":[{"name":"spender","type":"address","internalType":"address"},{"name":"allowance","type":"uint256","internalType":"uint256"},{"name":"needed","type":"uint256","internalType":"uint256"}]},{"type":"error","name":"ERC20InsufficientBalance","inputs":[{"name":"sender","type":"address","internalType":"address"},{"name":"balance","type":"uint256","internalType":"uint256"},{"name":"needed","type":"uint256","internalType":"uint256"}]},{"type":"error","name":"ERC20InvalidApprover","inputs":[{"name":"approver","type":"address","internalType":"address"}]},{"type":"error","name":"ERC20InvalidReceiver","inputs":[{"name":"receiver","type":"address","internalType":"address"}]},{"type":"error","name":"ERC20InvalidSender","inputs":[{"name":"sender","type":"address","internalType":"address"}]},{"type":"error","name":"ERC20InvalidSpender","inputs":[{"name":"spender","type":"address","internalType":"address"}]},{"type":"error","name":"ERC2612ExpiredSignature","inputs":[{"name":"deadline","type":"uint256","internalType":"uint256"}]},{"type":"error","name":"ERC2612InvalidSigner","inputs":[{"name":"signer","type":"address","internalType":"address"},{"name":"owner","type":"address","internalType":"address"}]},{"type":"error","name":"InvalidAccountNonce","inputs":[{"name":"account","type":"address","internalType":"address"},{"name":"currentNonce","type":"uint256","internalType":"uint256"}]},{"type":"error","name":"InvalidShortString","inputs":[]},{"type":"error","name":"StringTooLong","inputs":[{"name":"str","type":"string","internalType":"string"}]}],"bytecode":{"object":"0x61016060405234801562000011575f80fd5b5060405162001ac638038062001ac68339810160408190526200003491620002fb565b60405180604001604052806008815260200167556c74726144414760c01b81525080604051806040016040528060018152602001603160f81b81525060405180604001604052806008815260200167556c74726144414760c01b815250604051806040016040528060048152602001635544414760e01b8152508160039081620000bf9190620003c8565b506004620000ce8282620003c8565b50620000e091508390506005620001c9565b61012052620000f1816006620001c9565b61014052815160208084019190912060e052815190820120610100524660a0526200017e60e05161010051604080517f8b73c3c69bb8fe3d512ecc4cf759cc79239f7b179b0ffacaa9a75d522b39400f60208201529081019290925260608201524660808201523060a08201525f9060c00160405160208183030381529060405280519060200120905090565b60805250503060c05250620001945f8262000201565b50620001c17f9f2df0fed2c77648de5860a4cc508cd0818c85b8b8a1ab4ceeef8d981c8956a68262000201565b505062000506565b5f602083511015620001e857620001e083620002b0565b9050620001fb565b81620001f58482620003c8565b5060ff90505b92915050565b5f8281526008602090815260408083206001600160a01b038516845290915281205460ff16620002a8575f8381526008602090815260408083206001600160a01b03861684529091529020805460ff191660011790556200025f3390565b6001600160a01b0316826001600160a01b0316847f2f8788117e7eff1d82e926ec794901d17c78024a50270940304540a733656f0d60405160405180910390a4506001620001fb565b505f620001fb565b5f80829050601f81511115620002e6578260405163305a27a960e01b8152600401620002dd919062000494565b60405180910390fd5b8051620002f382620004e2565b179392505050565b5f602082840312156200030c575f80fd5b81516001600160a01b038116811462000323575f80fd5b9392505050565b634e487b7160e01b5f52604160045260245ffd5b600181811c908216806200035357607f821691505b6020821081036200037257634e487b7160e01b5f52602260045260245ffd5b50919050565b601f821115620003c357805f5260205f20601f840160051c810160208510156200039f5750805b601f840160051c820191505b81811015620003c0575f8155600101620003ab565b50505b505050565b81516001600160401b03811115620003e457620003e46200032a565b620003fc81620003f584546200033e565b8462000378565b602080601f83116001811462000432575f84156200041a5750858301515b5f19600386901b1c1916600185901b1785556200048c565b5f85815260208120601f198616915b82811015620004625788860151825594840194600190910190840162000441565b50858210156200048057878501515f19600388901b60f8161c191681555b505060018460011b0185555b505050505050565b5f602080835283518060208501525f5b81811015620004c257858101830151858201604001528201620004a4565b505f604082860101526040601f19601f8301168501019250505092915050565b8051602080830151919081101562000372575f1960209190910360031b1b16919050565b60805160a05160c05160e05161010051610120516101405161156e620005585f395f610cd801525f610cab01525f610bb101525f610b8901525f610ae401525f610b0e01525f610b38015261156e5ff3fe608060405234801561000f575f80fd5b50600436106101bb575f3560e01c806370a08231116100f3578063a217fddf11610093578063d505accf1161006e578063d505accf146103a3578063d5391393146103b6578063d547741f146103dd578063dd62ed3e146103f0575f80fd5b8063a217fddf14610376578063a9059cbb1461037d578063b8b12a1e14610390575f80fd5b806385758cc7116100ce57806385758cc71461034057806391d148541461034857806395d89b411461035b5780639dc29fac14610363575f80fd5b806370a08231146102ea5780637ecebe001461031257806384b0196e14610325575f80fd5b80632f2ff15d1161015e5780633644e515116101395780633644e515146102af57806336568abe146102b757806340c10f19146102ca5780634421d5f5146102dd575f80fd5b80632f2ff15d1461027d578063313ce5671461029257806332cb6b0c146102a1575f80fd5b806318160ddd1161019957806318160ddd1461020f57806323b872dd14610221578063248a9ca314610234578063282c51f314610256575f80fd5b806301ffc9a7146101bf57806306fdde03146101e7578063095ea7b3146101fc575b5f80fd5b6101d26101cd366004611248565b610428565b60405190151581526020015b60405180910390f35b6101ef61045e565b6040516101de91906112b9565b6101d261020a3660046112e6565b6104ee565b6002545b6040519081526020016101de565b6101d261022f36600461130e565b610505565b610213610242366004611347565b5f9081526008602052604090206001015490565b6102137f3c11d16cbaffd01df69ce1c404f6340ee057498f5f00246190ea54220576a84881565b61029061028b36600461135e565b610528565b005b604051600881526020016101de565b610213660775f05a07400081565b610213610552565b6102906102c536600461135e565b610560565b6102906102d83660046112e6565b610598565b6009546101d29060ff1681565b6102136102f8366004611388565b6001600160a01b03165f9081526020819052604090205490565b610213610320366004611388565b61063b565b61032d610658565b6040516101de97969594939291906113a1565b61029061069a565b6101d261035636600461135e565b610761565b6101ef61078b565b6102906103713660046112e6565b61079a565b6102135f81565b6101d261038b3660046112e6565b6107e9565b61029061039e366004611347565b6107f6565b6102906103b1366004611438565b610803565b6102137f9f2df0fed2c77648de5860a4cc508cd0818c85b8b8a1ab4ceeef8d981c8956a681565b6102906103eb36600461135e565b610939565b6102136103fe3660046114a5565b6001600160a01b039182165f90815260016020908152604080832093909416825291909152205490565b5f6001600160e01b03198216637965db0b60e01b148061045857506301ffc9a760e01b6001600160e01b03198316145b92915050565b60606003805461046d906114cd565b80601f0160208091040260200160405190810160405280929190818152602001828054610499906114cd565b80156104e45780601f106104bb576101008083540402835291602001916104e4565b820191905f5260205f20905b8154815290600101906020018083116104c757829003601f168201915b5050505050905090565b5f336104fb81858561095d565b5060019392505050565b5f3361051285828561096a565b61051d8585856109e0565b506001949350505050565b5f8281526008602052604090206001015461054281610a3d565b61054c8383610a47565b50505050565b5f61055b610ad8565b905090565b6001600160a01b03811633146105895760405163334bd91960e11b815260040160405180910390fd5b6105938282610c01565b505050565b7f9f2df0fed2c77648de5860a4cc508cd0818c85b8b8a1ab4ceeef8d981c8956a66105c281610a3d565b660775f05a074000826105d460025490565b6105de9190611505565b11156106315760405162461bcd60e51b815260206004820152601860248201527f554441473a2065786365656473206d617820737570706c79000000000000000060448201526064015b60405180910390fd5b6105938383610c6c565b6001600160a01b0381165f90815260076020526040812054610458565b5f6060805f805f6060610669610ca4565b610671610cd1565b604080515f80825260208201909252600f60f81b9b939a50919850469750309650945092509050565b5f6106a481610a3d565b60095460ff16156106eb5760405162461bcd60e51b8152602060048201526011602482015270185b1c9958591e48199a5b985b1a5e9959607a1b6044820152606401610628565b6009805460ff191660011790556107227f9f2df0fed2c77648de5860a4cc508cd0818c85b8b8a1ab4ceeef8d981c8956a633610c01565b507f87f41ee3facb6317b1c2811e539539ac1693525b4460699b4245e8aac9f590cb61074d60025490565b60405190815260200160405180910390a150565b5f9182526008602090815260408084206001600160a01b0393909316845291905290205460ff1690565b60606004805461046d906114cd565b7f3c11d16cbaffd01df69ce1c404f6340ee057498f5f00246190ea54220576a8486107c481610a3d565b6001600160a01b03831633146107df576107df83338461096a565b6105938383610cfe565b5f336104fb8185856109e0565b6108003382610cfe565b50565b834211156108275760405163313c898160e11b815260048101859052602401610628565b5f7f6e71edae12b1b97f4d1f60370fef10105fa2faae0126114a169c64845d6126c98888886108728c6001600160a01b03165f90815260076020526040902080546001810190915590565b6040805160208101969096526001600160a01b0394851690860152929091166060840152608083015260a082015260c0810186905260e0016040516020818303038152906040528051906020012090505f6108cc82610d32565b90505f6108db82878787610d5e565b9050896001600160a01b0316816001600160a01b031614610922576040516325c0072360e11b81526001600160a01b0380831660048301528b166024820152604401610628565b61092d8a8a8a61095d565b50505050505050505050565b5f8281526008602052604090206001015461095381610a3d565b61054c8383610c01565b6105938383836001610d8a565b6001600160a01b038381165f908152600160209081526040808320938616835292905220545f1981101561054c57818110156109d257604051637dc7a0d960e11b81526001600160a01b03841660048201526024810182905260448101839052606401610628565b61054c84848484035f610d8a565b6001600160a01b038316610a0957604051634b637e8f60e11b81525f6004820152602401610628565b6001600160a01b038216610a325760405163ec442f0560e01b81525f6004820152602401610628565b610593838383610e5c565b6108008133610f82565b5f610a528383610761565b610ad1575f8381526008602090815260408083206001600160a01b03861684529091529020805460ff19166001179055610a893390565b6001600160a01b0316826001600160a01b0316847f2f8788117e7eff1d82e926ec794901d17c78024a50270940304540a733656f0d60405160405180910390a4506001610458565b505f610458565b5f306001600160a01b037f000000000000000000000000000000000000000000000000000000000000000016148015610b3057507f000000000000000000000000000000000000000000000000000000000000000046145b15610b5a57507f000000000000000000000000000000000000000000000000000000000000000090565b61055b604080517f8b73c3c69bb8fe3d512ecc4cf759cc79239f7b179b0ffacaa9a75d522b39400f60208201527f0000000000000000000000000000000000000000000000000000000000000000918101919091527f000000000000000000000000000000000000000000000000000000000000000060608201524660808201523060a08201525f9060c00160405160208183030381529060405280519060200120905090565b5f610c0c8383610761565b15610ad1575f8381526008602090815260408083206001600160a01b0386168085529252808320805460ff1916905551339286917ff6391f5c32d9c69d2a47ea670b442974b53935d1edc7fd64eb21e047a839171b9190a4506001610458565b6001600160a01b038216610c955760405163ec442f0560e01b81525f6004820152602401610628565b610ca05f8383610e5c565b5050565b606061055b7f00000000000000000000000000000000000000000000000000000000000000006005610fbb565b606061055b7f00000000000000000000000000000000000000000000000000000000000000006006610fbb565b6001600160a01b038216610d2757604051634b637e8f60e11b81525f6004820152602401610628565b610ca0825f83610e5c565b5f610458610d3e610ad8565b8360405161190160f01b8152600281019290925260228201526042902090565b5f805f80610d6e88888888611064565b925092509250610d7e828261112c565b50909695505050505050565b6001600160a01b038416610db35760405163e602df0560e01b81525f6004820152602401610628565b6001600160a01b038316610ddc57604051634a1406b160e11b81525f6004820152602401610628565b6001600160a01b038085165f908152600160209081526040808320938716835292905220829055801561054c57826001600160a01b0316846001600160a01b03167f8c5be1e5ebec7d5bd14f71427d1e84f3dd0314c0f7b2291e5b200ac8c7c3b92584604051610e4e91815260200190565b60405180910390a350505050565b6001600160a01b038316610e86578060025f828254610e7b9190611505565b90915550610ef69050565b6001600160a01b0383165f9081526020819052604090205481811015610ed85760405163391434e360e21b81526001600160a01b03851660048201526024810182905260448101839052606401610628565b6001600160a01b0384165f9081526020819052604090209082900390555b6001600160a01b038216610f1257600280548290039055610f30565b6001600160a01b0382165f9081526020819052604090208054820190555b816001600160a01b0316836001600160a01b03167fddf252ad1be2c89b69c2b068fc378daa952ba7f163c4a11628f55a4df523b3ef83604051610f7591815260200190565b60405180910390a3505050565b610f8c8282610761565b610ca05760405163e2517d3f60e01b81526001600160a01b038216600482015260248101839052604401610628565b606060ff8314610fd557610fce836111e4565b9050610458565b818054610fe1906114cd565b80601f016020809104026020016040519081016040528092919081815260200182805461100d906114cd565b80156110585780601f1061102f57610100808354040283529160200191611058565b820191905f5260205f20905b81548152906001019060200180831161103b57829003601f168201915b50505050509050610458565b5f80807f7fffffffffffffffffffffffffffffff5d576e7357a4501ddfe92f46681b20a084111561109d57505f91506003905082611122565b604080515f808252602082018084528a905260ff891692820192909252606081018790526080810186905260019060a0016020604051602081039080840390855afa1580156110ee573d5f803e3d5ffd5b5050604051601f1901519150506001600160a01b03811661111957505f925060019150829050611122565b92505f91508190505b9450945094915050565b5f82600381111561113f5761113f611524565b03611148575050565b600182600381111561115c5761115c611524565b0361117a5760405163f645eedf60e01b815260040160405180910390fd5b600282600381111561118e5761118e611524565b036111af5760405163fce698f760e01b815260048101829052602401610628565b60038260038111156111c3576111c3611524565b03610ca0576040516335e2f38360e21b815260048101829052602401610628565b60605f6111f083611221565b6040805160208082528183019092529192505f91906020820181803683375050509182525060208101929092525090565b5f60ff8216601f81111561045857604051632cd44ac360e21b815260040160405180910390fd5b5f60208284031215611258575f80fd5b81356001600160e01b03198116811461126f575f80fd5b9392505050565b5f81518084525f5b8181101561129a5760208185018101518683018201520161127e565b505f602082860101526020601f19601f83011685010191505092915050565b602081525f61126f6020830184611276565b80356001600160a01b03811681146112e1575f80fd5b919050565b5f80604083850312156112f7575f80fd5b611300836112cb565b946020939093013593505050565b5f805f60608486031215611320575f80fd5b611329846112cb565b9250611337602085016112cb565b9150604084013590509250925092565b5f60208284031215611357575f80fd5b5035919050565b5f806040838503121561136f575f80fd5b8235915061137f602084016112cb565b90509250929050565b5f60208284031215611398575f80fd5b61126f826112cb565b60ff60f81b881681525f602060e060208401526113c160e084018a611276565b83810360408501526113d3818a611276565b606085018990526001600160a01b038816608086015260a0850187905284810360c0860152855180825260208088019350909101905f5b818110156114265783518352928401929184019160010161140a565b50909c9b505050505050505050505050565b5f805f805f805f60e0888a03121561144e575f80fd5b611457886112cb565b9650611465602089016112cb565b95506040880135945060608801359350608088013560ff81168114611488575f80fd5b9699959850939692959460a0840135945060c09093013592915050565b5f80604083850312156114b6575f80fd5b6114bf836112cb565b915061137f602084016112cb565b600181811c908216806114e157607f821691505b6020821081036114ff57634e487b7160e01b5f52602260045260245ffd5b50919050565b8082018082111561045857634e487b7160e01b5f52601160045260245ffd5b634e487b7160e01b5f52602160045260245ffdfea264697066735822122017589333a3fdfcbbad192b71aa314ac0e0c8ba6d5c030b5d452f48757c2aae2764736f6c63430008180033","linkReferences":{}},"methodIdentifiers":{"BURNER_ROLE()":"282c51f3","DEFAULT_ADMIN_ROLE()":"a217fddf","DOMAIN_SEPARATOR()":"3644e515","MAX_SUPPLY()":"32cb6b0c","MINTER_ROLE()":"d5391393","allowance(address,address)":"dd62ed3e","approve(address,uint256)":"095ea7b3","balanceOf(address)":"70a08231","burn(address,uint256)":"9dc29fac","burnSelf(uint256)":"b8b12a1e","decimals()":"313ce567","eip712Domain()":"84b0196e","finalizeGenesis()":"85758cc7","genesisFinalized()":"4421d5f5","getRoleAdmin(bytes32)":"248a9ca3","grantRole(bytes32,address)":"2f2ff15d","hasRole(bytes32,address)":"91d14854","mint(address,uint256)":"40c10f19","name()":"06fdde03","nonces(address)":"7ecebe00","permit(address,address,uint256,uint256,uint8,bytes32,bytes32)":"d505accf","renounceRole(bytes32,address)":"36568abe","revokeRole(bytes32,address)":"d547741f","supportsInterface(bytes4)":"01ffc9a7","symbol()":"95d89b41","totalSupply()":"18160ddd","transfer(address,uint256)":"a9059cbb","transferFrom(address,address,uint256)":"23b872dd"},"id":44}