{"abi":[{"type":"constructor","inputs":[{"name":"admin","type":"address","internalType":"address"},{"name":"initialBridge","type":"address","internalType":"address"},{"name":"genesisMinter_","type":"address","internalType":"address"}],"stateMutability":"nonpayable"},{"type":"function","name":"BURNER_ROLE","inputs":[],"outputs":[{"name":"","type":"bytes32","internalType":"bytes32"}],"stateMutability":"view"},{"type":"function","name":"DEFAULT_ADMIN_ROLE","inputs":[],"outputs":[{"name":"","type":"bytes32","internalType":"bytes32"}],"stateMutability":"view"},{"type":"function","name":"DOMAIN_SEPARATOR","inputs":[],"outputs":[{"name":"","type":"bytes32","internalType":"bytes32"}],"stateMutability":"view"},{"type":"function","name":"MAX_SUPPLY","inputs":[],"outputs":[{"name":"","type":"uint256","internalType":"uint256"}],"stateMutability":"view"},{"type":"function","name":"MINTER_ROLE","inputs":[],"outputs":[{"name":"","type":"bytes32","internalType":"bytes32"}],"stateMutability":"view"},{"type":"function","name":"PAUSER_ROLE","inputs":[],"outputs":[{"name":"","type":"bytes32","internalType":"bytes32"}],"stateMutability":"view"},{"type":"function","name":"allowance","inputs":[{"name":"owner","type":"address","internalType":"address"},{"name":"spender","type":"address","internalType":"address"}],"outputs":[{"name":"","type":"uint256","internalType":"uint256"}],"stateMutability":"view"},{"type":"function","name":"approve","inputs":[{"name":"spender","type":"address","internalType":"address"},{"name":"value","type":"uint256","internalType":"uint256"}],"outputs":[{"name":"","type":"bool","internalType":"bool"}],"stateMutability":"nonpayable"},{"type":"function","name":"balanceOf","inputs":[{"name":"account","type":"address","internalType":"address"}],"outputs":[{"name":"","type":"uint256","internalType":"uint256"}],"stateMutability":"view"},{"type":"function","name":"bridgeAddress","inputs":[],"outputs":[{"name":"","type":"address","internalType":"address"}],"stateMutability":"view"},{"type":"function","name":"burn","inputs":[{"name":"from","type":"address","internalType":"address"},{"name":"amount","type":"uint256","internalType":"uint256"}],"outputs":[],"stateMutability":"nonpayable"},{"type":"function","name":"burnSelf","inputs":[{"name":"amount","type":"uint256","internalType":"uint256"}],"outputs":[],"stateMutability":"nonpayable"},{"type":"function","name":"decimals","inputs":[],"outputs":[{"name":"","type":"uint8","internalType":"uint8"}],"stateMutability":"pure"},{"type":"function","name":"eip712Domain","inputs":[],"outputs":[{"name":"fields","type":"bytes1","internalType":"bytes1"},{"name":"name","type":"string","internalType":"string"},{"name":"version","type":"string","internalType":"string"},{"name":"chainId","type":"uint256","internalType":"uint256"},{"name":"verifyingContract","type":"address","internalType":"address"},{"name":"salt","type":"bytes32","internalType":"bytes32"},{"name":"extensions","type":"uint256[]","internalType":"uint256[]"}],"stateMutability":"view"},{"type":"function","name":"finalizeGenesis","inputs":[],"outputs":[],"stateMutability":"nonpayable"},{"type":"function","name":"genesisFinalized","inputs":[],"outputs":[{"name":"","type":"bool","internalType":"bool"}],"stateMutability":"view"},{"type":"function","name":"genesisMinter","inputs":[],"outputs":[{"name":"","type":"address","internalType":"address"}],"stateMutability":"view"},{"type":"function","name":"getRoleAdmin","inputs":[{"name":"role","type":"bytes32","internalType":"bytes32"}],"outputs":[{"name":"","type":"bytes32","internalType":"bytes32"}],"stateMutability":"view"},{"type":"function","name":"grantPauserRole","inputs":[{"name":"account","type":"address","internalType":"address"}],"outputs":[],"stateMutability":"nonpayable"},{"type":"function","name":"grantRole","inputs":[{"name":"role","type":"bytes32","internalType":"bytes32"},{"name":"account","type":"address","internalType":"address"}],"outputs":[],"stateMutability":"nonpayable"},{"type":"function","name":"hasRole","inputs":[{"name":"role","type":"bytes32","internalType":"bytes32"},{"name":"account","type":"address","internalType":"address"}],"outputs":[{"name":"","type":"bool","internalType":"bool"}],"stateMutability":"view"},{"type":"function","name":"isBurner","inputs":[{"name":"account","type":"address","internalType":"address"}],"outputs":[{"name":"","type":"bool","internalType":"bool"}],"stateMutability":"view"},{"type":"function","name":"isMinter","inputs":[{"name":"account","type":"address","internalType":"address"}],"outputs":[{"name":"","type":"bool","internalType":"bool"}],"stateMutability":"view"},{"type":"function","name":"isPaused","inputs":[],"outputs":[{"name":"","type":"bool","internalType":"bool"}],"stateMutability":"view"},{"type":"function","name":"mint","inputs":[{"name":"to","type":"address","internalType":"address"},{"name":"amount","type":"uint256","internalType":"uint256"}],"outputs":[],"stateMutability":"nonpayable"},{"type":"function","name":"name","inputs":[],"outputs":[{"name":"","type":"string","internalType":"string"}],"stateMutability":"view"},{"type":"function","name":"nonces","inputs":[{"name":"owner","type":"address","internalType":"address"}],"outputs":[{"name":"","type":"uint256","internalType":"uint256"}],"stateMutability":"view"},{"type":"function","name":"pause","inputs":[],"outputs":[],"stateMutability":"nonpayable"},{"type":"function","name":"paused","inputs":[],"outputs":[{"name":"","type":"bool","internalType":"bool"}],"stateMutability":"view"},{"type":"function","name":"permit","inputs":[{"name":"owner","type":"address","internalType":"address"},{"name":"spender","type":"address","internalType":"address"},{"name":"value","type":"uint256","internalType":"uint256"},{"name":"deadline","type":"uint256","internalType":"uint256"},{"name":"v","type":"uint8","internalType":"uint8"},{"name":"r","type":"bytes32","internalType":"bytes32"},{"name":"s","type":"bytes32","internalType":"bytes32"}],"outputs":[],"stateMutability":"nonpayable"},{"type":"function","name":"remainingSupply","inputs":[],"outputs":[{"name":"","type":"uint256","internalType":"uint256"}],"stateMutability":"view"},{"type":"function","name":"renounceAdminRole","inputs":[],"outputs":[],"stateMutability":"nonpayable"},{"type":"function","name":"renounceRole","inputs":[{"name":"role","type":"bytes32","internalType":"bytes32"},{"name":"callerConfirmation","type":"address","internalType":"address"}],"outputs":[],"stateMutability":"nonpayable"},{"type":"function","name":"revokePauserRole","inputs":[{"name":"account","type":"address","internalType":"address"}],"outputs":[],"stateMutability":"nonpayable"},{"type":"function","name":"revokeRole","inputs":[{"name":"role","type":"bytes32","internalType":"bytes32"},{"name":"account","type":"address","internalType":"address"}],"outputs":[],"stateMutability":"nonpayable"},{"type":"function","name":"supportsInterface","inputs":[{"name":"interfaceId","type":"bytes4","internalType":"bytes4"}],"outputs":[{"name":"","type":"bool","internalType":"bool"}],"stateMutability":"view"},{"type":"function","name":"symbol","inputs":[],"outputs":[{"name":"","type":"string","internalType":"string"}],"stateMutability":"view"},{"type":"function","name":"totalSupply","inputs":[],"outputs":[{"name":"","type":"uint256","internalType":"uint256"}],"stateMutability":"view"},{"type":"function","name":"transfer","inputs":[{"name":"to","type":"address","internalType":"address"},{"name":"value","type":"uint256","internalType":"uint256"}],"outputs":[{"name":"","type":"bool","internalType":"bool"}],"stateMutability":"nonpayable"},{"type":"function","name":"transferFrom","inputs":[{"name":"from","type":"address","internalType":"address"},{"name":"to","type":"address","internalType":"address"},{"name":"value","type":"uint256","internalType":"uint256"}],"outputs":[{"name":"","type":"bool","internalType":"bool"}],"stateMutability":"nonpayable"},{"type":"function","name":"unpause","inputs":[],"outputs":[],"stateMutability":"nonpayable"},{"type":"function","name":"updateBridge","inputs":[{"name":"newBridge","type":"address","internalType":"address"}],"outputs":[],"stateMutability":"nonpayable"},{"type":"event","name":"AdminRoleRenounced","inputs":[{"name":"formerAdmin","type":"address","indexed":true,"internalType":"address"}],"anonymous":false},{"type":"event","name":"Approval","inputs":[{"name":"owner","type":"address","indexed":true,"internalType":"address"},{"name":"spender","type":"address","indexed":true,"internalType":"address"},{"name":"value","type":"uint256","indexed":false,"internalType":"uint256"}],"anonymous":false},{"type":"event","name":"BridgeUpdated","inputs":[{"name":"oldBridge","type":"address","indexed":true,"internalType":"address"},{"name":"newBridge","type":"address","indexed":true,"internalType":"address"}],"anonymous":false},{"type":"event","name":"EIP712DomainChanged","inputs":[],"anonymous":false},{"type":"event","name":"EmergencyPause","inputs":[{"name":"pausedBy","type":"address","indexed":true,"internalType":"address"},{"name":"reason","type":"string","indexed":false,"internalType":"string"}],"anonymous":false},{"type":"event","name":"EmergencyUnpause","inputs":[{"name":"unpausedBy","type":"address","indexed":true,"internalType":"address"}],"anonymous":false},{"type":"event","name":"GenesisFinalized","inputs":[{"name":"totalSupply","type":"uint256","indexed":true,"internalType":"uint256"},{"name":"finalizedBy","type":"address","indexed":true,"internalType":"address"}],"anonymous":false},{"type":"event","name":"Paused","inputs":[{"name":"account","type":"address","indexed":false,"internalType":"address"}],"anonymous":false},{"type":"event","name":"RoleAdminChanged","inputs":[{"name":"role","type":"bytes32","indexed":true,"internalType":"bytes32"},{"name":"previousAdminRole","type":"bytes32","indexed":true,"internalType":"bytes32"},{"name":"newAdminRole","type":"bytes32","indexed":true,"internalType":"bytes32"}],"anonymous":false},{"type":"event","name":"RoleGranted","inputs":[{"name":"role","type":"bytes32","indexed":true,"internalType":"bytes32"},{"name":"account","type":"address","indexed":true,"internalType":"address"},{"name":"sender","type":"address","indexed":true,"internalType":"address"}],"anonymous":false},{"type":"event","name":"RoleRevoked","inputs":[{"name":"role","type":"bytes32","indexed":true,"internalType":"bytes32"},{"name":"account","type":"address","indexed":true,"internalType":"address"},{"name":"sender","type":"address","indexed":true,"internalType":"address"}],"anonymous":false},{"type":"event","name":"Transfer","inputs":[{"name":"from","type":"address","indexed":true,"internalType":"address"},{"name":"to","type":"address","indexed":true,"internalType":"address"},{"name":"value","type":"uint256","indexed":false,"internalType":"uint256"}],"anonymous":false},{"type":"event","name":"Unpaused","inputs":[{"name":"account","type":"address","indexed":false,"internalType":"address"}],"anonymous":false},{"type":"error","name":"AccessControlBadConfirmation","inputs":[]},{"type":"error","name":"AccessControlUnauthorizedAccount","inputs":[{"name":"account","type":"address","internalType":"address"},{"name":"neededRole","type":"bytes32","internalType":"bytes32"}]},{"type":"error","name":"ECDSAInvalidSignature","inputs":[]},{"type":"error","name":"ECDSAInvalidSignatureLength","inputs":[{"name":"length","type":"uint256","internalType":"uint256"}]},{"type":"error","name":"ECDSAInvalidSignatureS","inputs":[{"name":"s","type":"bytes32","internalType":"bytes32"}]},{"type":"error","name":"ERC20InsufficientAllowance","inputs":[{"name":"spender","type":"address","internalType":"address"},{"name":"allowance","type":"uint256","internalType":"uint256"},{"name":"needed","type":"uint256","internalType":"uint256"}]},{"type":"error","name":"ERC20InsufficientBalance","inputs":[{"name":"sender","type":"address","internalType":"address"},{"name":"balance","type":"uint256","internalType":"uint256"},{"name":"needed","type":"uint256","internalType":"uint256"}]},{"type":"error","name":"ERC20InvalidApprover","inputs":[{"name":"approver","type":"address","internalType":"address"}]},{"type":"error","name":"ERC20InvalidReceiver","inputs":[{"name":"receiver","type":"address","internalType":"address"}]},{"type":"error","name":"ERC20InvalidSender","inputs":[{"name":"sender","type":"address","internalType":"address"}]},{"type":"error","name":"ERC20InvalidSpender","inputs":[{"name":"spender","type":"address","internalType":"address"}]},{"type":"error","name":"ERC2612ExpiredSignature","inputs":[{"name":"deadline","type":"uint256","internalType":"uint256"}]},{"type":"error","name":"ERC2612InvalidSigner","inputs":[{"name":"signer","type":"address","internalType":"address"},{"name":"owner","type":"address","internalType":"address"}]},{"type":"error","name":"EnforcedPause","inputs":[]},{"type":"error","name":"ExpectedPause","inputs":[]},{"type":"error","name":"InvalidAccountNonce","inputs":[{"name":"account","type":"address","internalType":"address"},{"name":"currentNonce","type":"uint256","internalType":"uint256"}]},{"type":"error","name":"InvalidShortString","inputs":[]},{"type":"error","name":"ReentrancyGuardReentrantCall","inputs":[]},{"type":"error","name":"StringTooLong","inputs":[{"name":"str","type":"string","internalType":"string"}]}],"bytecode":{"object":"0x61016060405234801562000011575f80fd5b50604051620026ed380380620026ed833981016040819052620000349162000513565b60405180604001604052806008815260200167556c74726144414760c01b81525080604051806040016040528060018152602001603160f81b81525060405180604001604052806008815260200167556c74726144414760c01b815250604051806040016040528060048152602001635544414760e01b8152508160039081620000bf9190620005f8565b506004620000ce8282620005f8565b50620000e091508390506005620003ce565b61012052620000f1816006620003ce565b61014052815160208084019190912060e052815190820120610100524660a0526200017e60e05161010051604080517f8b73c3c69bb8fe3d512ecc4cf759cc79239f7b179b0ffacaa9a75d522b39400f60208201529081019290925260608201524660808201523060a08201525f9060c00160405160208183030381529060405280519060200120905090565b60805250503060c0525060017f9b779b17422d0df92223018b32b4d1fa46e071723d6817e2486d003becc55f00556001600160a01b038316620002085760405162461bcd60e51b815260206004820152601a60248201527f554441473a2061646d696e2063616e6e6f74206265207a65726f00000000000060448201526064015b60405180910390fd5b6001600160a01b038216620002605760405162461bcd60e51b815260206004820152601b60248201527f554441473a206272696467652063616e6e6f74206265207a65726f00000000006044820152606401620001ff565b6001600160a01b038116620002c45760405162461bcd60e51b815260206004820152602360248201527f554441473a2067656e65736973206d696e7465722063616e6e6f74206265207a60448201526265726f60e81b6064820152608401620001ff565b620002d05f8462000406565b50620002eb5f80516020620026cd8339815191528462000406565b50620003065f80516020620026cd8339815191528262000406565b50620003337f65d7a28e3265b37a6474929f336521b332c1681b933f6cb9f3376673440d862a8462000406565b50600a80546001600160a01b0319166001600160a01b03838116919091179091556009805462010000600160b01b03191662010000928516929092029190911790556200038f5f80516020620026cd8339815191528362000406565b506040516001600160a01b038316905f907faae9beddccf584528e87b66c6ff2563825c8a1433305b8a656e9b5f9bf390499908290a350505062000736565b5f602083511015620003ed57620003e583620004b5565b905062000400565b81620003fa8482620005f8565b5060ff90505b92915050565b5f8281526008602090815260408083206001600160a01b038516845290915281205460ff16620004ad575f8381526008602090815260408083206001600160a01b03861684529091529020805460ff19166001179055620004643390565b6001600160a01b0316826001600160a01b0316847f2f8788117e7eff1d82e926ec794901d17c78024a50270940304540a733656f0d60405160405180910390a450600162000400565b505f62000400565b5f80829050601f81511115620004e2578260405163305a27a960e01b8152600401620001ff9190620006c4565b8051620004ef8262000712565b179392505050565b80516001600160a01b03811681146200050e575f80fd5b919050565b5f805f6060848603121562000526575f80fd5b6200053184620004f7565b92506200054160208501620004f7565b91506200055160408501620004f7565b90509250925092565b634e487b7160e01b5f52604160045260245ffd5b600181811c908216806200058357607f821691505b602082108103620005a257634e487b7160e01b5f52602260045260245ffd5b50919050565b601f821115620005f357805f5260205f20601f840160051c81016020851015620005cf5750805b601f840160051c820191505b81811015620005f0575f8155600101620005db565b50505b505050565b81516001600160401b038111156200061457620006146200055a565b6200062c816200062584546200056e565b84620005a8565b602080601f83116001811462000662575f84156200064a5750858301515b5f19600386901b1c1916600185901b178555620006bc565b5f85815260208120601f198616915b82811015620006925788860151825594840194600190910190840162000671565b5085821015620006b057878501515f19600388901b60f8161c191681555b505060018460011b0185555b505050505050565b5f602080835283518060208501525f5b81811015620006f257858101830151858201604001528201620006d4565b505f604082860101526040601f19601f8301168501019250505092915050565b80516020808301519190811015620005a2575f1960209190910360031b1b16919050565b60805160a05160c05160e051610100516101205161014051611f45620007885f395f61154601525f61151901525f61132c01525f61130401525f61125f01525f61128901525f6112b30152611f455ff3fe608060405234801561000f575f80fd5b5060043610610255575f3560e01c80637ecebe0011610140578063a9059cbb116100bf578063d539139311610084578063d5391393146104fd578063d547741f14610511578063da0239a614610524578063dd62ed3e1461052c578063e63ab1e914610564578063f865af0814610578575f80fd5b8063a9059cbb146104a9578063aa271e1a146104bc578063b187bd26146104cf578063b8b12a1e146104d7578063d505accf146104ea575f80fd5b806391d148541161010557806391d148541461045b57806395d89b411461046e5780639dc29fac14610476578063a217fddf14610489578063a3c573eb14610490575f80fd5b80637ecebe001461041557806383b8a5ae146104285780638456cb591461043057806384b0196e1461043857806385758cc714610453575f80fd5b806332cb6b0c116101d75780634334614a1161019c5780634334614a146103975780634421d5f5146103aa5780635c975abb146103bc5780636c11c21c146103c75780636eb38212146103da57806370a08231146103ed575f80fd5b806332cb6b0c146103535780633644e5151461036157806336568abe146103695780633f4ba83a1461037c57806340c10f1914610384575f80fd5b806323b872dd1161021d57806323b872dd146102e6578063248a9ca3146102f9578063282c51f31461031b5780632f2ff15d1461032f578063313ce56714610344575f80fd5b806301ffc9a71461025957806306fdde0314610281578063095ea7b3146102965780631351440a146102a957806318160ddd146102d4575b5f80fd5b61026c610267366004611b42565b61058b565b60405190151581526020015b60405180910390f35b6102896105c1565b6040516102789190611bb3565b61026c6102a4366004611be0565b610651565b600a546102bc906001600160a01b031681565b6040516001600160a01b039091168152602001610278565b6002545b604051908152602001610278565b61026c6102f4366004611c08565b610668565b6102d8610307366004611c41565b5f9081526008602052604090206001015490565b6102d85f80516020611e9083398151915281565b61034261033d366004611c58565b61068b565b005b60405160088152602001610278565b6102d8660775f05a07400081565b6102d86106b5565b610342610377366004611c58565b6106c3565b6103426106fb565b610342610392366004611be0565b610742565b61026c6103a5366004611c82565b6108a8565b60095461026c90610100900460ff1681565b60095460ff1661026c565b6103426103d5366004611c82565b6108c0565b6103426103e8366004611c82565b61092c565b6102d86103fb366004611c82565b6001600160a01b03165f9081526020819052604090205490565b6102d8610423366004611c82565b610afe565b610342610b1b565b610342610bcc565b610440610c67565b6040516102789796959493929190611c9b565b610342610ca9565b61026c610469366004611c58565b610dc4565b610289610dee565b610342610484366004611be0565b610dfd565b6102d85f81565b6009546102bc906201000090046001600160a01b031681565b61026c6104b7366004611be0565b610ebe565b61026c6104ca366004611c82565b610ecb565b61026c610ee3565b6103426104e5366004611c41565b610ef0565b6103426104f8366004611d32565b610f42565b6102d85f80516020611ed083398151915281565b61034261051f366004611c58565b611078565b6102d861109c565b6102d861053a366004611d9f565b6001600160a01b039182165f90815260016020908152604080832093909416825291909152205490565b6102d85f80516020611eb083398151915281565b610342610586366004611c82565b6110b7565b5f6001600160e01b03198216637965db0b60e01b14806105bb57506301ffc9a760e01b6001600160e01b03198316145b92915050565b6060600380546105d090611dc7565b80601f01602080910402602001604051908101604052809291908181526020018280546105fc90611dc7565b80156106475780601f1061061e57610100808354040283529160200191610647565b820191905f5260205f20905b81548152906001019060200180831161062a57829003601f168201915b5050505050905090565b5f3361065e8185856110d8565b5060019392505050565b5f336106758582856110e5565b61068085858561115b565b506001949350505050565b5f828152600860205260409020600101546106a5816111b8565b6106af83836111c2565b50505050565b5f6106be611253565b905090565b6001600160a01b03811633146106ec5760405163334bd91960e11b815260040160405180910390fd5b6106f6828261137c565b505050565b5f610705816111b8565b61070d6113e7565b61071561140c565b60405133907f306ca22c455fe433ebbf0542bbf947ea6a725495f9e1043db2a47e3c57940385905f90a250565b5f80516020611ed0833981519152610759816111b8565b61076161145e565b610769611482565b6001600160a01b0383166107c45760405162461bcd60e51b815260206004820152601a60248201527f554441473a206d696e7420746f207a65726f206164647265737300000000000060448201526064015b60405180910390fd5b5f821161081e5760405162461bcd60e51b815260206004820152602260248201527f554441473a206d696e7420616d6f756e74206d75737420626520706f73697469604482015261766560f01b60648201526084016107bb565b660775f05a0740008261083060025490565b61083a9190611e13565b11156108885760405162461bcd60e51b815260206004820152601d60248201527f554441473a20776f756c6420657863656564206d617820737570706c7900000060448201526064016107bb565b610892838361149d565b6106f660015f80516020611ef083398151915255565b5f6105bb5f80516020611e9083398151915283610dc4565b5f6108ca816111b8565b6001600160a01b0382166109155760405162461bcd60e51b8152602060048201526012602482015271554441473a207a65726f206164647265737360701b60448201526064016107bb565b6106f65f80516020611eb0833981519152836111c2565b5f610936816111b8565b61093e61145e565b600954610100900460ff16156109a85760405162461bcd60e51b815260206004820152602960248201527f554441473a206272696467652075706461746573206c6f636b65642061667465604482015268722067656e6573697360b81b60648201526084016107bb565b6001600160a01b0382166109fe5760405162461bcd60e51b815260206004820152601f60248201527f554441473a206e6577206272696467652063616e6e6f74206265207a65726f0060448201526064016107bb565b6009546001600160a01b0362010000909104811690831603610a625760405162461bcd60e51b815260206004820152601960248201527f554441473a2073616d652062726964676520616464726573730000000000000060448201526064016107bb565b6009546201000090046001600160a01b0316610a8b5f80516020611ed08339815191528261137c565b50610aa35f80516020611ed0833981519152846111c2565b506009805462010000600160b01b031916620100006001600160a01b0386811691820292909217909255604051908316907faae9beddccf584528e87b66c6ff2563825c8a1433305b8a656e9b5f9bf390499905f90a3505050565b6001600160a01b0381165f908152600760205260408120546105bb565b5f610b25816111b8565b600954610100900460ff16610b7c5760405162461bcd60e51b815260206004820152601c60248201527f554441473a2066696e616c697a652067656e657369732066697273740000000060448201526064016107bb565b610b865f3361137c565b50610b9e5f80516020611eb08339815191523361137c565b5060405133907f6c075372e489d1c7e017c8ad18285fcfba69b89fa5987060313cd65b33340fa3905f90a250565b5f80516020611eb0833981519152610be3816111b8565b610beb61145e565b610bf36114d5565b336001600160a01b03167fc50068396f19981cb0435611d2c97dde7b6882fdc3185a9fb8080fa756b3974d604051610c5c9060208082526019908201527f456d657267656e63792070617573652074726967676572656400000000000000604082015260600190565b60405180910390a250565b5f6060805f805f6060610c78611512565b610c8061153f565b604080515f80825260208201909252600f60f81b9b939a50919850469750309650945092509050565b5f610cb3816111b8565b610cbb61145e565b600954610100900460ff1615610d135760405162461bcd60e51b815260206004820152601760248201527f554441473a20616c72656164792066696e616c697a656400000000000000000060448201526064016107bb565b6009805461ff001916610100179055610d395f80516020611ed08339815191523361137c565b50600a54610d5e905f80516020611ed0833981519152906001600160a01b031661137c565b50610d775f80516020611ed08339815191525f1961156c565b610d8f5f80516020611e908339815191525f1961156c565b33610d9960025490565b6040517fe560064537c187cdad9a8834f4949e5ac1f18d9e8b4643302461ce6288de2922905f90a350565b5f9182526008602090815260408084206001600160a01b0393909316845291905290205460ff1690565b6060600480546105d090611dc7565b5f80516020611e90833981519152610e14816111b8565b610e1c61145e565b610e24611482565b6001600160a01b038316610e7a5760405162461bcd60e51b815260206004820152601c60248201527f554441473a206275726e2066726f6d207a65726f20616464726573730000000060448201526064016107bb565b5f8211610e995760405162461bcd60e51b81526004016107bb90611e26565b6001600160a01b0383163314610eb457610eb48333846110e5565b61089283836115b6565b5f3361065e81858561115b565b5f6105bb5f80516020611ed083398151915283610dc4565b5f6106be60095460ff1690565b610ef861145e565b610f00611482565b5f8111610f1f5760405162461bcd60e51b81526004016107bb90611e26565b610f2933826115b6565b610f3f60015f80516020611ef083398151915255565b50565b83421115610f665760405163313c898160e11b8152600481018590526024016107bb565b5f7f6e71edae12b1b97f4d1f60370fef10105fa2faae0126114a169c64845d6126c9888888610fb18c6001600160a01b03165f90815260076020526040902080546001810190915590565b6040805160208101969096526001600160a01b0394851690860152929091166060840152608083015260a082015260c0810186905260e0016040516020818303038152906040528051906020012090505f61100b826115ea565b90505f61101a82878787611616565b9050896001600160a01b0316816001600160a01b031614611061576040516325c0072360e11b81526001600160a01b0380831660048301528b1660248201526044016107bb565b61106c8a8a8a6110d8565b50505050505050505050565b5f82815260086020526040902060010154611092816111b8565b6106af838361137c565b5f6110a660025490565b6106be90660775f05a074000611e68565b5f6110c1816111b8565b6106f65f80516020611eb08339815191528361137c565b6106f68383836001611642565b6001600160a01b038381165f908152600160209081526040808320938616835292905220545f198110156106af578181101561114d57604051637dc7a0d960e11b81526001600160a01b038416600482015260248101829052604481018390526064016107bb565b6106af84848484035f611642565b6001600160a01b03831661118457604051634b637e8f60e11b81525f60048201526024016107bb565b6001600160a01b0382166111ad5760405163ec442f0560e01b81525f60048201526024016107bb565b6106f6838383611714565b610f3f8133611727565b5f6111cd8383610dc4565b61124c575f8381526008602090815260408083206001600160a01b03861684529091529020805460ff191660011790556112043390565b6001600160a01b0316826001600160a01b0316847f2f8788117e7eff1d82e926ec794901d17c78024a50270940304540a733656f0d60405160405180910390a45060016105bb565b505f6105bb565b5f306001600160a01b037f0000000000000000000000000000000000000000000000000000000000000000161480156112ab57507f000000000000000000000000000000000000000000000000000000000000000046145b156112d557507f000000000000000000000000000000000000000000000000000000000000000090565b6106be604080517f8b73c3c69bb8fe3d512ecc4cf759cc79239f7b179b0ffacaa9a75d522b39400f60208201527f0000000000000000000000000000000000000000000000000000000000000000918101919091527f000000000000000000000000000000000000000000000000000000000000000060608201524660808201523060a08201525f9060c00160405160208183030381529060405280519060200120905090565b5f6113878383610dc4565b1561124c575f8381526008602090815260408083206001600160a01b0386168085529252808320805460ff1916905551339286917ff6391f5c32d9c69d2a47ea670b442974b53935d1edc7fd64eb21e047a839171b9190a45060016105bb565b60095460ff1661140a57604051638dfc202b60e01b815260040160405180910390fd5b565b6114146113e7565b6009805460ff191690557f5db9ee0a495bf2e6ff9c91a7834c1ba4fdd244a5e8aa4e537bd38aeae4b073aa335b6040516001600160a01b03909116815260200160405180910390a1565b60095460ff161561140a5760405163d93c066560e01b815260040160405180910390fd5b61148a611760565b60025f80516020611ef083398151915255565b6001600160a01b0382166114c65760405163ec442f0560e01b81525f60048201526024016107bb565b6114d15f8383611714565b5050565b6114dd61145e565b6009805460ff191660011790557f62e78cea01bee320cd4e420270b5ea74000d11b0c9f74754ebdbfc544b05a2586114413390565b60606106be7f0000000000000000000000000000000000000000000000000000000000000000600561178f565b60606106be7f0000000000000000000000000000000000000000000000000000000000000000600661178f565b5f82815260086020526040808220600101805490849055905190918391839186917fbd79b86ffe0ab8e8776151514217cd7cacd52c909f66475c3af44e129f0b00ff9190a4505050565b6001600160a01b0382166115df57604051634b637e8f60e11b81525f60048201526024016107bb565b6114d1825f83611714565b5f6105bb6115f6611253565b8360405161190160f01b8152600281019290925260228201526042902090565b5f805f8061162688888888611838565b9250925092506116368282611900565b50909695505050505050565b6001600160a01b03841661166b5760405163e602df0560e01b81525f60048201526024016107bb565b6001600160a01b03831661169457604051634a1406b160e11b81525f60048201526024016107bb565b6001600160a01b038085165f90815260016020908152604080832093871683529290522082905580156106af57826001600160a01b0316846001600160a01b03167f8c5be1e5ebec7d5bd14f71427d1e84f3dd0314c0f7b2291e5b200ac8c7c3b9258460405161170691815260200190565b60405180910390a350505050565b61171c61145e565b6106f68383836119b8565b6117318282610dc4565b6114d15760405163e2517d3f60e01b81526001600160a01b0382166004820152602481018390526044016107bb565b5f80516020611ef08339815191525460020361140a57604051633ee5aeb560e01b815260040160405180910390fd5b606060ff83146117a9576117a283611ade565b90506105bb565b8180546117b590611dc7565b80601f01602080910402602001604051908101604052809291908181526020018280546117e190611dc7565b801561182c5780601f106118035761010080835404028352916020019161182c565b820191905f5260205f20905b81548152906001019060200180831161180f57829003601f168201915b505050505090506105bb565b5f80807f7fffffffffffffffffffffffffffffff5d576e7357a4501ddfe92f46681b20a084111561187157505f915060039050826118f6565b604080515f808252602082018084528a905260ff891692820192909252606081018790526080810186905260019060a0016020604051602081039080840390855afa1580156118c2573d5f803e3d5ffd5b5050604051601f1901519150506001600160a01b0381166118ed57505f9250600191508290506118f6565b92505f91508190505b9450945094915050565b5f82600381111561191357611913611e7b565b0361191c575050565b600182600381111561193057611930611e7b565b0361194e5760405163f645eedf60e01b815260040160405180910390fd5b600282600381111561196257611962611e7b565b036119835760405163fce698f760e01b8152600481018290526024016107bb565b600382600381111561199757611997611e7b565b036114d1576040516335e2f38360e21b8152600481018290526024016107bb565b6001600160a01b0383166119e2578060025f8282546119d79190611e13565b90915550611a529050565b6001600160a01b0383165f9081526020819052604090205481811015611a345760405163391434e360e21b81526001600160a01b038516600482015260248101829052604481018390526064016107bb565b6001600160a01b0384165f9081526020819052604090209082900390555b6001600160a01b038216611a6e57600280548290039055611a8c565b6001600160a01b0382165f9081526020819052604090208054820190555b816001600160a01b0316836001600160a01b03167fddf252ad1be2c89b69c2b068fc378daa952ba7f163c4a11628f55a4df523b3ef83604051611ad191815260200190565b60405180910390a3505050565b60605f611aea83611b1b565b6040805160208082528183019092529192505f91906020820181803683375050509182525060208101929092525090565b5f60ff8216601f8111156105bb57604051632cd44ac360e21b815260040160405180910390fd5b5f60208284031215611b52575f80fd5b81356001600160e01b031981168114611b69575f80fd5b9392505050565b5f81518084525f5b81811015611b9457602081850181015186830182015201611b78565b505f602082860101526020601f19601f83011685010191505092915050565b602081525f611b696020830184611b70565b80356001600160a01b0381168114611bdb575f80fd5b919050565b5f8060408385031215611bf1575f80fd5b611bfa83611bc5565b946020939093013593505050565b5f805f60608486031215611c1a575f80fd5b611c2384611bc5565b9250611c3160208501611bc5565b9150604084013590509250925092565b5f60208284031215611c51575f80fd5b5035919050565b5f8060408385031215611c69575f80fd5b82359150611c7960208401611bc5565b90509250929050565b5f60208284031215611c92575f80fd5b611b6982611bc5565b60ff60f81b881681525f602060e06020840152611cbb60e084018a611b70565b8381036040850152611ccd818a611b70565b606085018990526001600160a01b038816608086015260a0850187905284810360c0860152855180825260208088019350909101905f5b81811015611d2057835183529284019291840191600101611d04565b50909c9b505050505050505050505050565b5f805f805f805f60e0888a031215611d48575f80fd5b611d5188611bc5565b9650611d5f60208901611bc5565b95506040880135945060608801359350608088013560ff81168114611d82575f80fd5b9699959850939692959460a0840135945060c09093013592915050565b5f8060408385031215611db0575f80fd5b611db983611bc5565b9150611c7960208401611bc5565b600181811c90821680611ddb57607f821691505b602082108103611df957634e487b7160e01b5f52602260045260245ffd5b50919050565b634e487b7160e01b5f52601160045260245ffd5b808201808211156105bb576105bb611dff565b60208082526022908201527f554441473a206275726e20616d6f756e74206d75737420626520706f73697469604082015261766560f01b606082015260800190565b818103818111156105bb576105bb611dff565b634e487b7160e01b5f52602160045260245ffdfe3c11d16cbaffd01df69ce1c404f6340ee057498f5f00246190ea54220576a84865d7a28e3265b37a6474929f336521b332c1681b933f6cb9f3376673440d862a9f2df0fed2c77648de5860a4cc508cd0818c85b8b8a1ab4ceeef8d981c8956a69b779b17422d0df92223018b32b4d1fa46e071723d6817e2486d003becc55f00a2646970667358221220c0e0a354e38ba319c630f7c4086bf5fc4b9774b84e49c641f549a4be82f53acb64736f6c634300081800339f2df0fed2c77648de5860a4cc508cd0818c85b8b8a1ab4ceeef8d981c8956a6","linkReferences":{}},"methodIdentifiers":{"BURNER_ROLE()":"282c51f3","DEFAULT_ADMIN_ROLE()":"a217fddf","DOMAIN_SEPARATOR()":"3644e515","MAX_SUPPLY()":"32cb6b0c","MINTER_ROLE()":"d5391393","PAUSER_ROLE()":"e63ab1e9","allowance(address,address)":"dd62ed3e","approve(address,uint256)":"095ea7b3","balanceOf(address)":"70a08231","bridgeAddress()":"a3c573eb","burn(address,uint256)":"9dc29fac","burnSelf(uint256)":"b8b12a1e","decimals()":"313ce567","eip712Domain()":"84b0196e","finalizeGenesis()":"85758cc7","genesisFinalized()":"4421d5f5","genesisMinter()":"1351440a","getRoleAdmin(bytes32)":"248a9ca3","grantPauserRole(address)":"6c11c21c","grantRole(bytes32,address)":"2f2ff15d","hasRole(bytes32,address)":"91d14854","isBurner(address)":"4334614a","isMinter(address)":"aa271e1a","isPaused()":"b187bd26","mint(address,uint256)":"40c10f19","name()":"06fdde03","nonces(address)":"7ecebe00","pause()":"8456cb59","paused()":"5c975abb","permit(address,address,uint256,uint256,uint8,bytes32,bytes32)":"d505accf","remainingSupply()":"da0239a6","renounceAdminRole()":"83b8a5ae","renounceRole(bytes32,address)":"36568abe","revokePauserRole(address)":"f865af08","revokeRole(bytes32,address)":"d547741f","supportsInterface(bytes4)":"01ffc9a7","symbol()":"95d89b41","totalSupply()":"18160ddd","transfer(address,uint256)":"a9059cbb","transferFrom(address,address,uint256)":"23b872dd","unpause()":"3f4ba83a","updateBridge(address)":"6eb38212"},"id":61}